:020000040800F2
:10000000C00900205502000833210008971D000890
:10001000312100084B0400086D2B0008000000008F
:10002000000000000000000000000000BB240008E9
:10003000FD04000800000000B9240008BD240008E9
:100040006F0200086F0200086F0200086F020008CC
:100050006F0200086F0200086F0200086F020008BC
:100060006F0200086F0200086F0200086F020008AC
:100070006F0200086F0200086F0200086F0200089C
:100080006F0200086F0200086F0200086F0200088C
:100090006F0200086F0200086F0200086F0200087C
:1000A0006F0200086F0200086F0200086F0200086C
:1000B0006F0200086F0200086F0200086F0200085C
:1000C0006F0200086F0200086F0200086F0200084C
:1000D0006F0200086F0200086F0200086F0200083C
:1000E0006F0200086F0200086F0200086F0200082C
:1000F0006F0200086F0200086F0200086F0200081C
:100100006F0200086F0200086F0200086F0200080B
:100110006F0200086F0200086F0200086F020008FB
:100120006F0200084D0400086F0200086F0200080B
:100130006F0200086F0200086F0200086F020008DB
:100140006F0200086F0200086F0200086F020008CB
:100150006F020008590400086F020008612B0008B4
:100160006F0200086F0200086F0200086F020008AB
:100170006F0200086F0200086F0200080000000014
:100180006F0200086F02000800F002F800F052F859
:1001900014A696E8000CB244B344DA4501D100F04D
:1001A00049F8BAE80F000FA696E83000A5EB040561
:1001B00004EB0607AAEB0704A7F101074FEA1515A0
:1001C0004FEA3414A4F10104AC4201D300F032F838
:1001D00013F0010F18BFFB1A43F0010300F001F800
:1001E000DBE718473843000058430000103A24BFAB
:1001F00078C878C1FAD8520724BF30C830C144BF8C
:1002000004680C6070470000704700000023002461
:1002100000250026103A28BF78C1FBD8520728BF16
:1002200030C148BF0B6070471FB504F058F81FBDC0
:1002300010B510BD00F0D0F81146FFF7F5FF02F041
:10024000F7FE00F0EEF803B4FFF7F2FF03BC00F096
:10025000F5F800000948804709480047FEE7FEE737
:10026000FEE7FEE7FEE7FEE7FEE7FEE7FEE7FEE766
:1002700004480549054A064B7047000061250008FF
:1002800089010008C0030020C0090020C00500202B
:10029000C005002053EA020C00F069802DE9F04B04
:1002A0004FF00006002B1FBFB3FA83F503FA05F4E5
:1002B00024FA05F65E4012BF1643B2FA82F502FA3E
:1002C00005F4C5F120051EBF22FA05FC44EA0C0422
:1002D000203556EA044C4FEA144418BF641C4FF012
:1002E00000084FF00009904271EB030C39D300294C
:1002F00019BFB1FA81F701FA07F6B0FA80F700FAF0
:1003000007F6C7F120071EBF20FA07FC46EA0C06D5
:100310002037B6FBF4FCA7EB0507103F07F01F0BD7
:10032000CBF120062CFA06F60CFA0BFB44BFB346C1
:100330000026202FA4BF5E464FF0000B5BEA060CA0
:1003400008BF4FF0010B19EB0B0948EB0608ABFB9C
:10035000027C06FB02CC0BFB03CCC01B71EB0C0137
:10036000C1E70B46024641464846BDE8F08B13B54F
:10037000084318BF4FF0FF300146AFF30080BDE8DF
:100380001C4070474FF0000200B513469446964655
:10039000203922BFA0E80C50A0E80C50B1F1200198
:1003A000BFF4F7AF090728BFA0E80C5048BF0CC046
:1003B0005DF804EB890028BF40F8042B08BF7047A4
:1003C00048BF20F8022B11F0804F18BF00F8012B16
:1003D0007047704770477047754600F02BF8AE467F
:1003E00005006946534620F00700854618B020B541
:1003F000FFF73EFFBDE820404FF000064FF000073A
:100400004FF000084FF0000BAC46ACE8C009ACE878
:10041000C009ACE8C009ACE8C00921F007018D466D
:10042000704710B50446AFF300802046BDE8104089
:10043000FFF709BF0048704710000020014918204D
:10044000ABBEFEE7260002007047FEE7014800F061
:10045000D7BA00BF20020020014800F0D1BA00BF87
:1004600080020020026840F2FF3122EA010102F01E
:10047000F802103A5F2A88BF043181651823B2FB65
:10048000F3F202A39A5CC265084670470006101694
:1004900000061016B0B50468806825684028084634
:1004A00025F480252560636008BF1046A06008BF62
:1004B0000A46E260B0BD000010B5074B00F13A01FA
:1004C000002290F83F400734A24228BF10BD9C5C38
:1004D0008C540132F5E700BF5801002001720099E9
:1004E000026343630187704780F862107047000021
:1004F00001490870704700BFD5010020704772B6EF
:10050000FEE70000F8B50022009290F83C20012A96
:1005100001D1022171E0012280F83C200A680A2AF8
:100520001FFA82FC09D34FEA4C0313FA82F3A3F1BA
:100530001E05036803F10C0604E0036802EB4205A4
:1005400003F1100607273468AF40BC4334608C6861
:10055000AC4035682C4334604968062909D801EB62
:1005600081014C1F1F2101FA04F5194651F8346F1F
:1005700014E001EB81050C2908D8A5F123041F2103
:1005800001FA04F5194651F8306F07E0A5F141046E
:100590001F2101FA04F5194651F82C6F26EA0505CA
:1005A0000CFA04F40D600D682C430C606349A1F54E
:1005B0004174A3421ED1122A04D10A6842F4800277
:1005C0000A6017E022F00103102B13D10B68102AE8
:1005D00043F400030B600DD1C749C84A0968B1FB59
:1005E000F2F101EB810149000091009911B10099EC
:1005F0000139F9E7002180F83C100846F8BD00BF3A
:100600000068C06C70470000002841D070B50446F7
:10061000006C30B9204600F099F8002084F83C00C6
:100620006064206CC00635D4206C41F2021188430E
:10063000424902302064086820F44030086094E8A1
:100640000D0025690E6832430A60416821F480710B
:100650004160416841EA05214160416821F04071F3
:10066000416041681943364B4160816821F4006163
:100670008160E168826811438160816821F0706166
:100680008160A26A81689A4206D121F040510CE053
:100690000120704701204CE011438160816821F006
:1006A00040518160E16A826811438160816821F074
:1006B0000201816094F82020217E836843EA410191
:1006C000816041686AB141F400611E4A416041683D
:1006D00021F460414160616A02EB4131426811439B
:1006E00001E021F400614160174BC16A21F47001FF
:1006F000C162E269616903EB0252C36A1A43C262D2
:10070000826822F40072826094F83020836843EAA1
:1007100042228260826822F480628260826842EAB9
:1007200081210122816000206064216C62F301015B
:100730002164002184F83C1070BD00BF04230140F7
:100740000100000F00E0FFFF0000F0FFFEB50268AF
:100750006B480021CDE9041182421ED1104A00915C
:1007600000F56040536943F480735361536903F4A7
:1007700080730093009B0091136843F001031360A2
:10078000126802F0010200920391032102910221FA
:100790000191009901A900F00DFB06B080BD00BFDA
:1007A00030380240F8B5044600680D4681684905B6
:1007B00002D58068C00525D400F0DCFB06466F1C1E
:1007C0002068016889070ED4002FF9D02DB100F000
:1007D000D1FB801BA842F3D9206800688007EFD4C2
:1007E00001F006FDF8BD6FF012010160216C41F4CB
:1007F00000712164816811F0405F01D1217E51B107
:100800000020F8BD002084F83C00206C40F020005F
:1008100020640120F8BDC16A11F4700F02D0806815
:100820004005EDD401F0FEFDEAD401F0BFFDE7E79D
:1008300018B50021009190F83C10012904BF022056
:1008400018BD01F059FD10D10B682C4C43F0010389
:100850000B60C14B1B68B3FBF4F303EB4303009342
:10086000009B13B1009B013BF9E70C68036CE407A4
:1008700005D101F07DFD0A681043086036E001F003
:100880007AFC04D5036C012464F30D330364036C18
:100890000024DB0444BF446C24F0060444646FF07D
:1008A00022040023146080F83C301548D0F804334B
:1008B000DB0603D0824219D1806814E0824211D055
:1008C000104B9A420AD0104B9A420FD1D0F8043301
:1008D000DB0607D000F500739A4207D1D0F8040375
:1008E000C00603D4086810F0405F01D0002018BD96
:1008F0004FF08040BFE700BF0800002040420F00DB
:1009000000200140002201400021014070B5866DA9
:10091000044600F02FFB054694F83500022821D14B
:100920002068216C026822F016020260426922F0FF
:100930008002426109B9A16C19B1016821F0080176
:10094000016001F05EFC20680068C0070ED000F076
:1009500011FB401B0628F6D320206065032084F895
:1009600035000CE080206065012008E0E06D3F214B
:1009700001FA00F0B060012084F835000020002169
:1009800084F8341070BD90F83510022909D1052182
:1009900080F835100068724601F033FC964600205E
:1009A0007047802141650120704770B530B1054620
:1009B00090F83500022803D102241FE001241DE035
:1009C0002868002401F01DFC21210460446084603B
:1009D000C460046141612846FFF744FD064605F105
:1009E0003C001821FFF7CEFCE86D3F2101FA00F032
:1009F000B0606C6585F8344085F83540204670BDA0
:100A0000F8B504460020544A08210090D4E9166045
:100A100015683768814039420CD0226813685B073B
:100A200008D5136823F004031360B160616D41F0D1
:100A30000101616501218140394208D02268526973
:100A4000120604D5B160616D41F0020161650421B7
:100A50008140394208D022681268920704D5B160FB
:100A6000616D41F00401616510218140394217D068
:100A700020680268120713D5B1600268016852034A
:100A800006D4C90506D4016821F00801016001E01F
:100A9000080301D4216C00E0A16C09B1204688470D
:100AA000E16D202000FA01F23A4233D02068036859
:100AB000DB062FD5B26094F835300268052B15D1CE
:100AC00022F016020260426922F080024261226C2A
:100AD0000AB9A26C1AB1026822F0080202603F2033
:100AE0008840B06001F056FB216D2FE00168520391
:100AF00008D4C9050AD4016821F01001016001F091
:100B000049FB03E0080301D4616C00E0E16B09B12B
:100B100020468847606DF0B1606DC00715D0052193
:100B20004FF4165084F83510B5FBF0F021680A68D0
:100B300022F001020A60009A01328242009202D839
:100B40000A68D207F7D101F025FBE16C19B1204604
:100B5000BDE8F8400847F8BD080000202DE9F04145
:100B6000044600F007FAACB10546022084F83500CF
:100B700001F0D0FB206801F044FB21680868C00741
:100B80000BD000F0F7F9401B0528F6D903252026E5
:100B900003205BE00120BDE8F081086804F1040C4B
:100BA0002D4A9CE8E81100EA020ED4E9072043EA46
:100BB0000E032B4333433B4343EA08031A43636A60
:100BC000104340EA0C02042B03D1D4E90B0528435F
:100BD00002430A60042B486920F0070040EA030240
:100BE00028D1D4E90A733A4323B3BCF5005F08D097
:100BF000BCF1000F14D1022F15D0012F0AD0002F05
:100C000010E0032F16D8012540260120DFE807F069
:100C10001E0B1E02A3F1C070B0FA80F0400904E080
:100C2000032F03D306D1C3F3006018B1012540267A
:100C300001200BE020464A61FFF714FCE16D3F22E2
:100C40000026012502FA01F181600020666584F822
:100C50003550BDE8F08100BF3F8010F0B0B501F025
:100C60008EFB27D00120A56D84F8340094F8350060
:100C700001281DD1022084F835000020606520463F
:100C8000FFF708FCE26D3F232068216C03FA02F2B3
:100C9000AA60026842F01602026019B1016841F0D0
:100CA00008010160016841F0010101600020B0BD50
:100CB00001F030FB0220B0BDB0B5044600F05AF997
:100CC0000546CE48611C007818BF044400F052F974
:100CD000401BA042FAD3B0BD2DE9F04F8B46984996
:100CE0004FF0080A4FF00F0C4FF000098842954969
:100CF00008BF4FF0070A8205014442EA9121072903
:100D000038BF8A4600230026102E08BFBDE8F08FAA
:100D1000012101FA06F717EA0B0246D08A4903F0CF
:100D20000C0E26F003080CFA0EF40AFA0EF5A1F5E3
:100D30007E7C5CF808102140A94217D182494FEA15
:100D4000960E0D6895430D604D6895434D607F4D3F
:100D5000A8462D689543C8F800508D6825EA020220
:100D60008A605CF82E20A2434CF82E2003210268F2
:100D70006FF003044FF00F0C01FA09F104EA560476
:100D80008A430444026003F01C02256A0CFA02F252
:100D900025EA02022262C2688A43C2604268BA43FC
:100DA0004260826822EA01018160043309F102098C
:100DB0000136A9E72DE9FC4F614A08244FF0010AEA
:100DC0004FF0000B90425F4A08BF0724830502449E
:100DD00043EA9222072A38BF1446009400250022D5
:100DE000102A08BFBDE8FC8F0F680AFA02F917EA5B
:100DF000090700F09F80D1F804C0032303FA0BF623
:100E00000CF0030E6FEA0608AEF10106012E13D8AE
:100E10008668D1F80CA00AFA0BF406EA08064FF02F
:100E2000010A34438460CCF300144668944026EAF7
:100E300009063443446005E0BEF1030F02D14FF0D0
:100E4000030E21E0C4688E6804EA080406FA0BF673
:100E50003443BEF1020FC46016D105F01C040F2309
:100E600003FA04FC6FF0030303EA520303441E6A0F
:100E700026EA0C0C0E6906FA04F444EA0C041C621F
:100E8000D1F804C00CF0030E04680EFA0BF304EA68
:100E9000080423431CF4403F03604BD000232C4C38
:100EA000A84622F003060193236843F4804323609D
:100EB00023680F2403F48043019305F00C03224DB3
:100EC0009C40AC462E44019D224DAE46755925EA04
:100ED0000404009D05FA03F3234346F80E30DCF8C2
:100EE00008304D6843EA0704EE0258BF23EA0704BE
:100EF000164BCCF80840AE029E461B6843EA070436
:100F000058BF23EA0704CEF80040AE03DCF80430F3
:100F100043EA070458BF23EA0704CCF80440ED0372
:100F2000DCF80030454643EA070458BF23EA0704CB
:100F3000CCF800400BF1020B0435013250E700BF42
:100F4000001C02400000FEBF003C01400C3C014080
:100F50004438024008FCFFFF426902EA0103914362
:100F600041EA034181617047002A08BF0904816199
:100F70007047000005480068704700BF1F480349DC
:100F800000780A6810440860704700BFB80300206A
:100F900080B50B48016841F400710160016841F4BB
:100FA00080610160016841F480710160032000F0FC
:100FB0008BF8002000F006F800F022F8002080BD39
:100FC000003C024070B50D4E04464FF47A71307803
:100FD000B1FBF0F094490968B1FBF0F000F0F0FAD1
:100FE00001250F2C08D838B94FF0FF3021460022D8
:100FF000002500F043F87460284670BD0000002012
:1010000082B000200C4901904A6842F480424A6054
:101010004A6802F480420192019A0090086840F008
:1010200080500860086800F0805000900098072009
:1010300002B000F049B800BF40380240002809D48F
:10104000734601F0E3F89E46034A8850BFF34F8F82
:10105000BFF36F8F704700BF80E100E0002809D424
:101060001C21012201EAD00100F01F0002FA00F069
:10107000014A8850704700BF00E100E0F0B5184B0E
:101080004FF0FF361C68C4F30224E51E84F0070409
:1010900038BF002506FA05F7BA43042C28BF0424FC
:1010A00006FA04F4A14300F00F04A940043C1143E4
:1010B000044A234409010244002848BF03F10C02FA
:1010C0001170F0BD00E400E005494FF6FF030A6827
:1010D0001A4060F30A22034810430860704700BFBB
:1010E0000CED00E00000FA05002852D02DE9F04197
:1010F000404B04468846D3F8000400F007008842BD
:1011000004D283F8008401F03FF84BD120688107B6
:1011100011D5410703D5996841F4E0519960010761
:1011200003D5996841F460419960A1689A6822F0FA
:10113000F00211439960C0072DD101F025F804D9C0
:1011400083F8008401F020F82CD12068410705D5F0
:10115000E1689A6822F4E05211439960000706D5CD
:101160002069996821F4604141EAC00098601C46FA
:1011700000F060F8A168204AC1F30311515CC84037
:10118000294908601D480068FFF71CFF0020BDE8E2
:10119000F081012070476068811E022905D219681C
:1011A000890107D40120BDE8F08101281DD119680B
:1011B0008903F7D599681D4621F00301084398601B
:1011C000FFF7D8FE064641F288376068A9682B46CB
:1011D00001F00C01B1EB800FAFD0FFF7CBFE801B0D
:1011E000B842F2D90320BDE8F08119688907D9D542
:1011F000E0E700BF0038024002430008040000207E
:1012000009480A490A4A00680968C1F38221515C09
:10121000C840704704480549054A00680968C1F399
:101220004231515CC8407047080000200838024035
:101230001243000810B5134C606800F00C0112480E
:10124000082903D004291CD1104810BD2168236847
:1012500001F03F0221685B02C1F3881105D4A1FBB4
:1012600000010023FFF716F803E008484843B0FBED
:10127000F2F021680222C1F3014102EB4101B0FB0F
:10128000F1F010BD043802400024F40000127A008E
:10129000002864D02DE9FC4104460078C54EC00703
:1012A0000CD0B06800F00C00042840F0908030684A
:1012B000800303D56068002800F0A18020788007B3
:1012C00019D5B06810F00C0F07D001F01EF840F0EF
:1012D00099807068400200F195803068800703D5DE
:1012E000E068012840F08B802069316821F0F80126
:1012F00041EAC00030602078000732D420784007EF
:1013000042D4A76947B301F000F840F0AC80012F48
:1013100075D0E169706800F480028A426FD1216A59
:1013200000F03F028A426AD147F6C071626A01400A
:10133000B1EB821F63D1A16A4FF6FF72C9039143DB
:1013400000F44032A1F580318A4258D1E16A00F0C0
:101350007060B0EB016F52D10020BDE8FC8101202C
:1013600070476169944800296DD00121C0F8801E42
:10137000FFF700FE0546706F8007BFD4FFF7FAFD48
:10138000401B0228F7D9CCE0306C5FEAC0080AD4D1
:1013900000200190306C40F080503064306C00F0E0
:1013A000805001900198854F3868C0053DD4386859
:1013B00040F480703860FFF7DDFD05463868C005F1
:1013C00033D4FFF7D7FD401B0228F7D9A9E000F07E
:1013D0009CFF03D1706840023FF569AF6068B0F5CB
:1013E000803F07D0B0F5A02F40F08580306840F4F2
:1013F00080203060306840F48030306085E001202B
:10140000BDE8FC81E06800284CD06B4801210160F8
:10141000FFF7B0FD0546306880073FF565AFFFF781
:10142000A9FD401B0228F6D97BE0A068012805D061
:10143000052848D1306F40F004003067306F40F02D
:101440000100306749E00021C0F8801EFFF792FDDF
:101450000546706F80077FF551AFFFF78BFD401B8E
:101460000228F6D95DE05449002088460866FFF757
:1014700081FD0546022F0AD147463068800153D5C9
:10148000FFF778FD411B03200229F6D965E7306894
:1014900080017FF561AFFFF76DFD411B032002293D
:1014A000F5D95AE7444800210160FFF763FD05467E
:1014B000306880077FF51FAFFFF75CFD411B0320FD
:1014C0000229F5D949E7316F002821F00101316780
:1014D000316F21F00401316745D0FFF74BFD054620
:1014E00041F28837306F80074CD4FFF743FD401B33
:1014F000B842F7D915E03168002821F48031316015
:10150000316821F48021316045D0FFF733FD054675
:10151000306880033FF5D2AEFFF72CFD401B6428F6
:10152000F6D90320BDE8FC811C341FCC0843D90345
:1015300040EA82104FF6FF72914340EA0460A1F541
:1015400080310843706001203866FFF713FD0446C0
:10155000306880013FF500AFFFF70CFD011B032051
:101560000229F5D9F9E6FFF705FD054641F288376E
:10157000306F800706D5FFF7FDFC411B0320B94201
:10158000F6D9EAE6B8F1000F3FF5BBAE306C20F0BB
:1015900080503064B5E6FFF7EDFC05463068800307
:1015A0007FF58CAEFFF7E6FC411B03206429F5D9DB
:1015B000D3E600BF00380240000047420070004000
:1015C000411E0020B0EB116F1CBF01207047044A80
:1015D000F023516003490B70072190601160704740
:1015E00010E000E023ED00E090F83C300222012BF7
:1015F0002FD010B580F83D2002680B68546824F0A5
:1016000070041C439368B2F1804F546014D09D4C19
:10161000A24211D09C4CA2420ED09C4CA2420BD0B4
:101620009B4CA24208D09B4CA24205D09A4CA242AD
:1016300002D09A4CA24204D1496823F08003194396
:1016400091600022012180F83C2080F83D10BDE827
:1016500010401046704700BFF8B500F00CFF04BF03
:101660000220F8BD00F0C5FE67D8DFE801F00210E7
:101670001F3ED5E90012EB68206801F041F82068B0
:1016800050F8181F21F00C010160A96851E0D5E95C
:101690000012EB68206801F083F8206850F8181FEA
:1016A00021F440610160A968090242E02268136ADE
:1016B000106A20F4807023F420631062D5E900677B
:1016C000D5E9021060F30717104650F81C5F25F0AB
:1016D000F3053D43056006F00A0543EA052313625E
:1016E000026822F00C02026023E021684FF2FF073B
:1016F0000A6A086A20F4805022F420420862D5E980
:101700000030D5E90265000203F00A0320EA07076A
:10171000084642EA033265F30F3750F81C5F25F4A0
:1017200073453D4305600A62016821F44061016030
:1017300031020268114301600020002184F83C104E
:10174000F8BD58B110B500F04FFE03D100F0FDFD1B
:1017500000F006F800F09BFE00F061BD012070472C
:1017600010B586B0044601A81421FEF70BFE2068D0
:101770004549884210D04349884224D1002013496A
:1017800000900A6942F002020A610A6902F002024C
:1017900000F021FD10200CE000200C4900900A69A7
:1017A00042F004020A610A6902F0040200F013FD2B
:1017B0008020022100220591049201AB07C3044856
:1017C00001A9FFF7F7FA06B010BD00BF303802409C
:1017D0000004024010B5044661B108290FD0042965
:1017E00019BF04F1450004F1410204F1430004F182
:1017F0003F0208E004F1420004F13E0203E004F17C
:10180000440004F14002137802780120012B08BF44
:10181000012A00D010BD022061B108290DD0042991
:1018200019BF84F8410084F8450084F83F0084F82B
:10183000430004E000F00CFE01E000F07EFD2068B3
:1018400000F045FD00F0AAFD14D00E49884211D0E9
:101850000D4988420ED00D4988420BD00C49884270
:1018600008D00C49884205D00B49884202D00B4968
:10187000884202D100F00EFD01D000F0EBFC002008
:1018800010BD00BF0004004000080040000C0040F4
:1018900000180040000001400040014000040140E9
:1018A0004FEAB101032984BF00207047DFE801F04F
:1018B000020B05080068343007E000683C3004E0A3
:1018C0000068403001E00068383000687047B0B50B
:1018D00000F084FD10D000F079FD00284FF00100E9
:1018E00005D12068C16821F0400100F0A6FD00216B
:1018F00084F83C1084F83D50B0BD7047B8B110B5C5
:101900000446242084F841002068C16821F4005175
:10191000C160204600F048F90020606484F841006E
:1019200084F84200206384F84000606310BD012009
:1019300070477047F8B5044600680268C168466998
:1019400015074FEA82633FD001F4907706F0010655
:10195000BF193DD0D70705D0CF0503D5676C47F039
:1019600001076764570704D51EB1676C47F002078B
:101970006764920704D51EB1626C42F0040262648F
:10198000002D07D501F02002921903D0626C42F0BD
:1019900008026264626C002A00F0E580002B05D525
:1019A000890603D5204600F0D4FF20684069616CA9
:1019B00000F0400001F00801401847D12046FFF731
:1019C000B8FF00206064CEE0002B01D58B0653D415
:1019D000236B012B03D1D30601D5CB0651D41306BB
:1019E00001D50B0611D4520640F1BD80490640F1E5
:1019F000BA80C16821F04001C160202084F8410014
:101A00002046BDE8F84000F0BBB994F84110212908
:101A100040F0A980A168B1F5805F03D12169002958
:101A200000F0A280216A4A1C226209784160E18CA0
:101A30000139E184090440F09680C16821F08001F9
:101A4000C160C16841F04001C160F8BD00F07AFC9E
:101A500000F040FC49D500F0A4FBFCD1E06B00286D
:101A600043D045490165FEF78EFF00287BD0E06B2F
:101A7000016DBDE8F84008472046BDE8F84000F099
:101A800068BF0021009101680091416800910099B0
:101A9000406940062ED4E08DA18DE28D002A62D0EF
:101AA000814260D0081A00F004FC21F4907142E8F1
:101AB0000313002BF7D1216851E8051F226821F09C
:101AC000010142E80513002BF5D1202184F84210D2
:101AD0000021216300F0EDFB21F0100142E8031327
:101AE000002BF7D1022161632EE02046BDE8F840CB
:101AF000FFF71FBFE06BA28D01684B6899B249B335
:101B0000914227D2E385C069B0F5807F17D000F0FD
:101B10000FFC20F4807000F08CFCF8D100F0FEFB8C
:101B2000FCD100F03EFBFCD1202084F842000020D4
:101B3000206300F029FCFCD1E06BFEF7E7FE0220F9
:101B40006063A08DE18D401A81B22046BDE8F84067
:101B5000FFF7D3BE8A4206D1C069B0F5807F02D1BB
:101B600002206063F1E7F8BD216A31F8022B6FF3C0
:101B70005F22216242605AE7D327000890B110B576
:101B8000044690F8410008B900F088FC00F013FC0E
:101B90002068016921F490410161416921F02A0125
:101BA00000F05BBC0120704710B50446016878481E
:101BB000814218BF10BD0A4900F574400A6822F03E
:101BC00020020A60C021FFF787F8E06BFEF7EDFE08
:101BD000A06BFEF7EAFE4720BDE81040FFF72EBAE3
:101BE000443802402DE9F04387B004460168684854
:101BF00081425BD10026FB4900F5744002964A6998
:101C000042F020024A614A6902F020020292029ADE
:101C100001960A6842F004020A60096801F00401B2
:101C20000191082106910321CDE90461022103916C
:101C3000C0210291019902A9FFF7BCF81D4D1E4F6A
:101C40004FF480684FF02069142105F11400C5E9B4
:101C50000079C5E90266C5F81080FEF793FB2846B7
:101C6000FEF77CFF08B1FEF74AFCAC63E563134D59
:101C700007F178014020C5E9001905F1080181E864
:101C8000410105F114001421FEF77CFB2846FEF704
:101C900065FF08B1FEF733FC472000210022AC634A
:101CA000A563FFF7EBF94720FFF7D8F907B0BDE8C8
:101CB000F08300BF20020020286402408002002040
:101CC00090F84230202B1CBF0220704721B11AB17E
:101CD0000023036300F0FCBE0120704700682C491C
:101CE000884218BF704710B5054800F10804204627
:101CF000FEF7E2FB20460121BDE81040FEF7F4BBF1
:101D0000EC0000207047000070B5044690F84100D8
:101D100020281CBF022070BDD9B11346CAB10022D1
:101D2000E384144E6264A3842162A06B2568C0E939
:101D30001362114A114EC0E90F62212284F841203A
:101D40002A1DFEF78BFF30B110206064202084F83C
:101D50004100012070BD20686FF04001016000F07B
:101D6000B1FA40F0800041E80502002AF7D10020D6
:101D700070BD00BFDD270008EF280008B328000869
:101D80000068EA49884218BF70470120FEF7B0BBDF
:101D9000001401407047FEE7BFB51348144B134AC7
:101DA000002401254FF480310394C46280F8204060
:101DB0000576836280F83040C561C0E90021C0E942
:101DC0000244C0E90444FEF71FFC08B1FEF797FB8C
:101DD000054869460294CDE90055FEF793FB08B12A
:101DE000FEF78DFBBFBD00BFD801002000200140E1
:101DF0000100000FE0B50020002201907948016841
:101E000041F4800101600021006800F4800001902D
:101E100001983920FFF732F93920FFF71FF94520E3
:101E200000210022FFF72AF94520BDE88C40FFF78A
:101E300015B900BF2DE9F04F89B0002469486A4FF9
:101E40006A4D00224FF0080A08940394016807F5D0
:101E5000805641F010010160016801F0100100F0AE
:101E600073F941F004010160016801F0040100F020
:101E70006BF941F080010160016801F0800100F020
:101E800063F941F001010160016801F0010100F016
:101E90005BF941F002010160016801F0020100F00C
:101EA00053F941F0080101600821006800F00800C2
:101EB0000390039802963046A84707F5006B01216E
:101EC00001224FF001085846A84707F540604FF23D
:101ED000100100220190A84758464FF400710022DB
:101EE000A847CDE90644CDE904A804AD404F3046EB
:101EF0004FF008092946B84740F201202946CDE9AC
:101F0000058407944FF0010804905846B847052609
:101F10004FF0020A58462946CDE906440896CDE915
:101F2000049AB8474FF4901029460694CDE90480EE
:101F30002D488146B847062000F047F9102004904C
:101F40004846B847E02000F0CDF94846B84704209D
:101F500009F5806800F001FA4046B8474FF4806008
:101F600000F0C0F94046B8470120019E2946CDE95E
:101F7000064405904FF2100004903046B8474FF4E5
:101F8000007000F0EAF94846B8470A2000F01DF951
:101F90004FF4E05004904846B847062000F015F989
:101FA0004FF4A05004905846B847202000F0D5F9CF
:101FB0003046B84704202946CDE907400120069065
:101FC000122005904FF4107004904046B8474FF42B
:101FD000901029460694CDE904A00298B84709B0AC
:101FE000BDE8F08F3038024000000240690F000861
:101FF000B50D0008B0B58CB01C481D4B00F0A9F819
:1020000008B1FEF77CFA50200125CDE9094408907B
:1020100004200B950790154807A9FFF758FC08B155
:10202000FEF76DFA0020069500220590CDE9030524
:102030000E4803A9FFF710FB08B1FEF760FA022073
:102040000422CDE90300094803A9FFF705FB08B105
:10205000FEF755FA00206946CDE900000348FFF776
:10206000C3FA08B1FEF74BFA0CB0B0BDE002002095
:1020700000040040B0B58CB01D481E4B00F069F85C
:1020800008B1FEF73CFA6020012508900420CDE954
:102090000A45022407901648099407A9FFF717FC80
:1020A00008B1FEF72CFA0020069500220590CDE934
:1020B00003040F4803A9FFF7CFFA08B1FEF71FFA90
:1020C00001200422049002200390094803A9FFF78D
:1020D000C3FA08B1FEF713FA00206946CDE9000003
:1020E0000348FFF781FA08B1FEF709FA0CB0B0BD5A
:1020F000280300200008004010B50A480A4B0B4C8A
:1021000000210C22C0E90043C0E90211C0E9041219
:10211000C0E90611FFF732FD18B1BDE81040FEF727
:10212000EEB910BD7003002020AA44000014014045
:10213000FEE7FEE78BED1E0ACBF86800CBF87010C7
:1021400028460221FEF72EBB0391039903940168F0
:10215000704700244EF65F210522CDE90544CDE904
:102160000344CDE900448461C0E90032C0E9024182
:102170000461FFF7E6BA40F20174A34303F58073EC
:10218000036453685B057047D3F8000400F0070050
:1021900040457047002084F83400012084F8350061
:1021A0007047206850E8050F216820F0400041E8A2
:1021B0000502002A7047B8EE411AB8EE400A31EE27
:1021C000000A10EE100A02F019B82946CDE905A45C
:1021D000CDE9074070470092009A0090086840F0EF
:1021E00002000860086800F0020000900098704744
:1021F000002084F83C00206C40F0040020640320A0
:102200007047016821F00101016070471C21012223
:1022100001EAD00100F01F0002FA00F0704701202F
:1022200084F8460084F83E0084F83F0084F84000BB
:1022300084F8410084F8420084F8430084F84400A4
:1022400084F8450084F83D00002010BD53EC102BAD
:1022500001F07CBB016841F0010101607047016839
:1022600051E8051F026821F0010142E80513002B27
:10227000704794F8560094F8571040EA01207047D0
:10228000016851E8031F026821F0100142E80313BE
:10229000002B7047816801F00701062970478DF80F
:1022A0000600000A03210B228DF80700042000908D
:1022B0007047216851E8031F2268704753EC102BC8
:1022C00001F020BD206850E8050F21687047012209
:1022D00000F0B0B9206840694006704753EC102BFD
:1022E00001F010BD2946CDE90746CDE905A40490CB
:1022F0007047204600F0D0BC0268012180F83C10F5
:10230000114651F8083FDB077047B06800F00C0039
:1023100008287047002084F834007047206850E88F
:10232000050F216820F0010041E80502002A7047EE
:10233000206850E8030F2168704784F8400084F853
:1023400044007047204600F0D5BA002084F83C00D5
:1023500020467047304600F027BE2946CDE90544A7
:102360000490704702210F220190042000907047D2
:1023700043F01001016400F144010120704704465C
:1023800090F8340001287047206850E8030F216856
:1023900020F0100041E80302002A70472068B0F1E5
:1023A000804F704710EE100A01F028BF206C40F0FB
:1023B000010020647047242084F841002068C1682F
:1023C00021F40051C160204600F01EBB84F83D009E
:1023D0000125204684F83C5000F03CB990F83C20A0
:1023E00004460220012A7047044690F83D00002868
:1023F00070470D4601204FEAB201032984F83C00E2
:10240000704794F8560094F8571040EA012094F869
:10241000581040EA014094F8591040EA016000EE7B
:10242000100A7047206C20F480702064206CC00477
:10243000704741E80302002A7047C160C16821F477
:102440008041C160002070470190042000907047D7
:1024500084F83E0084F8420070474161C16841F44D
:102460000051C16000202021606484F8411084F88C
:102470004210606310BD044690F83C00012870478C
:102480000B22ADF805100321009100F005BC0220DD
:10249000211D84F83D00206800F06AB8002084F80F
:1024A00040002046FFF79EBB51EC100B01F0A8BB8B
:1024B00041EC100B01F0F4B870477047FEF75EBDB9
:1024C000B0B592B000241421CDE90A44CDE9084406
:1024D00001A8FDF757FF204800940225016841F04C
:1024E00080510160006800F08050009000980094D6
:1024F0001A48016841F480410160006800F480409E
:1025000000900720109511904FF4A8700F900820AC
:102510000E904FF48000CDE90C504FF480300790BE
:1025200001200690009806A8FEF7B2FE08B172B628
:10253000FEE74FF48050CDE90254052105904FF499
:10254000A05004900F20019001A8FEF7CDFD08B126
:1025500072B6FEE712B0B0BD4038024000700040D5
:102560000248016841F470010160704788ED00E0A5
:1025700070B57F4B0268984234D0B0F1804F0BD0D9
:10258000774CA04208D0774CA04205D07A4CA042AC
:1025900002D0754CA04203D14C6822F07002224355
:1025A000B0F1804F22D06E4CA0421FD06D4CA042A3
:1025B0001CD06D4CA04219D06C4CA04216D0194CC6
:1025C000A04213D0184CA04210D06B4CA0420DD0AA
:1025D000684CA0420AD0154CA04207D0144CA0422F
:1025E00004D007E04C6822F070022243CC6822F449
:1025F000407222430D688E684C699842C6628562BB
:1026000003D003F58063984201D109690163016831
:1026100041F0040101600121416122F08001214368
:10262000016070BD001C00400020004000480140D7
:102630000044014010B501F01F010123046A8B40E2
:1026400002FA01F124EA03030362026A1143016200
:1026500010BD0000B0B50068D1E90032856822F0F5
:10266000070425F077052C431C4384604FEA32149D
:10267000072C08D80022DFE804F02F2F2F2F0408A2
:102680000E14052B1AD1012226E08B680A6919461F
:1026900000F024F81FE08B680A69194600F06EF814
:1026A00019E0D1E9022309691A4342EA012182684B
:1026B00022F47F421143002281600DE0026A036A26
:1026C00023F0010303620969836923F0F00343EAFD
:1026D00001118161026200221046B0BD10B5036A8B
:1026E000046A24F001040462846924F0F00444EADA
:1026F0000212826123F00A021143016210BD000040
:1027000070B5046A056AB0F1804F25F001050562D5
:10271000856914D0124EB04211D0124EB0420ED084
:10272000114EB0420BD0114EB04208D0104EB04204
:1027300005D0104EB04202D00F4EB0420CD125F061
:1027400003052A4363F3071201F00A01826124F0B2
:102750000A021144016270BD45F00102F2E700BFB8
:102760000004004000080040000C00400018004039
:1027700000000140004001400004014010B5036A20
:10278000046A24F010040462846924F4704444EA66
:102790000232826123F0A00242EA0111016210BDFF
:1027A000B0B5046A056A120201F00A0125F01005AD
:1027B00005624FF2FF05AA4363F30F32836923F4E6
:1027C00073431A43826124F0A00242EA01110162BC
:1027D000B0BD806B0021C185FFF7ABB810B5846B2D
:1027E0002068416994F84120212A08D111F0800124
:1027F00005D00020E084204600F09DF82068406964
:1028000094F84210222906D110F0400003D0002095
:10281000E085FFF797FD606C40F010006064204693
:10282000BDE81040FFF785B80168806B0968C905ED
:1028300029D40021C185016851E8031F026821F4F1
:10284000807142E80313002BF5D14DF808EDFFF736
:1028500006FD5DF808EBF8D1016851E8051F026834
:1028600021F0400142E80513002BF5D1202180F82A
:102870004210016B012906D14DF808EDFFF700FD6C
:102880005DF808EBF8D100214163016B012918BF05
:10289000FFF724BA818DFFF730B8806B01214163C7
:1028A000016B012918BFFFF72DBA818D4908FFF789
:1028B00024B80168806B0968C90548BFFFF760BA92
:1028C0000021C184016851E8051F026821F08001E0
:1028D00042E80513002BF5D1016851E8031F026897
:1028E00041F0400142E80313002BF5D17047806BA3
:1028F000FFF750BA016851E8031F026821F4907194
:1029000042E80313002BF5D14DF808EDFFF7A7FCC3
:102910005DF808EBF8D1016B012906D14DF808EDFF
:10292000FFF7AEFC5DF808EBF8D1202180F84210EB
:10293000002101637047016851E8031F026821F01C
:10294000C00142E80313002BF5D1202180F841108B
:10295000704790F84210222926D183680246B3F5C9
:10296000805F0CD152F8281F52F8183C8BB90268CE
:1029700052686FF35F2221F8022B81620FE052F858
:10298000281F0BB9036923B103685B6803F07F0359
:1029900001E003685B680B70116801311160C18D43
:1029A0000139C185090400D070470168CA6822F066
:1029B0002002CA60CA6822F48072CA604A6922F0A2
:1029C00001024A61202180F8421000214163026B1C
:1029D000012A18BFFFF782B981B001634DF808EDF5
:1029E000FFF74EFC5DF808EBF8D101680A68D206E3
:1029F00006D5002200920A68009249680091009969
:102A0000818D01B0FEF779BFB0B50446006804F1CE
:102A100008030ECB056925F4405519432A4349F2B2
:102A20000C650261C26863691943E369AA431943EB
:102A30001143C1604169A26921F4407111434161B0
:102A4000214940F48060884202D1FEF7E3FB01E0B7
:102A5000FEF7D6FBE26919216368A0FB0101B2F51C
:102A6000004F17D15A00DB0FFDF714FC174B642100
:102A7000B0FBF1F203F1805302FB0300322303EBBE
:102A8000C000B0FBF1F04FF4F87101EA400100F032
:102A9000070012E09A009B0FFDF7FCFB64210B4B33
:102AA000B0FBF1F202FB0300322303EB0010B0FB9A
:102AB000F1F000F0F00100F00F0001EB021108440A
:102AC00021688860B0BD00BF001401409CFFFF0F6B
:102AD000F8B51346002504461E4E0A461F4F4564AE
:102AE00083858162222084F84200E06B2168C0E97E
:102AF0001365194E0431C0E90F76FEF7AFF830B117
:102B000010206064202084F842000120F8BD009568
:102B1000206801680091406800900098206930B1F9
:102B2000FFF706FC40F48070FFF783FCF8D1FFF755
:102B3000C9FB40F0010041E80502002AF7D1FFF788
:102B4000C1FB40F0400041E80502002AF7D1002017
:102B5000F8BD00BFDD2700089B28000829280008D1
:102B60000148FEF7E7BE00BF70030020FEE7F8B59E
:102B70000646044616F83A0FFF283FD194F83B006A
:102B8000FF283BD194F83C00FD2837D194F83E0053
:102B9000217A884232D194F83F0031460025053031
:102BA000C7B200203A4600F065FD84F86000000AD4
:102BB00084F86100F05D94F8601088421FD1B81964
:102BC000407894F86110884218D194F83E0084F857
:102BD000530094F83F0084F8540094F8420084F8BD
:102BE0005500002094F854100439884209DA21185D
:102BF000013091F8432081F85620F3E7002528465C
:102C0000F8BD0125FBE70000D54A3A30002100233A
:102C1000192B08BF7047C154D1540133F8E700BFE6
:102C2000044900200022642A08BF704788540132FA
:102C3000F9E700BF7101002084B01348B7EE003AF5
:102C4000009011A0D0E90112C068CDE901120390F3
:102C500004206946102806D00A1823EE003A0430F2
:102C600082ED003AF6E79DED023A9DED034A9DEDB7
:102C7000010A23EE011A00EE841A01EE801A31EEE9
:102C8000020A04B0704700BF0000803F0000803F90
:102C90000000803F0000803F2DE9F84F05460A986C
:102CA0001B4F98465FFA81F940F2DD5B94B25FFA00
:102CB00080FA686B298F0122FEF756F900204A46F8
:102CC00053463870286B297ACDF8008000F070FCEC
:102CD000FEF750F90646387830B9FEF74BF9801BFD
:102CE0005845F8D3FF202860686B298F0022FEF733
:102CF0003BF92846214600F011F92868FF2804D046
:102D00002846FFF734FF0028D3D0BDE8F88F00BF76
:102D1000D5010020000000002DE9F84F2DED067BC5
:102D20006F4C704D00212046A847DFF8BC8104217C
:102D3000C8F810002046A8476C4CC8F814000021C1
:102D40002046A847C8F81C0020460421A847C8F818
:102D5000180041F2170140F6D4339FED651A9FED3C
:102D6000652AD8F81400D8F8102000FB01100132B1
:102D7000B0FBF2F0A0F11002181AD8F81C3000EEE7
:102D8000100A03FB0111D8F81830B8EEC00A98ED0C
:102D9000123A98ED138A20EE010A013320EE020A5E
:102DA000B1FBF3F140F6531388ED0C0A88ED120ADB
:102DB00030EE030A5B1A103904EE103AC8E90A0330
:102DC00010EE100AC8E90821B8EEC44A24EE011A30
:102DD00021EE029A88ED0D9A88ED139A01F00EFA11
:102DE0009FED390B53EC109B4A46019300F08AFF8C
:102DF0009FED370B57EC105B2A463B4600F082FFF5
:102E00000646D8F850000C4601F0F8F99FED320B59
:102E10005AEC10BB5A46534600F074FF3246234624
:102E200000F0E0FC00F0ACFC39EE080A0646C8F8F9
:102E30005000C8F8380010EE100A01F0DFF9019BCD
:102E40004A4600F05FFF2A463B4600F05BFF2A4FF0
:102E500004460D46786801F0D1F95A46534600F011
:102E600051FF22462B4600F0BDFC00F089FC08EE25
:102E7000106ADFED220A9FED221ADFED221A9FED84
:102E8000222A0446C8F83C007860B0EE480AFFF7F2
:102E9000D3FE30EE089A08EE104ADFED1C0A9FEDD3
:102EA0001C1ADFED1C1A9FED1C2AB0EE480AFFF732
:102EB000C3FE30EE080A88ED119A88ED100ABDECC9
:102EC000067B01B0BDE8F08F989999999999C93F0F
:102ED000000000000000E03F9A9999999999E93F14
:102EE000E0020020A1180008700000202803002044
:102EF0000000B44300008039EC0000203DC306B55B
:102F0000A86B54B940A4DF3C3480B7BA1DA238374F
:102F1000E02D90BAC070D73855C1283DB0B50446F1
:102F200000200D4684F862002046FFF76DFE206BFE
:102F30000B492A46FEF7C4FEFEF71CF8054694F836
:102F4000620038B9FEF716F8401BB0F57A7FF6D963
:102F5000FF20206094F8620008B101202060B0BD1D
:102F6000580100201CB50446054802210D22FFF738
:102F70006BFA01ABFFF7BDF9FFF77BF920831CBDAE
:102F8000260002001CB50446054802210C22FFF76A
:102F90005BFA01ABFFF7ADF994F8560060721CBD07
:102FA0000B000100000000001CB504460E48022181
:102FB0000D22FFF749FA01ABFFF79BF9FFF759F92B
:102FC000A08200B200F04BFE9FED050BFFF776F9F3
:102FD00000F0D6FB00EE100A1CBD00BF00BF00BF12
:102FE00085EB51B81E8505407E0002000000000000
:102FF0001CB504460C48FFF7B5F901ABFFF779F9AA
:10300000FFF7FFF92061B8EEC00AFFF7CBF99FED9B
:10301000040BFFF753F900F0B3FB00EE100A1CBDE0
:103020009535A094FF7FB63F8400040000000000A7
:1030300084B0FDF7ADFFFFF743FAFEF7FBFEFEF7A6
:10304000D9FEFFF759F8FEF7D5FFFFF713F8FEF7A3
:10305000A3FEDFF82C45DFF82C5500214FF00009C6
:103060002046A84720460421A847DFF81C45002138
:103070002046A84720460421A8474FF40070D74FA8
:10308000DFF8104502210090DFF80005A7F5806306
:10309000224600F108063046FDF720FA2046FEF7EA
:1030A0002DFCCF4860602046FEF768FD08B172B67F
:1030B000FEE76420FDF700FEDFF8DC04FDF7B8FB57
:1030C000DFF8D8B44FF47A70CBF81090CBF81490A6
:1030D000CBF81890CBE91899CBE91A99CBF87090F6
:1030E000CBE91099CBE91299CBE91499CBE9169960
:1030F000CBE90899CBE90A99CBE90C99CBE90E9970
:10310000CBF81C90FDF7D8FD3046002100F0A0FA66
:103110003046FFF727FF3046FFF734FF30460121E6
:1031200000F09FFA9FEDAF0A9FEDAFEA9FEDAFFA77
:103130009FEDAFDBB6EE00CA41F28838F7EE00EA49
:1031400003969FEDAD1AB4EE410AF1EE10FA00F3CA
:10315000048230468BED1D0A8DED020A00F060FA04
:10316000FFF7DAFD00259BED108A9BED119ACBE964
:103170000255FDF7FFFE044675BBFFF7CDFDFFF7D7
:10318000E9F88BED1E0A9BED110A30EE490AB0EE0C
:10319000C00AB4EE4C0AF1EE10FA14DA9BED100AF4
:1031A00030EE480AB0EEC00AB4EE4C0AF1EE10FA66
:1031B00009DAFDF7DFFE001B404532BF002501257F
:1031C000CBE9025503E00025FDF7D4FE04469BED54
:1031D000108A9BED119ACFE7FDF7CCFE0446FDF770
:1031E000C9FE001BC0087C2806D8FFF795FDFFF735
:1031F000B1F88BED1E0AF2E74FF0000838464FF4A5
:103200008051CBE90288FDF7A7FE9DED020A00255B
:10321000B8F1000F8BED1D0A18BF002D40F02E8174
:1032200038464FF48041FDF797FEFDF7A3FE0746B1
:10323000CBE90099FFF770FDD74C9BED10AADBEDB1
:10324000119A0221CBE91599CBE917992046FDF790
:10325000A9FA10B1DBF8640004E02046FDF7D0F9CC
:10326000CBF86400DFEDD08A00EE100AB8EE400A19
:10327000F0EE68BAB0EE68BAB0EE688A8BED1B0A61
:10328000A946B8F1000F18BFB9F1000F40F0EB806C
:10329000FDF770FEC01BC72800F2E580FDF76AFE4F
:1032A0000446FFF739FDFDF765FE504508D19BED5B
:1032B00010AADBED119ADBED15CA9BED169A25E0FD
:1032C0009BED111AA0EB0A009FEDB84A9BED100A86
:1032D000B1EE085A03EE100A31EE692AB8EE433A0D
:1032E000F0EE419A82EE032A22EE042AC2EE05CACB
:1032F00030EE4A2AB0EE40AA82EE032ACBED15CA80
:1033000022EE042A82EE059A8BED169A3BEE890A8C
:10331000304620EE0E0A60EE0CFA38EEAC0A20EED3
:103320000E0A48EE0FFACBED18FA60EE0CAA9BEDF0
:103330001D0A4BEE0FAACBED17AA00F071F9FFF7AB
:1033400009F8DBF86400DBF86C10934DFEF7F2FE31
:1033500010B1DBF8640004E02846FDF751F9CBF822
:1033600064009BED1A0A01EE100A9BED178AFEF726
:1033700022FF9FED7F0BFEF7B1FF9FED7F0BFEF766
:10338000ADFF0646DBF870000D4600F037FF53EC4A
:103390001D2B00F0B7FC32462B4600F023FA00F05C
:1033A000EFF9B0EEC80ACBF86C000120B4EE6E0A5B
:1033B000F1EE10FAD8BF4046B8F1000F1ED1B4EEBE
:1033C0006E0A8046F1EE10FA19DD4FF00108CBF8D5
:1033D0000080FDF7CFFD074611E000BF000C024062
:1033E00020AA440000002042CCCC4C3ECDCC4C3F27
:1033F000AE47E17A14AEEF3F00002A4380469BEDD2
:10340000180A0125F0EE49BAB0EE6ABAB0EE6F8A3A
:10341000A246F0EE6C8AB0EEC00AB4EE6E0AF1EE8F
:1034200010FAD8BF4D46039E7FF72AAFB9F1000FBF
:10343000F0EE49BAB0EE6ABAB0EE6F8AA246F0EE8C
:103440006C8A7FF41DAF0125CBF80450FDF792FD87
:103450000746F0EE49BAB0EE6ABAB0EE6F8AA246FD
:10346000F0EE6C8A0CE79BED1D0AB0EE081A484F8F
:103470004D464FF0000930EE010AC9E6FDF77AFD2E
:10348000DFF808810446FDF775FD001BC72835D815
:10349000FFF742FCFEF75EFFDBF86400DBF86C1020
:1034A0003D4DFEF747FE10B1DBF8640004E028460E
:1034B000FDF7A6F8CBF864009BED1A0A01EE100A9E
:1034C000FEF779FE9FED2A0BFEF708FF9FED2A0B12
:1034D000FEF704FF0546DBF870000E4600F08EFE96
:1034E00053EC1D2B00F00EFC2A46334600F07AF90F
:1034F00000F046F9039ECBF86C00C4E738464FF461
:103500000041CBE90099FDF727FD3046FFF770FD3C
:103510009FED231A88ED000A31EE400A9FED211A33
:1035200020EE010AB5EE400AF1EE10FA07DCFFF7D3
:10353000F3FB3046B9EE000A00F072F8E5E79FEDC4
:103540001A0A304600F06CF89DED020AB2EE041A39
:1035500041F2883830EE010AF3E538464FF4005165
:10356000FDF7FAFC4FF4FA70FDF7A6FBF5E700BF94
:103570008014AE47E17A843F000000000000E03F85
:10358000E0020020D517000828030020EC000020EE
:10359000000C024070030020D801002070000020C1
:1035A0000000A04300003E430000000000007A44F9
:1035B0002DE9F0411C4617460D468046FFF730FBCB
:1035C000154EFF20E11C224630707070FD20B07057
:1035D0000020F070357171710699B07106F1080024
:1035E000F7712AB111F8013B013A00F8013BF8E705
:1035F00070793146421D002000F03CF80546A019C4
:1036000004F10A02290A0572417240463146FEF76A
:103610007BFB2846BDE8F08171010020000000001E
:103620001CB5044666200190FEF7BCFE9FED060B1C
:10363000FEF70CFEFEF73CFFFEF736FFFEF72FFE0F
:1036400001ABFEF756FE1CBD85EB51B81E8505404B
:10365000E0B58DF807100B210DF10503FEF710FF03
:103660008CBDE0B58DF8071040210DF10503FEF784
:1036700007FF8CBD70B5084D0024944283B224BF6F
:10368000184670BD11F8016B013486EA132335F832
:10369000133083EA0020F0E71A430008000000001E
:1036A00010B52DED020B2DED088B84B09DED0C0BAC
:1036B00051EC100B00F05AFC41EC180B9DED0C0B7B
:1036C00053EC182B51EC100B00F0AAFC41EC190B39
:1036D0000D989FED290B10F0004F53EC102B51EC7F
:1036E000190B9FED21AB9FED22BB0ED000F0CEFA5F
:1036F0000ED953EC1B2B51EC190B00F001FC1CD222
:1037000014E000BF41EC180B17E000F0BFFA06D23E
:1037100053EC1A2B51EC180B00F082FCF2E753EC3F
:103720001B2B51EC190B00F0EBFB06D853EC1A2BBA
:1037300051EC180B00F056F8E4E78DED028B9DED8F
:103740000C0B18EE901A10EE900A8DED000B61F341
:103750001E0003909DED020B04B0BDEC088B02B07F
:1037600010BD000000000000000000000000F03F5D
:10377000000000000000E03F000000000000E0BF8B
:1037800021F0004201F00043A2F16052B2F5801F27
:1037900028BFD2F17F6C0BD95FEA001C43EAC2025A
:1037A00042EB507018BF704728BF20F001007047EF
:1037B000B2F5801FBCBF184670474FEA410C1CF59C
:1037C000001F02D2084600F097BD70B500F044FB20
:1037D00000000089FFF7F6BF4FF00040A0F5800021
:1037E0007047000010B591EA030F48BF83F0004313
:1037F00000F11E84841A71EB030C05D2121943EBFD
:103800000C03001B61EB0C014FEA1154A4EB135C99
:10381000DFF81CE11EEA430F18BF9EEA445F00F088
:10382000748021EA045123EA0E0343F48013DCF18F
:10383000200E32D322FA0CFE10EB0E0023FA0CFEFF
:1038400041EB0E01CCF1200E03FA0EFE10EB0E0040
:10385000CCF1200E51F10001B1F5801F32D201EB05
:10386000045112FA0EF2BDE8104058BF7047401CD8
:1038700038BF5FEA420218BF7047002814BF20F02B
:10388000010041F100014FEA410313F5001F38BF69
:103890007047A1F1C04100F02DBB012A43EB0302A8
:1038A000ACF1200CDCF11F0E32BF4FF0000E23FAFA
:1038B0000CF310EB030041EB0451B4EB115FD0D0DB
:1038C000A1EB045101F58011490801EB04515FEAB5
:1038D00030000ED350F1000038BF12FA0EFE08D1AE
:1038E000BDE81040C9E7401C38BF5FEA4202CAD1B8
:1038F000C3E7BDE810404FEA410313F5001F38BF8E
:103900007047A1F1C04100F0F5BA9EEA445F08D0CB
:1039100011EA5E0FBDE8104004BF01F00041002035
:103920007047BDE8104070B500F096FA64FBBE3EEB
:103930000000E0FF491058BFC1F140415B1058BF83
:10394000C3F140438B42EFF3008070472DE9C04143
:1039500030B4DFF8A4C23CEA111418BF3CEA1314D7
:1039600000F0ED801CEA111481EA030544EAD574E5
:1039700018BF1CEA131500F0C880A4EB050404F17D
:103980007F7404F500344FF0004545EAC12145EA53
:10399000C32341EA505143EA52534FEAC0204FEA51
:1039A000C222994208BF904200F09D804FEA136501
:1039B0000FF24416765D4FEA134506FB05F7C7F193
:1039C000807706FB07F74FEAD737A7FB03687642F5
:1039D000A7FB06CEC8F5803838BFA8F1010807FB61
:1039E00008E6A6FB028C4FF0000EE6FB03CEDCF1EE
:1039F000000CCEF1004E38BFAEF1010EA6FB0C5804
:103A00004FF00007E6FB0E87A1FB08C6A0FB07CE20
:103A100016EB0E064FF0000545F10005E1FB0765CA
:103A200015F1E04E7EBFA4F580345FEA46066D4195
:103A300016F1800745F100054FEA172747EA0567A9
:103A40004FEA15254FEA0666A6F1DE46B6F1805F1D
:103A500020D9384605EBC47124F0010C01EB0C11A0
:103A6000BCF1FE6F02D8F0BCBDE8008124425CBF0F
:103A700001F5801E9EEAC47F02D4F0BCBDE800813F
:103A8000244200F13980A1F1C041F0BCBDE8004101
:103A900000F030BA4FEAD02040EA41504FEAD1213D
:103AA0004FEAD22242EA43524FEAD323A7FB0286CF
:103AB00007FB036605FB02661EEA0E0F58BFA6EB66
:103AC0000056B6EB00564FEA520E4EEAC37E18EB94
:103AD0000E0E56EB530EBCD518EB02085E417F1C50
:103AE00055F10005B5E74FF480154FF000074FF092
:103AF00000064FF00008ACE701F1C04101F00041C1
:103B00004FF00000F0BCBDE800810CEA131511EA8B
:103B10000C1F00D00CE013EA0C1F00F026804FF0C1
:103B2000000081EA030101F00041F0BCBDE8008122
:103B3000F0BCBDE8004181EA030100F0DBB9F0BC54
:103B4000BDE8004170B500F087F900BF097EFC3E7A
:103B500000F007B84FF0000081EA030101F00041D6
:103B6000704781EA030100F0C5B9F0BCBDE800412F
:103B700022494FF000007047FFFDFBF9F7F5F4F222
:103B8000F0EEEDEBE9E8E6E4E3E1E0DEDDDBDAD8F8
:103B9000D7D5D4D3D1D0CFCDCCCBCAC8C7C6C5C456
:103BA000C2C1C0BFBEBDBCBBBAB9B8B7B6B5B4B36D
:103BB000B2B1B0AFAEADACABAAA9A8A8A7A6A5A458
:103BC000A3A3A2A1A09F9F9E9D9C9C9B9A9999981C
:103BD0009797969595949393929191908F8F8E8EBF
:103BE0008D8C8C8B8B8A898988888787868585844C
:103BF00084838382828181800000FF070000F87F38
:103C00004FEA41034FEA5353A3F58063D3F11E03F8
:103C1000C8BFD3F1210C0CDD4FF0004242EAC122B3
:103C200042EA505232FA03FC8CEAE17CACEBE170E0
:103C30007047102BC4BF0020704703F5787CBCF19F
:103C4000FF3F04D06FF0004282EA2100704770B558
:103C500000F002F94992248000207047F2E710F04A
:103C6000004248BF4042B0FA80F310FA03F10AD094
:103C7000C3F11D0303F5806302EB03524FEA415089
:103C800002EBD12170474FF00000704751EA030C5E
:103C900017D41CF5801F58BFBCF5801F00F10680AB
:103CA000994218BF704708BF9042704707D711F577
:103CB000801F58BF13F5801F19D49942704789425D
:103CC00070471CF5801F08D5BCF5801FF7D58B42C7
:103CD00018BF704708BF824270474FF4001C1CEBAE
:103CE000410F38BF1CEB430F01D28B42704770B5B8
:103CF00000F0B2F8922449004FF000514FF0805389
:103D0000FFF718BE70B5DFF848C11CEA111E1EBFD0
:103D10001CEA13159EEA0C0F95EA0C0F00F06F8059
:103D200081EA03044EEAD47EAE4421EA4C1123EA30
:103D30004C1341F4801143F48013AEF17F7EA1FB5C
:103D4000024CA0FB0365361955EB0C05A1FB034C97
:103D50004CF10003A0FB021C16EB0C06654153F16D
:103D60000003094218BF46F0010613F4007F0BD18F
:103D70004FEA03314FEA053041EA155140EA165047
:103D800034036FF003020AE04FEAC3214FEAC52073
:103D900041EA555140EA5650F4026FF0020202EB3C
:103DA0002E4201EB025585EACE710AD05FEA440C3F
:103DB00018BF24F0004450F1000041F1000120EA56
:103DC000D47040F2FE7C624500D270BDA84214BFA0
:103DD0004FF080444FF04044002E08BF0024BEF155
:103DE000806FA8BFA1F1C041BDE8704080F2828021
:103DF00001F1C04101F000414FF0000070470CEAB2
:103E000013159EEA0C0F18BF95EA0C0F06D081EA35
:103E1000030E4FF000000EF0004170BD00F01CF8E2
:103E20008900013E00F007B800F009B84FEA430CE2
:103E30005FEA5C5C08D081EA030100F05BB84FEAFE
:103E4000410C5FEA5C5CF6D102494FF0000070471C
:103E50000000FF070000F87F0EF1020E2EF0030EA7
:103E60005EF8046B364205D4012A43EB030515F5D1
:103E7000001F12D8012841EB010C1CF5001F0CD8C3
:103E80000ED14FEAD17C0CEB4C0C0CF1020C15F569
:103E9000001F08BF4CEBD37C04E04FF0080C01E09E
:103EA0004FEAD37C0CEB4C0526FA05F606F0070624
:103EB000B6F1040C06D20EEB860CBDE870404CF057
:103EC000010C6047DFE80CF0090B02024FF00041E3
:103ED000A1F500214FF0000070BD194610460128E1
:103EE00051EB010418BFD4F5001484BF002001F089
:103EF000004170BD0808A0F500114FEA310170477C
:103F000053EA010C17D41CF5801F58BFBCF5801F65
:103F100000F106808B4218BF704708BF824270478D
:103F200007D713F5801F58BF11F5801F19D48B4296
:103F300070479B4270471CF5801F08D5BCF5801F59
:103F4000F7D5994218BF704708BF904270474FF4A9
:103F5000001C1CEB430F38BF1CEB410F01D29942F0
:103F600070470FB40CBC03BCFFF7C1BE5FEA410C45
:103F70005FEA5C5CACF580635B1C39D4D3F134023E
:103F800040F34580B2F1200314DA4FF0010C0CFA33
:103F900002FCACF10103034020EA0300B3EB5C0236
:103FA00008BF10EA0C0F98BF704710EB0C0041F1EE
:103FB000000170470AD0C3F1200201FA02FC012877
:103FC0004CF1000021FA03F101FA03F14FF0010C6A
:103FD0000CFA03FCACF1010321EA0301B0F1004F3C
:103FE00008BF11EA0C0F4FF0000088BF6144704712
:103FF000B3F1FF3F28BF50EAC12C01F000414FF060
:10400000000084BF41F07C5141F470017047B3F56A
:10401000806FB8BF704770B5FFF71EFF40DBB6BEBC
:1040200010B591EA030F48BF83F000433FF5E2ABC0
:10403000841A71EB030C07D28CF0004C121943EB7D
:104040000C03001B61EB0C014FEA1154A4EB135C51
:10405000DFF8A4E11EEA430F18BF9EEA445F00F0B8
:10406000B48021EA045123EA6E035242C3EB6E038B
:1040700038BF5B1EDCF1200E25D322FA0CFE10EBBC
:104080000E0043FA0CFE41EB0E01CCF1200E03FAB8
:104090000EFE10EB0E00CCF1200E51F1000129D4E0
:1040A00001EB045112FA0EF2BDE8104058BF704700
:1040B000401C1CBFB2F1004F704700280CBF491CC8
:1040C00020F00100704712EB020E43EB030218BF11
:1040D0004FF0010E4EEA4202ACF1200CDCF11E0E54
:1040E00056D943FA0CFE10EB0E00CCF11E0E51F126
:1040F000FF31D5D50EF1010E12FA0EFE404141EB13
:10410000010101EB445C5FEA5C5C10D901EB0451F6
:1041100010EBDE7038BFBEF1004FBDE8104018BF95
:10412000704700280CBF491C20F00100704734D2B2
:104130004FEAD42C24F4006411F500111BD0B1FA1D
:1041400081F20B3AA41AA41ED2F12003914030FA56
:1041500003F31943904001EBCC7101EB0451002CA7
:10416000BDE81040A8BF704701F1C04101F0004117
:104170004FF000007047B0FA80F310FA03F102D15B
:10418000BDE810407047E41A173C4805C90AE2E749
:1041900001EB0451BDE81040704749104FEA300070
:1041A00001EB0451BDE8104002E04FF00001704700
:1041B0004A0008BF0042F8D0B2F5001F28BF704780
:1041C00001F000414FF0000070479EEA445F07D0C5
:1041D00011EA5E0FBDE8104004BF002100207047C7
:1041E000BDE8104070B5FFF737FE00BF40DFF63E78
:1041F000104683F0004170470000E0FF43004FEAA3
:10420000D30C4FEA3C0C43401FBF40070CF16051F8
:1042100013F0FE4F70471CF0006F03D10CF000410B
:10422000002070470CF0004343EA507040EACC0095
:1042300010B500F00EF800BF000000924FEA000138
:10424000FFF758BE4FF00041A1F500214FF00000EC
:1042500070470EF1020E2EF0030E5EF8044B24425E
:1042600004D44FEA4102B2F17F4F11D84FEA400324
:10427000B3F17F4F0CD80ED14FEAD07C0CEB4C0C35
:104280000CF1020CB2F17F4F08BF4CEBD17C04E083
:104290004FF0080C01E04FEAD17C0CEB4C0324FA00
:1042A00003F404F00704B4F1040C06D20EEB840C02
:1042B000BDE810404CF0010C6047DFE80CF0070847
:1042C00002024FF00040A0F5800010BD08464200F9
:1042D00018BFD2F1807288BF00F0004010BDF1EE2F
:1042E000100A4FF6FF71C0F2C03120EA010040F021
:1042F0004070E1EE100A7047FF2141EAD050C0053E
:1043000070470000000000000000010203040607DF
:1043100008090000000001020304000005800F806E
:104320000A001B801E0014001180338036003C0000
:10433000398028002D8027802200638066006C0071
:10434000698078007D8077807200500055805F80A2
:104350005A004B804E0044004180C380C600CC0010
:10436000C980D800DD80D780D200F000F580FF80C2
:10437000FA00EB80EE00E400E180A000A580AF80B1
:10438000AA00BB80BE00B400B180938096009C0060
:10439000998088008D8087808200838186018C01CE
:1043A000898198019D8197819201B001B581BF817A
:1043B000BA01AB81AE01A401A181E001E581EF81E9
:1043C000EA01FB81FE01F401F181D381D601DC0118
:1043D000D981C801CD81C781C201400145814F818A
:1043E0004A015B815E0154015181738176017C0138
:1043F000798168016D8167816201238126012C0129
:10440000298138013D8137813201100115811F81D9
:104410001A010B810E0104010181038306030C03C1
:10442000098318031D8317831203300335833F83E9
:104430003A032B832E0324032183600365836F8358
:104440006A037B837E0374037183538356035C0387
:10445000598348034D8347834203C003C583CF83F9
:10446000CA03DB83DE03D403D183F383F603FC03A7
:10447000F983E803ED83E783E203A383A603AC0398
:10448000A983B803BD83B783B203900395839F8349
:104490009A038B838E0384038183800285828F82BB
:1044A0008A029B829E0294029182B382B602BC026F
:1044B000B982A802AD82A782A202E382E602EC02E0
:1044C000E982F802FD82F782F202D002D582DF8211
:1044D000DA02CB82CE02C402C182438246024C027F
:1044E000498258025D8257825202700275827F8231
:1044F0007A026B826E0264026182200225822F8220
:104500002A023B823E0234023182138216021C02CE
:10451000198208020D82078202020000404500084D
:104520000000002010000000EC01000850450008C9
:1045300010000020B00900000C020008000000007C
:1045400001000000100000000024F4000000000042
:040000050800018965
:00000001FF
