:020000040800F2
:100000004009002029020008DD3A000821350008D7
:10001000D93A0008AD050008DD46000800000000E0
:10002000000000000000000000000000513B00083C
:10003000C9070008000000004D3B0008A93B00086C
:10004000430200084302000843020008430200087C
:10005000430200084302000843020008430200086C
:10006000430200084302000843020008430200085C
:10007000430200084302000843020008430200084C
:10008000430200084302000843020008430200083C
:10009000430200084302000843020008430200082C
:1000A000430200084302000843020008430200081C
:1000B000430200084302000843020008430200080C
:1000C00043020008430200084302000843020008FC
:1000D00043020008430200084302000843020008EC
:1000E00043020008430200084302000843020008DC
:1000F00043020008430200084302000843020008CC
:1001000043020008430200084302000843020008BB
:1001100043020008430200084302000843020008AB
:1001200043020008B105000843020008430200082A
:10013000430200084302000843020008430200088B
:10014000430200084302000843020008430200087B
:1001500043020008C105000843020008CD4600081C
:10016000430200084302000843020008430200085B
:100170004302000843020008430200080000000098
:10018000430200084302000800F002F800F03CF8C7
:100190000AA090E8000C82448344AAF10107DA45E2
:1001A00001D100F031F8AFF2090EBAE80F0013F0F8
:1001B000010F18BFFB1A43F001031847005300005A
:1001C00020530000103A24BF78C878C1FAD85207EB
:1001D00024BF30C830C144BF04680C6070470000C1
:1001E0000023002400250026103A28BF78C1FBD840
:1001F000520728BF30C148BF0B6070471FB505F0DC
:100200003AF91FBD10B510BD00F0D0F81146FFF748
:10021000F5FF04F09FFB00F0EEF803B4FFF7F2FFE8
:1002200003BC00F0F5F80000094880470948004782
:10023000FEE7FEE7FEE7FEE7FEE7FEE7FEE7FEE796
:10024000FEE7FEE704480549054A064B70470000F3
:10025000713C00088901000840030020400900208B
:10026000400500204005002053EA020C00F06980A0
:100270002DE9F04B4FF00006002B1FBFB3FA83F5BA
:1002800003FA05F424FA05F65E4012BF1643B2FAEB
:1002900082F502FA05F4C5F120051EBF22FA05FC1D
:1002A00044EA0C04203556EA044C4FEA144418BFC3
:1002B000641C4FF000084FF00009904271EB030CF2
:1002C00039D3002919BFB1FA81F701FA07F6B0FA5C
:1002D00080F700FA07F6C7F120071EBF20FA07FCD7
:1002E00046EA0C062037B6FBF4FCA7EB0507103FE7
:1002F00007F01F0BCBF120062CFA06F60CFA0BFBCD
:1003000044BFB3460026202FA4BF5E464FF0000B2B
:100310005BEA060C08BF4FF0010B19EB0B0948EB29
:100320000608ABFB027C06FB02CC0BFB03CCC01B1C
:1003300071EB0C01C1E70B46024641464846BDE859
:10034000F08B13B5084318BF4FF0FF300146AFF3F1
:100350000080BDE81C4070474FF0000200B5134616
:1003600094469646203922BFA0E80C50A0E80C50D5
:10037000B1F12001BFF4F7AF090728BFA0E80C5086
:1003800048BF0CC05DF804EB890028BF40F8042B7F
:1003900008BF704748BF20F8022B11F0804F18BFEC
:1003A00000F8012B7047704770477047754600F0A2
:1003B0002BF8AE4605006946534620F007008546F7
:1003C00018B020B5FFF73EFFBDE820404FF0000613
:1003D0004FF000074FF000084FF0000BAC46ACE8C0
:1003E000C009ACE8C009ACE8C009ACE8C00921F01C
:1003F00007018D46704710B50446AFF300802046D4
:10040000BDE81040FFF709BF00487047100000200A
:1004100001491820ABBEFEE726000200704700002D
:1004200082B0019042F20030C4F2010000900099C5
:10043000486820F440304860019842680099486854
:100440001043486001980168486820F48070486053
:10045000019801680269486840EA022048600198F2
:100460000168486820F0407048600198016882681F
:1004700048681043486001980168886820F400606B
:10048000886001980168C268886810438860019894
:10049000806A0121C0F60071884219D0FFE70198F7
:1004A0000168886820F07060886001980168826A3D
:1004B00088681043886001980168886820F040507F
:1004C000886001980168C26A8868104388600CE0FF
:1004D00001980168886820F0706088600198016860
:1004E000886820F040508860FFE7019801688868BC
:1004F00020F0020088600198027E0168886840EA66
:1005000042008860019890F82000C8B1FFE7019888
:100510000168486840F400604860019801684868D4
:1005200020F46040486001980168426A4EF2000081
:10053000CFF6FF7000EB423248681043486006E097
:1005400001980168486820F400604860FFE701985E
:100550000168C86A20F47000C86201980168C26925
:100560000020CFF6F07000EB0252C86A1043C86258
:1005700001980168886820F400708860019890F8FC
:1005800030200168886840EA42208860019801684C
:10059000886820F4806088600198016842698868F2
:1005A00040EA8220886002B070470000FFE7FEE763
:1005B00080B540F22C10C2F2000000F027FD80BD93
:1005C00080B540F28C10C2F2000000F01FFD80BD2B
:1005D00082B001900198007810384AF6AB21CAF633
:1005E000AA21A0FB011000090090009945F2B24039
:1005F000C0F60000405C0199C8650098042807D344
:10060000FFE701990868042262F30900886506E0A3
:100610000199086840F2FF3290438865FFE701982E
:10062000806D02B07047000086B0059000208DF804
:1006300013000598806A03900598806910BBFFE756
:100640000398029003281BD80299DFE801F0020DFD
:100650000218059890F82F00C00720B1FFE701208D
:100660008DF81300FFE70CE00598C06AB0F1C07F79
:1006700004D1FFE701208DF81300FFE701E000E05F
:10068000FFE745E005988069B0F5005F25D1FFE7F9
:100690000398019003281ED80199DFE801F00206B3
:1006A000021101208DF8130016E0059890F82F0034
:1006B000C00720B1FFE701208DF81300FFE70BE032
:1006C0000598C06AB0F1C07F04D1FFE701208DF822
:1006D0001300FFE700E0FFE719E00398009003280C
:1006E00004D3FFE70098032804D00EE001208DF822
:1006F00013000BE0059890F82F00C00720B1FFE72A
:1007000001208DF81300FFE700E0FFE7FFE7FFE7B8
:100710009DF8130006B0704782B001900020009051
:10072000FFE70098019991F83F100731884210DAED
:10073000FFE7009940F27800C2F20000405C0199A6
:10074000009A114481F83A00FFE7009801300090C8
:10075000E7E702B07047000080B585B0844607988F
:10076000CDF810C08DF80F1002920193ADF8020081
:100770009DF80F0004990872029804990863019883
:1007800004994863BDF802000499088705B080BD4C
:1007900082B001908DF803109DF80300019900F0DC
:1007A000010081F8620002B07047000081B08DF84E
:1007B00003009DF8030000F0010040F2A401C2F222
:1007C0000001087001B070477047000072B6FFE783
:1007D000FEE7000085B00390029100200190FFE742
:1007E000039890F83C00012804D1FFE702208DF81F
:1007F0001300F7E00399012081F83C00FFE7FFE7D1
:10080000029800680A281CD3FFE70298008800EBD2
:100810004000A0F11E01072000FA01F203980168D0
:10082000C8689043C86002998868098801EB410153
:100830001E3900FA01F203980168C8681043C860C5
:1008400018E00298008800EB4001072000FA01F24E
:1008500003980168086990430861029988680988CB
:1008600001EB410100FA01F20398016808691043A5
:100870000861FFE70298406806281BD8FFE7029846
:10088000406800EB8000411F1F2000FA01F203982E
:100890000168486B9043486302990888496801EBF6
:1008A0008101053900FA01F203980168486B104391
:1008B00048633DE0029840680C281CD8FFE7029886
:1008C000406800EB8000A0F123011F2000FA01F234
:1008D00003980168086B9043086302990888496887
:1008E00001EB8101233900FA01F203980168086BDA
:1008F000104308631BE00298406800EB8000A0F101
:1009000041011F2000FA01F203980168C86A904370
:10091000C86202990888496801EB8101413900FAEF
:1009200001F203980168C86A1043C862FFE7FFE755
:1009300042F20030C4F2010000900398006842F2D5
:100940000001C4F2010188420BD1FFE70298006860
:10095000122806D1FFE70099486840F480004860FB
:10096000FFE70398006842F20001C4F201018842E7
:100970002ED1FFE702980068102805D0FFE7029803
:100980000068112824D1FFE70099486840F400006E
:10099000486002980068102819D1FFE740F2000073
:1009A000C2F2000000684DF68361C4F21B31A0FB67
:1009B0000110800C00EB800040000190FFE70198DF
:1009C00020B1FFE7019801380190F8E7FFE7FFE762
:1009D000FFE70399002081F83C00FFE700208DF835
:1009E0001300FFE79DF8130005B0704781B0009039
:1009F00000980068C06C01B07047000080B584B0FA
:100A0000029000208DF80700029820B9FFE701202E
:100A10008DF80F0042E00298806A0121C0F6007153
:100A2000884201D0FFE7FFE70298006C50B9FFE76A
:100A3000029800F037F8029900204864029981F882
:100A40003C00FFE70298006CC006002817D4FFE7BF
:100A50000298006C40F0020020F48850029908646B
:100A60000298FFF7DDFC0299002048640298006CB0
:100A700040F0010020F002000299086403E0012028
:100A80008DF80700FFE7FFE70299002081F83C009E
:100A9000FFE79DF807008DF80F00FFE79DF80F00B6
:100AA00004B080BD80B588B0079000200690059006
:100AB0000490039002900798006842F20001C4F28B
:100AC000010188422FD1FFE7FFE70020019043F6A4
:100AD0004400C4F20200016841F4807101600068C2
:100AE00000F4807001900198FFE7FFE7002000907C
:100AF00043F63000C4F20200016841F001010160D8
:100B0000006800F0010000900098FFE702200290CA
:100B100003200390002004900020C4F2020002A9E8
:100B200000F0F0FDFFE708B080BD000080B584B0A4
:100B300002900191002000900298006880684005B2
:100B4000002816D5FFE7029800688068C0050028D5
:100B50000FD5FFE70299086C40F020000864FFE71A
:100B60000299002081F83C00FFE701208DF80F007A
:100B70006DE000F0BBFF0090FFE70298006800689E
:100B800000F00200022829D0FFE70198013020B3CD
:100B9000FFE7019840B1FFE700F0A8FF0099401A75
:100BA0000199884218D9FFE702980068006800F0B0
:100BB000020002280FD0FFE70299086C40F0040001
:100BC0000864FFE70299002081F83C00FFE703205A
:100BD0008DF80F003BE0FFE7FFE7CEE702980168E2
:100BE0006FF0120008600299086C40F4007008640D
:100BF00002980068806810F0405F24D1FFE70298F7
:100C0000007E00BBFFE702980068C06A10F4700F16
:100C100007D0FFE70298006880684005002812D4DA
:100C2000FFE70299086C20F4807008640298006C59
:100C3000C004002806D4FFE70299086C40F00100C8
:100C40000864FFE7FFE700208DF80F00FFE79DF83D
:100C50000F0004B080BD000084B00290002001901D
:100C6000FFE7029890F83C00012804D1FFE702203A
:100C70008DF80F00D4E00299012081F83C00FFE7D5
:100C8000FFE7029800688068C007F0B9FFE70298A4
:100C90000168886840F00100886040F20000C2F2FC
:100CA000000000684DF68361C4F21B31A0FB011007
:100CB000800C00EB40000190FFE7019820B1FFE7B6
:100CC000019801380190F8E7FFE702980068806812
:100CD000C007002800F09580FFE70298006C40F400
:100CE000807040F2016188430299086402980068AC
:100CF00040684005002809D5FFE70298006C40F4E1
:100D0000805020F4005002990864FFE70298006CBC
:100D1000C004002806D5FFE70299486C20F00600C1
:100D2000486403E0029900204864FFE7FFE7029966
:100D3000002081F83C00FFE742F20030C4F20100DD
:100D40000090029801686FF02200086000984068E7
:100D5000C006E8BBFFE70298006842F20001C4F257
:100D60000101884224D0FFE70298006842F2001196
:100D7000C4F20101884208D1FFE742F20430C4F214
:100D800001000068C00698B1FFE70298006842F2CF
:100D90000021C4F20101884219D1FFE742F2043078
:100DA000C4F20100006800F01F000F280FD8FFE711
:100DB00002980068806810F0405F07D1FFE7029852
:100DC0000168886840F080408860FFE7FFE717E02F
:100DD0000298006842F20001C4F2010188420ED17B
:100DE000FFE702980068806810F0405F07D1FFE7D6
:100DF00002980168886840F080408860FFE7FFE75C
:100E00000AE00299086C40F0100008640299486CEE
:100E100040F001004864FFE700208DF80F00FFE775
:100E20009DF80F0004B0704780B584B0029002981E
:100E3000806D019000F05AFE0090029890F8350005
:100E400002280DD0FFE7029980204865FFE702994C
:100E5000002081F83400FFE701208DF80F0055E0F5
:100E600002980168086820F016000860029801687E
:100E7000486920F0800048610298006C20B9FFE7C3
:100E80000298806C38B1FFE702980168086820F08A
:100E900008000860FFE702980168086820F0010078
:100EA0000860FFE7029800680068C007C8B1FFE764
:100EB00000F01CFE0099401A062811D3FFE70299A2
:100EC000202048650299032081F83500FFE7029948
:100ED000002081F83400FFE703208DF80F0015E0B3
:100EE000E0E70298C16D3F2088400199886002992F
:100EF000012081F83500FFE70299002081F83400D5
:100F0000FFE7FFE700208DF80F00FFE79DF80F00D7
:100F100004B080BD82B00090009890F8350002289F
:100F200007D0FFE700998020486501208DF8070071
:100F30000EE00099052081F83500009801680868E6
:100F400020F001000860FFE700208DF80700FFE7B0
:100F50009DF8070002B0704780B584B002900298F7
:100F600020B9FFE701208DF80F004BE0029890F8C0
:100F70003500022804D1FFE702208DF80F0041E080
:100F800002980168086820F0010008600298016872
:100F90000020009008600299096848600299096879
:100FA000886002990968C860029909680861029816
:100FB0000168212048610298FFF70AFB014600986A
:100FC00001910299C86302990864029948640299E0
:100FD00088640299C864029908650299CA6D3F2124
:100FE0009140019A916002994865029981F8350013
:100FF000FFE70299002081F83400FFE700208DF818
:101000000F00FFE79DF80F0004B080BD80B586B0EB
:1010100005900020039040F20000C2F2000000683A
:1010200048F2B511C1F64E31A0FB0110800A0290C2
:101030000598806D019001980068049004980599C6
:10104000C96DC840000700281AD5FFE70598006859
:1010500000684007002812D5FFE705980168086876
:1010600020F0040008600598C16D082088400199AF
:1010700088600599486D40F001004865FFE7FFE78B
:1010800004980599C96DC840C007A0B1FFE705984D
:1010900000684069000600280CD5FFE70598C16D7F
:1010A00001208840019988600599486D40F0020050
:1010B0004865FFE7FFE704980599C96DC8404007F8
:1010C000002814D5FFE7059800680068800700280D
:1010D0000CD5FFE70598C16D042088400199886010
:1010E0000599486D40F004004865FFE7FFE7049864
:1010F0000599C96DC840C006002847D5FFE7059887
:1011000000680068000700283FD5FFE70598C16D1B
:1011100010208840019988600598006800684003A5
:1011200000281AD5FFE7059800680068000300282A
:1011300009D4FFE70598006C20B1FFE70598016C22
:101140008847FFE708E00598806C20B1FFE7059825
:10115000816C8847FFE7FFE716E0059800680068A4
:10116000C005002807D4FFE705980168086820F04B
:1011700008000860FFE70598006C20B1FFE70598BC
:10118000016C8847FFE7FFE7FFE7FFE70498059951
:10119000C96DC8408006002840F18D80FFE70598A2
:1011A00000680068C006002840F18480FFE70598C9
:1011B000C16D2020884001998860059890F835001D
:1011C000052834D1FFE705980168086820F016006B
:1011D000086005980168486920F08000486105981A
:1011E000006C20B9FFE70598806C38B1FFE70598DF
:1011F0000168086820F008000860FFE70598C16DE5
:101200003F208840019988600599012081F83500C8
:10121000FFE70599002081F83400FFE70598006D8D
:1012200020B1FFE70598016D8847FFE77BE005984F
:1012300000680068400300281AD5FFE70598006899
:1012400000680003002809D4FFE70598406C20B12E
:10125000FFE70598416C8847FFE708E00598C06BF9
:1012600020B1FFE70598C16B8847FFE7FFE720E063
:10127000059800680068C005002811D4FFE70598AC
:101280000168086820F0100008600599012081F8C5
:101290003500FFE70599002081F83400FFE7FFE7FC
:1012A0000598C06B20B1FFE70598C16B8847FFE741
:1012B000FFE7FFE7FFE70598406DA0B3FFE705985C
:1012C000406DC00730B3FFE70599052081F8350070
:1012D00005980168086820F001000860FFE703989E
:1012E000013003900299884201D9FFE707E0FFE748
:1012F000059800680068C0070028F0D1FFE705994D
:10130000012081F83500FFE70599002081F83400BD
:10131000FFE7FFE70598C06C20B1FFE70598C16CB7
:101320008847FFE7FFE706B080BD000080B586B0C4
:1013300004900020039000F0D9FB0290049820B99B
:10134000FFE701208DF81700A3E00498406A08B178
:10135000FFE7FFE70499022081F83500FFE70499D1
:10136000002081F83400FFE704980168086820F045
:1013700001000860FFE7049800680068C00790B1AA
:10138000FFE700F0B3FB0299401A06280AD3FFE7F3
:101390000499202048650499032081F835008DF8D0
:1013A000170076E0E7E70498006800680390039868
:1013B00048F23F01CFF210010840039004990091D8
:1013C0004868D1F808C0CB680A6940EA0C001843A5
:1013D00010434A6910438A691043CA691043096A75
:1013E00001430398084303900498406A042808D1F5
:1013F000FFE70499C86A096B014303980843039007
:10140000FFE7039804990968086004980068406938
:101410000390039820F0070003900498416A039812
:10142000084303900498406A04281AD1FFE70498FF
:10143000816A0398084303900498C06A80B1FFE76B
:101440000498FFF7F1F850B1FFE704994020486590
:101450000499012081F835008DF8170019E0FFE7A5
:10146000FFE703980499096848610498FFF7B0F80A
:1014700001900498C16D3F208840019988600499CB
:1014800000204865049A012182F835108DF8170074
:10149000FFE79DF8170006B080BD000080B584B05E
:1014A000039000F023FB0290039801900198013013
:1014B00048B1FFE740F20400C2F200000178019851
:1014C00008440190FFE7FFE700F010FB0299401A83
:1014D0000199884201D2FFE7F6E704B080BD000021
:1014E0008EB00D900C9100200A90099008900B90FE
:1014F000FFE70B980F2800F20381FFE70B9901200B
:1015000088400A900C980A990840099009980A990D
:10151000884240F0F080FFE70B9820F0030043F68C
:101520000801C4F20101405808900B9800F0030034
:1015300081000F2000FA01F10898084008900898EF
:1015400007900D980021C4F20201884203D1FFE701
:10155000002006905EE00D9840F20041C4F20201C6
:10156000884203D1FFE70120059050E00D9840F636
:101570000001C4F20201884203D1FFE70220049077
:1015800042E00D9840F60041C4F20201884203D1C6
:10159000FFE70320039034E00D9841F20001C4F20C
:1015A0000201884203D1FFE70420029026E00D9853
:1015B00041F20041C4F20201884203D1FFE7052055
:1015C000019018E00D9841F60001C4F20201884232
:1015D00003D1FFE7062000900AE00D9941F6004292
:1015E000C4F202020820914208BF07200090FFE7E2
:1015F00000980190FFE701980290FFE7029803909E
:10160000FFE703980490FFE704980590FFE705982B
:101610000690FFE707980699C9B20B9A02F00302F9
:1016200092009140884233D1FFE7099A43F6004186
:10163000C4F20101086890430860099A43F6044126
:10164000C4F20101086890430860099A43F60C410E
:10165000C4F20101086890430860099A43F6084102
:10166000C4F201010868904308600B9800F0030081
:1016700081000F2088400890089B0B9820F0030100
:1016800043F60802C4F20102885898438850FFE7E5
:101690000B984100032000FA01F30D9A1168994359
:1016A0001160DDF82CC00CF007018A000F2101FA4F
:1016B00002F30D996FF0030202EA5C020A44116A18
:1016C000994311620B99490000FA01F30D9AD16810
:1016D0009943D1600B9A012101FA02F30D9A5168E6
:1016E000994351600B99490000FA01F20D998868FD
:1016F00090438860FFE7FFE70B9801300B90F8E616
:101700000EB070478EB00D900C9100200A90099099
:1017100008900B90FFE70B980F2800F2CC81FFE7B1
:101720000B99012088400A900C9800680A9908409B
:10173000099009980A99884240F0B881FFE70C980F
:10174000406800F00300012807D0FFE70C984068CC
:1017500000F0030002282FD1FFE70D988068089061
:101760000B984100032000FA01F108988843089083
:101770000C98C0680B99490000FA01F108980843D9
:10178000089008980D9988600D98406808900B990A
:10179000012000FA01F10898884308900C984068ED
:1017A000C0F300100B9900FA01F108980843089063
:1017B00008980D994860FFE70C98406800F0030016
:1017C000032818D0FFE70D98C06808900B984100D7
:1017D000032000FA01F10898884308900C9880686B
:1017E0000B99490000FA01F10898084308900898FD
:1017F0000D99C860FFE70C98406800F003000228CC
:1018000026D1FFE70D980B996FF0030202EA510110
:101810000844006A08900B9800F0070081000F2030
:1018200000FA01F10898884308900C9800690B9918
:1018300001F00701890000FA01F1089808430890B7
:1018400008980D990B9B02EA530211440862FFE7C6
:101850000D98006808900B984100032000FA01F1F0
:101860000898884308900C98406800F003000B9992
:10187000490000FA01F108980843089008980D996A
:1018800008600C9880798007002800F00E81FFE73F
:10189000FFE70020079043F64400C4F2020001680D
:1018A00041F480410160006800F48040079007988F
:1018B000FFE70B9820F0030043F60801C4F2010192
:1018C000405808900B9800F0030081000F2000FAA8
:1018D00001F10898884308900D980021C4F2020194
:1018E000884203D1FFE7002006905EE00D9840F2A9
:1018F0000041C4F20201884203D1FFE701200590B4
:1019000050E00D9840F60001C4F20201884203D174
:10191000FFE70220049042E00D9840F60041C4F237
:101920000201884203D1FFE70320039034E00D98C1
:1019300041F20001C4F20201884203D1FFE7042012
:10194000029026E00D9841F20041C4F20201884263
:1019500003D1FFE70520019018E00D9841F6000142
:10196000C4F20201884203D1FFE7062000900AE09A
:101970000D9941F60042C4F202020820914208BFCC
:1019800007200090FFE700980190FFE70198029080
:10199000FFE702980390FFE703980490FFE704989D
:1019A0000590FFE705980690FFE70698C0B20B99EF
:1019B00001F00301890000FA01F10898084308903A
:1019C00008980B9921F0030143F60802C4F20102C2
:1019D000885043F60840C4F2010000680890099955
:1019E0000898884308900C988079C006002805D58F
:1019F000FFE70999089808430890FFE7089843F61D
:101A00000841C4F20101086043F60C40C4F2010031
:101A10000068089009990898884308900C98807984
:101A20008006002805D5FFE7099908980843089023
:101A3000FFE7089843F60C41C4F20101086043F641
:101A40000440C4F20100006808900999089888438E
:101A500008900C9880798007002805D5FFE7099940
:101A6000089808430890FFE7089843F60441C4F239
:101A70000101086043F60040C4F2010000680890CC
:101A800009990898884308900C988079C00728B174
:101A9000FFE70999089808430890FFE7089843F67C
:101AA0000041C4F201010860FFE7FFE7FFE70B9880
:101AB00001300B902FE60EB07047000082B001900D
:101AC000ADF802108DF801209DF8010028B1FFE764
:101AD000BDF802000199886105E0BDF8020000042C
:101AE00001998861FFE702B07047000040F23C3086
:101AF000C2F200000068704740F20400C2F2000029
:101B0000027840F23C31C2F20001086810440860DB
:101B10007047000080B582B043F60041C4F2020174
:101B2000086840F400700860086840F4806008604D
:101B3000086840F480700860032000F099F80020E5
:101B4000019000F005F800F03BF8019802B080BD6C
:101B500080B582B0009040F20000C2F20000006840
:101B600040F20401C2F200010A784FF47A71B1FB2D
:101B7000F2F1B0FBF1F000F0B3FD20B1FFE701207E
:101B80008DF8070018E000980F280DD8FFE700999E
:101B90004FF0FF30002200F051F8009840F20801A9
:101BA000C2F20001086003E001208DF8070003E0A5
:101BB00000208DF80700FFE79DF8070002B080BD08
:101BC00080B582B0FFE70020019043F64400C4F2E4
:101BD0000200016841F480410160006800F4804027
:101BE00001900198FFE7FFE70020009043F64000D6
:101BF000C4F20200016841F080510160006800F009
:101C0000805000900098FFE7072000F031F802B004
:101C100080BD000080B582B08DF807009DF90700F7
:101C200002F05EFD02B080BD80B582B08DF8070085
:101C30009DF9070002F070FD02B080BD80B586B04E
:101C40008DF81700049103920020029002F07CFDB1
:101C500002909DF91700019002980499039A01F0EF
:101C60003FFF0146019802F077FD06B080BD0000FD
:101C700080B582B00190019802F090FD02B080BD65
:101C800080B584B002900191029820B9FFE701204D
:101C90008DF80F0021E1019843F60041C4F20201E2
:101CA000096801F00701884212D9FFE7019943F65C
:101CB0000040C4F202000170006800F007000199C2
:101CC000884204D0FFE701208DF80F0005E1FFE70F
:101CD00002980078800700282AD5FFE7029800784C
:101CE0004007002809D5FFE743F60801C4F20201C6
:101CF000086840F4E0500860FFE7029800780007A9
:101D0000002809D5FFE743F60801C4F2020108687C
:101D100040F460400860FFE743F60801C4F20201A6
:101D2000086820F0F000029A926810430860FFE70C
:101D300002980078C00700286ED0FFE7029840683C
:101D4000012811D1FFE743F60000C4F20200006849
:101D500000F400310020B0EB514F04D1FFE7012027
:101D60008DF80F00B9E02CE002984068022805D0F9
:101D7000FFE702984068032811D1FFE743F600000F
:101D8000C4F20200006800F000710020B0EB516F57
:101D900004D1FFE701208DF80F009EE010E043F62C
:101DA0000000C4F20200006800F002010020B0EB65
:101DB000510F04D1FFE701208DF80F008DE0FFE700
:101DC000FFE743F60801C4F20201086820F00300AF
:101DD000029A526810430860FFF788FE0090FFE700
:101DE00043F60800C4F20200006800F00C000299FB
:101DF0004968B0EB810F0ED0FFE7FFF777FE00993F
:101E0000401A41F28931884204D3FFE703208DF85C
:101E10000F0062E0E4E7FFE7019843F60041C4F2F7
:101E20000201096801F00701884212D2FFE7019917
:101E300043F60040C4F202000170006800F00700A1
:101E40000199884204D0FFE701208DF80F0044E09B
:101E5000FFE702980078400700280CD5FFE743F61B
:101E60000801C4F20201086820F4E050029AD26826
:101E700010430860FFE702980078000700280DD59E
:101E8000FFE743F60801C4F20201086820F460404D
:101E9000029A126940EAC2000860FFE700F04CF8BD
:101EA00043F60801C4F202010968C9B20A0945F201
:101EB0009A41C0F60001895CC84040F20001C2F2BC
:101EC0000001086040F20800C2F200000068FFF75D
:101ED0003FFE00208DF80F00FFE79DF80F0004B0D3
:101EE00080BD000040F20000C2F2000000687047B0
:101EF00080B5FFF7F7FF43F60801C4F20201096855
:101F0000C1F3822245F2AA41C0F60001895CC840B3
:101F100080BD000080B5FFF7E5FF43F60801C4F27D
:101F20000201096889B24A0B45F2AA41C0F60001D4
:101F3000895CC84080BD000080B586B00020059057
:101F400004900390029043F60800C4F20200006877
:101F500000F00C000146019140B1FFE70198042810
:101F60000AD0FFE7019808280CD04FE042F2004069
:101F7000C0F2F40002904FE041F20020C0F27A007B
:101F8000029049E043F60400C4F20200016801F047
:101F90003F01059100684002002813D5FFE743F692
:101FA0000400C4F202000068C0F3881041F200216E
:101FB000C0F27A01A0FB0101059A0023FEF754F953
:101FC000049012E043F60400C4F202000068C0F37B
:101FD000881042F20041C0F2F401A0FB0101059A11
:101FE0000023FEF741F90490FFE743F60400C4F232
:101FF0000200006800F44031022000EBD130039071
:1020000004980399B0FBF1F0029005E042F2004021
:10201000C0F2F4000290FFE7029806B080BD000015
:1020200080B586B00490049820B9FFE701208DF8B0
:10203000170050E304980078C007002800F0A5803E
:10204000FFE743F60800C4F20200006800F00C004D
:10205000042813D0FFE743F60800C4F2020000682A
:1020600000F00C0008281ED1FFE743F60400C4F27C
:10207000020000684002002815D5FFE743F6000083
:10208000C4F20200006800F400310020B0EB514FB0
:1020900008D0FFE70498406820B9FFE701208DF8D9
:1020A000170018E370E0FFE704984068B0F5803F40
:1020B00009D1FFE743F60001C4F20201086840F4C9
:1020C0008030086020E004984068B0F5A02F0DD162
:1020D000FFE743F60001C4F20201086840F48020E3
:1020E0000860086840F4803008600CE043F60001A6
:1020F000C4F20201086820F480300860086820F407
:1021000080200860FFE7FFE7FFE704984068E8B138
:10211000FFE7FFF7EBFC0390FFE743F60000C4F294
:102120000200006800F400310020B0EB514F0CD1E8
:10213000FFE7FFF7DBFC0399401A652804D3FFE7AC
:1021400003208DF81700C6E2E7E71CE0FFF7CEFC9E
:102150000390FFE743F60000C4F20200006800F4B9
:1021600000310020B0EB514F0CD0FFE7FFF7BEFC71
:102170000399401A652804D3FFE703208DF8170060
:10218000A9E2E7E7FFE7FFE7FFE7049800788007A9
:10219000002840F19680FFE743F60800C4F20200F1
:1021A000006810F00C0F13D0FFE743F60800C4F2EC
:1021B0000200006800F00C0008282CD1FFE743F66D
:1021C0000400C4F2020000684002002823D4FFE7A4
:1021D00043F60000C4F20200006800F00201002093
:1021E000B0EB510F09D0FFE70498C068012804D074
:1021F000FFE701208DF817006DE243F60001C4F2FD
:102200000201086820F0F800049A126940EAC2004E
:102210000860FFE754E00498C06870B3FFE700214E
:10222000C4F2472101200860FFF760FC0390FFE73C
:1022300043F60000C4F20200006800F00201002032
:10224000B0EB510F0CD1FFE7FFF750FC0399401A98
:10225000032804D3FFE703208DF817003BE2E7E7EC
:1022600043F60001C4F20201086820F0F800049A65
:10227000126940EAC200086021E00021C4F247214F
:1022800000200860FFF732FC0390FFE743F60000F0
:10229000C4F20200006800F002010020B0EB510F10
:1022A0000CD0FFE7FFF722FC0399401A032804D360
:1022B000FFE703208DF817000DE2E7E7FFE7FFE7F0
:1022C000FFE704980078000700284BD5FFE7049843
:1022D000406918B3FFE740F68061C4F2472101204E
:1022E0000860FFF703FC0390FFE743F67400C4F2B5
:1022F0000200006800F002010020B0EB510F0CD189
:10230000FFE7FFF7F3FB0399401A032804D3FFE725
:1023100003208DF81700DEE1E7E722E040F6806158
:10232000C4F2472100200860FFF7E0FB0390FFE7BD
:1023300043F67400C4F20200006800F002010020BD
:10234000B0EB510F0CD0FFE7FFF7D0FB0399401A19
:10235000032804D3FFE703208DF81700BBE1E7E76C
:10236000FFE7FFE7049800784007002840F1CE809F
:10237000FFE700208DF8070043F64000C4F202009A
:102380000068C000002815D4FFE7FFE70020009098
:1023900043F64000C4F20200016841F08051016040
:1023A000006800F0805000900098FFE701208DF851
:1023B0000700FFE747F20000C4F200000068C00514
:1023C000002822D4FFE747F20001C4F200010868A8
:1023D00040F480700860FFF789FB0390FFE747F245
:1023E0000000C4F200000068C00500280CD4FFE71C
:1023F000FFF77CFB0399401A032804D3FFE703206F
:102400008DF8170067E1EAE7FFE7FFE704988068C7
:10241000012809D1FFE743F67001C4F20201086800
:1024200040F0010008601FE00498806805280DD185
:10243000FFE743F67001C4F20201086840F00400AF
:102440000860086840F0010008600CE043F6700185
:10245000C4F20201086820F001000860086820F05A
:1024600004000860FFE7FFE7FFE704988068F8B121
:10247000FFE7FFF73BFB0390FFE743F67000C4F272
:102480000200006800F002010020B0EB510F0ED1F5
:10249000FFE7FFF72BFB0399401A41F2893188428D
:1024A00004D3FFE703208DF8170014E1E5E71EE0F1
:1024B000FFF71CFB0390FFE743F67000C4F2020035
:1024C000006800F002010020B0EB510F0ED0FFE7D2
:1024D000FFF70CFB0399401A41F28931884204D37B
:1024E000FFE703208DF81700F5E0E5E7FFE79DF82B
:1024F0000700012809D1FFE743F64001C4F20201B9
:10250000086820F080500860FFE7FFE704988069C2
:10251000002800F0DC80FFE743F60800C4F2020068
:10252000006800F00C00082800F08580FFE70498A0
:10253000806902285CD1FFE76021C4F247210020B6
:102540000860FFF7D3FA0390FFE743F60000C4F2F8
:102550000200006800F000710020B0EB516F0CD059
:10256000FFE7FFF7C3FA0399401A032804D3FFE7F4
:1025700003208DF81700AEE0E7E70499C869D1F8A9
:1025800020C04B6A8A6A40EA0C0040EA8310D203FA
:102590004FF6FF739A43A2F580321043C96A40EAAE
:1025A000016043F60401C4F2020108606021C4F234
:1025B000472101200860FFF799FA0390FFE743F6EF
:1025C0000000C4F20200006800F000710020B0EBCF
:1025D000516F0CD1FFE7FFF789FA0399401A0328DE
:1025E00004D3FFE703208DF8170074E0E7E721E04C
:1025F0006021C4F2472100200860FFF777FA0390BA
:10260000FFE743F60000C4F20200006800F000712A
:102610000020B0EB516F0CD0FFE7FFF767FA03998A
:10262000401A032804D3FFE703208DF8170052E077
:10263000E7E7FFE74AE004988069012804D1FFE753
:1026400001208DF8170046E043F60400C4F20200B2
:102650000068029004988069012831D0FFE7029851
:1026600000F480000499C969884229D1FFE70298E3
:1026700000F03F000499096A884221D1FFE70298DF
:1026800047F6C07108400499496AB0EB811F17D121
:10269000FFE7029800F440300499896AC9034FF6B5
:1026A000FF729143A1F58031884209D1FFE702987A
:1026B00000F070600499C96AB0EB016F04D0FFE7C5
:1026C00001208DF8170006E0FFE7FFE7FFE7002095
:1026D0008DF81700FFE79DF8170006B080BD0000D9
:1026E00080B582B00190019801F034FA02B080BD4B
:1026F00085B003900291FFE7039890F83C00012811
:1027000004D1FFE702208DF813007EE00399012039
:1027100081F83C00FFE7FFE70399022081F83D00C4
:1027200003980068406801900398006880680090F2
:10273000019820F070000190029801680198084308
:102740000190019803990968486003980068002186
:10275000C4F2010188423CD0FFE703980068B0F161
:10276000804F36D0FFE70398006840F20041C4F282
:10277000000188422DD0FFE70398006840F6000171
:10278000C4F20001884224D0FFE70398006840F6B5
:102790000041C4F2000188421BD0FFE703980068A3
:1027A00040F20041C4F20101884212D0FFE70398D1
:1027B000006844F20001C4F20101884209D0FFE739
:1027C0000398006841F60001C4F2000188420ED16E
:1027D000FFE7009820F08000009002984168009880
:1027E000084300900098039909688860FFE70399FF
:1027F000012081F83D00FFE70399002081F83C00AB
:10280000FFE700208DF81300FFE79DF8130005B0E7
:102810007047000080B586B00490039102920020BA
:102820008DF80700FFE7049890F83C00012804D1D8
:10283000FFE702208DF8170080E00499012081F85D
:102840003C00FFE7FFE70298B0B9FFE70498006893
:10285000039B19685A68DB6801F0D8FB049801688B
:10286000886920F00C0088610398826804980168E8
:1028700088691043886156E00298042817D1FFE761
:1028800004980068039B19685A68DB6801F074FCBF
:1028900004980168886920F4406088610398826820
:1028A00004980168886940EA022088613AE0029849
:1028B000082816D1FFE704980068039B19685A6836
:1028C000DB6801F08FFC04980168C86920F00C00F7
:1028D000C8610398826804980168C8691043C86198
:1028E0001FE002980C2817D1FFE704980068039BAB
:1028F00019685A68DB6801F0ABFC04980168C86984
:1029000020F44060C8610398826804980168C8692F
:1029100040EA0220C86103E001208DF80700FFE7CC
:10292000FFE7FFE7FFE7FFE70499002081F83C009D
:10293000FFE79DF807008DF81700FFE79DF81700E7
:1029400006B080BD80B582B00090009820B9FFE746
:1029500001208DF807003FE0009890F83D0040B955
:10296000FFE70099002081F83C00009800F038F85B
:10297000FFE70099022081F83D00009951F8040B0F
:1029800001F080F90099012081F84600FFE70099E5
:10299000012081F83E00009981F83F00009981F8FC
:1029A0004000009981F84100FFE7FFE7009901200E
:1029B00081F84200009981F84300009981F84400B1
:1029C000009981F84500FFE70099012081F83D005A
:1029D00000208DF80700FFE79DF8070002B080BDDA
:1029E00080B58AB009900020089007900690059065
:1029F00004900998006840F20041C4F20001884246
:102A000032D1FFE7FFE70020039043F64000C4F215
:102A10000200016841F002010160006800F002005C
:102A200003900398FFE7FFE70020029043F6300091
:102A3000C4F20200016841F002010160006800F088
:102A4000020002900298FFE71020049002200590F7
:102A5000002106910791089040F20040C4F2020064
:102A600004A9FEF74FFE3BE00998006840F600011C
:102A7000C4F20001884232D1FFE7FFE70020019055
:102A800043F64000C4F20200016841F00401016015
:102A9000006800F0040001900198FFE7FFE70020C4
:102AA000009043F63000C4F20200016841F00201D8
:102AB0000160006800F0020000900098FFE78020AD
:102AC000049002200590002106910791089040F2A1
:102AD0000040C4F2020004A9FEF714FEFFE7FFE77E
:102AE0000AB080BD80B590B00E900D910D9828B9B8
:102AF000FFE70E9890F83E000A901CE00D9804281D
:102B000005D1FFE70E9890F83F00099010E00D986E
:102B1000082805D1FFE70E9890F84000089004E0DF
:102B20000E9890F841000890FFE708980990FFE799
:102B300009980A90FFE70A988DF82F000D9828B998
:102B4000FFE70E9890F8420007901CE00D980428CB
:102B500005D1FFE70E9890F84300069010E00D981D
:102B6000082805D1FFE70E9890F84400059004E08E
:102B70000E9890F845000590FFE705980690FFE74E
:102B800006980790FFE707988DF82E009DF82F0014
:102B9000012805D1FFE79DF82E00012804D0FFE7AA
:102BA00001208DF83F00B4E00D9828B9FFE70E9999
:102BB000022081F83E001EE00D98042806D1FFE7B0
:102BC0000E99022081F83F00049012E00D98082829
:102BD00006D1FFE70E99022081F84000039005E03E
:102BE0000E99022081F841000390FFE703980490BA
:102BF000FFE70498FFE70D9828B9FFE70E99022038
:102C000081F842001EE00D98042806D1FFE70E99D6
:102C1000022081F84300029012E00D98082806D1A6
:102C2000FFE70E99022081F84400019005E00E991B
:102C3000022081F845000190FFE701980290FFE72C
:102C40000298FFE70E9800680D99012201F0ECF858
:102C50000E9800680021C4F2010188423CD0FFE7D1
:102C60000E980068B0F1804F36D0FFE70E980068EC
:102C700040F20041C4F2000188422DD0FFE70E98D7
:102C8000006840F60001C4F20001884224D0FFE74A
:102C90000E98006840F60041C4F2000188421BD043
:102CA000FFE70E98006840F20041C4F2010188423B
:102CB00012D0FFE70E98006844F20001C4F201014F
:102CC000884209D0FFE70E98006841F60001C4F27F
:102CD0000001884212D1FFE70E980068806800F07A
:102CE00007000C900C98062807D0FFE70E980168A3
:102CF000086840F001000860FFE706E00E980168F0
:102D0000086840F001000860FFE700208DF83F00F0
:102D1000FFE79DF83F0010B080BD000080B584B093
:102D200002900191FFE7029890F83C00012804D13D
:102D3000FFE702208DF80F0037E00299012081F8AB
:102D40003C00FFE7FFE70299022081F83D0002986E
:102D5000019901F09FF870B1FFE70299012081F815
:102D60003D00FFE70299002081F83C00FFE70120C9
:102D70008DF80F0019E002980168C86820F0400043
:102D8000C86002980168C86820F48040C860029951
:102D9000012081F83D00FFE70299002081F83C0006
:102DA000FFE700208DF80F00FFE79DF80F0004B04B
:102DB00080BD000082B00190ADF8021002B07047F3
:102DC00080B582B00090009820B9FFE701208DF80F
:102DD000070023E00099242081F841000098016851
:102DE000C86820F40050C860009800F09DFA00996F
:102DF00000204864009981F84100009981F8420060
:102E00000099086300994863FFE70099002081F862
:102E10004000FFE700208DF80700FFE79DF807005E
:102E200002B080BD81B0009001B0704780B592B013
:102E30001190119800680068109011980068C0689F
:102E40000F901198006840690E9000200D900C9032
:102E5000109800F00F000D900D9888B9FFE79DF8CD
:102E60004000800600280AD5FFE79DF83C00800658
:102E7000002804D5FFE7119801F08CFA02E2FFE781
:102E80000D98002800F0C280FFE79DF83800C007C9
:102E900038B9FFE7BDF83C0010F4907F00F0B68031
:102EA000FFE79DF84000C00758B1FFE79DF83D00DF
:102EB000C00730B1FFE71199486C40F00100486449
:102EC000FFE79DF84000400700280BD5FFE79DF87D
:102ED0003800C00730B1FFE71199486C40F002009C
:102EE0004864FFE79DF84000800700280BD5FFE706
:102EF0009DF83800C00730B1FFE71199486C40F0E9
:102F000004004864FFE79DF840000007002811D541
:102F1000FFE79DF83C008006002805D4FFE79DF8F8
:102F20003800C00730B1FFE71199486C40F0080045
:102F30004864FFE71198406C002866D0FFE79DF8D1
:102F40004000800600280AD5FFE79DF83C00800677
:102F5000002804D5FFE7119801F01CFAFFE711984B
:102F600000684069C0F380100C901198406C000715
:102F7000002804D4FFE70C9800283ED0FFE7119802
:102F800001F0AAF9119800684069400600282FD581
:102F9000FFE7FFE7FFE71198006850E8050F20F012
:102FA00040000B90FFE70B991198026842E805106A
:102FB0000028F0D1FFE7FFE71198C06B98B1FFE759
:102FC0001198C16B44F2BD20C0F60000086511984D
:102FD000C06BFDF79FFF28B1FFE71198C06B016D33
:102FE0008847FFE703E01198FFF71CFFFFE703E0C6
:102FF0001198FFF717FFFFE706E01198FFF712FFA0
:10300000119900204864FFE7FFE73BE11198006B4E
:10301000012840F01781FFE79DF84000C006002816
:1030200040F11081FFE79DF83C00C006002840F108
:103030000981FFE7FFE700200A9011980068006807
:103040000A901198006840680A900A98FFE7119862
:10305000006840694006002840F19A80FFE7119817
:10306000C06B00684068ADF82600BDF82600002857
:1030700075D0FFE7BDF826001199898D88426EDA78
:10308000FFE7BDF826001199C8851198C06BC0698B
:10309000B0F5807F58D0FFE7FFE7FFE711980068A1
:1030A00050E8030F20F480700890FFE7089911980A
:1030B000026842E803100028F0D1FFE7FFE7FFE7CE
:1030C000FFE71198006850E8050F20F00100079015
:1030D000FFE707991198026842E805100028F0D12F
:1030E000FFE7FFE7FFE7FFE71198006850E8050FEB
:1030F00020F040000690FFE706991198026842E828
:1031000005100028F0D1FFE7FFE71199202081F892
:103110004200119900200863FFE7FFE7119800685B
:1031200050E8030F20F010000590FFE70599119873
:10313000026842E803100028F0D1FFE7FFE711988A
:10314000C06BFDF771FEFFE71199022048631198EB
:10315000818DC28D891A89B2FFF72CFE17E0BDF868
:1031600026001199898D884210D1FFE71198C06B14
:10317000C069B0F5807F08D1FFE71199022048634C
:103180001198818DFFF716FEFFE7FFE7FFE779E073
:103190001199888DC98D401AADF812001198C08D13
:1031A00000284ED0FFE7BDF81200002849D0FFE705
:1031B000FFE7FFE71198006850E8030F20F49070D4
:1031C0000390FFE703991198026842E80310002872
:1031D000F0D1FFE7FFE7FFE7FFE71198006850E84D
:1031E000050F20F001000290FFE702991198026894
:1031F00042E805100028F0D1FFE7FFE711992020F1
:1032000081F84200119900200863FFE7FFE7119859
:10321000006850E8030F20F010000190FFE70199CB
:103220001198026842E803100028F0D1FFE7FFE799
:103230001199022048631198BDF81210FFF7BAFDEA
:10324000FFE71FE09DF84000000600280AD5FFE7D1
:103250009DF83C000006002804D5FFE7119801F016
:10326000EBF90FE09DF84000400600280AD5FFE783
:103270009DF83C004006002804D5FFE7119801F0B6
:1032800075F8FFE712B080BD80B582B0009000985D
:1032900020B9FFE701208DF8070040E00098806921
:1032A00008B1FFE700E0FFE7009890F8410040B95F
:1032B000FFE70099002081F84000009800F05EF8D8
:1032C000FFE70099242081F8410000980168C86850
:1032D00020F40050C860009801F010F900980168CF
:1032E000086920F49040086100980168486920F05E
:1032F0002A00486100980168C86840F40050C8601E
:10330000009900204864009A202182F84110009A18
:1033100082F84210009948638DF80700FFE79DF896
:10332000070002B080BD000080B582B00190019816
:10333000006841F20041C4F2010188421BD1FFE75D
:1033400043F64401C4F20201086820F0200008603E
:1033500040F60000C4F20200C021FEF7C1F8019857
:10336000C06BFDF7F9FD0198806BFDF7F5FD472077
:10337000FEF750FCFFE702B080BD000080B58CB0C6
:103380000B9000200A9009900890079006900B98E7
:10339000006841F20041C4F20101884240F092808D
:1033A000FFE7FFE70020059043F64400C4F2020067
:1033B000016841F020010160006800F020000590E4
:1033C0000598FFE7FFE70020049043F63000C4F2C1
:1033D0000200016841F004010160006800F004008F
:1033E00004900498FFE7C020069002200790002078
:1033F000029008900320099008200A9040F60000EF
:10340000C4F2020006A9FEF77DF9029940F22C10E1
:10341000C2F20000039046F22842C4F202020260A7
:103420004FF0206242608160C1604FF480620261AF
:1034300041618161C16101624162FDF777FF18B1AD
:10344000FFE7FDF7C3F9FFE7FFE70B9840F22C1108
:10345000C2F20001C1630B988863FFE740F28C1051
:10346000C2F20000019046F2A041C4F202010160E4
:103470004FF020614160402181600021C1604FF424
:103480008062026141618161C16101624162FDF757
:103490004DFF18B1FFE7FDF799F9FFE7FFE70B983C
:1034A00040F28C11C2F2000181630B988863FFE740
:1034B0004720009000221146FEF7C0FB0098FEF75F
:1034C000B3FBFFE70CB080BD80B582B001900198DE
:1034D000006841F20041C4F2010188420CD1FFE7CB
:1034E00040F2C420C2F200000090FDF715F90098E8
:1034F0000121FDF74DF9FFE702B080BD80B582B034
:1035000001900198006841F20041C4F20101884233
:1035100004D1FFE70120FDF749F9FFE702B080BDC4
:10352000FFE7FEE780B586B0002100910591049188
:103530000391029140F2E400C2F20000019042F2D5
:103540000002C4F2010202604FF4803242608160E6
:1035500001610122027680F82010C1620123C0F6C9
:1035600000738362C160C26180F830104161FDF771
:1035700045FA18B1FFE7FDF729F9FFE701200290AE
:1035800003900020049040F2E400C2F2000002A97F
:10359000FDF720F918B1FFE7FDF718F9FFE706B0CE
:1035A00080BD000080B584B0FFE70020039043F6A3
:1035B0003000C4F20200016841F48001016000683B
:1035C00000F4800003900398FFE739200090002268
:1035D00001921146FEF732FB0098FEF725FB019A97
:1035E000452002901146FEF729FB0298FEF71CFBCE
:1035F00004B080BD80B59CB000201B901A9019903B
:1036000018901790FFE70020169043F63000C4F2A0
:103610000200016841F010010160006800F0100034
:1036200016901698FFE7FFE70020159043F630004C
:10363000C4F20200016841F004010160006800F07A
:10364000040015901598FFE7FFE70020149043F65B
:103650003000C4F20200016841F08001016000689E
:1036600000F0800014901498FFE7FFE7002013900B
:1036700043F63000C4F20200016841F0010101602C
:10368000006800F0010013901398FFE7FFE70020A7
:10369000129043F63000C4F20200016841F00201CA
:1036A0000160006800F0020012901298FFE7FFE747
:1036B0000020119043F63000C4F20200016841F08E
:1036C00008010160006800F0080011901198FFE700
:1036D00041F20000C4F202000F9008210191002283
:1036E0000E92FEF7EBF940F60000C4F202000790DC
:1036F000012209921146FEF7E1F90E9A40F60040C8
:10370000C4F2020008904FF210010391FEF7D6F9BF
:1037100007980E9A4FF400710491FEF7CFF9019BC0
:10372000099A0E990F981793189219911A9117A93F
:103730001091FDF7E7FF0798099B0E9A109940F248
:10374000012CCDF85CC0189319921A92FDF7DAFF9C
:10375000019B07980E9A1099179302230C931893C4
:1037600019921A92052202921B92FDF7CBFF099A39
:103770000E98109917924FF490120D92189219907A
:103780000020C4F202000590FDF7BCFF05980C9BD9
:103790000E9A10994FF0100CCDF85CC01893199246
:1037A0001A92062206921B92FDF7ACFF029A059828
:1037B000DDF830C00E9B10994FF0E00ECDF85CE0C4
:1037C000CDF860C019931A931B92FDF79BFF0E98DA
:1037D000109904220A9217921890199040F2004012
:1037E000C4F202000B90FDF78DFF029A0B98DDF8F2
:1037F00030C00E9B10994FF4806ECDF85CE0CDF890
:1038000060C019931A931B92FDF77CFFDDF80CC082
:103810000898099B0E9A1099CDF85CC018931992DC
:103820001A92FDF76FFF049B05980E9A1099179353
:1038300018921992FDF766FF05980C9B0E9A109945
:103840004FF4E05CCDF85CC0189319921A920A22EA
:103850001B92FDF757FF069A0798DDF830C00E9BC4
:1038600010994FF4A05ECDF85CE0CDF860C01993DC
:103870001A931B92FDF746FF08980E9A1099202381
:10388000179318921992FDF73DFFDDF824C00A9AAC
:103890000B980E9B10994FF4107ECDF85CE04FF022
:1038A000120ECDF860E0CDF864C01A931B92FDF7BC
:1038B00029FFDDF830C00D9B0E9A0F981099CDF8B6
:1038C0005CC018931992FDF71DFF1CB080BD00006D
:1038D00080B58CB0002100910B910A91099108915B
:1038E000079106910591049103910291019140F293
:1038F000EC10C2F2000040F20042C4F2000202608A
:103900000522426081604EF65F22C26001618161E2
:10391000FFF718F818B1FFE7FCF758FFFFE704209E
:10392000079050200890002009900A9001200B90E9
:1039300040F2EC10C2F2000007A9FFF7EFF918B14E
:10394000FFE7FCF743FFFFE700220392012004900A
:103950000592069040F2EC10C2F2000003A9FEF7B7
:1039600059FF18B1FFE7FCF731FFFFE70220039092
:10397000049040F2EC10C2F2000003A90422FEF70A
:1039800049FF18B1FFE7FCF721FFFFE70020019096
:10399000029040F2EC10C2F2000001A9FEF7A8FE6E
:1039A00018B1FFE7FCF712FFFFE70CB080BD000085
:1039B00080B58CB0002100910B910A91099108917A
:1039C000079106910591049103910291019140F2B2
:1039D0003420C2F2000040F60002C4F2000202608D
:1039E0000522426081604EF65F22C2600161816102
:1039F000FEF7A8FF18B1FFE7FCF7E8FEFFE7042099
:103A00000790602008900220099000200A90012071
:103A10000B9040F23420C2F2000007A9FFF77EF9B4
:103A200018B1FFE7FCF7D2FEFFE700220392022065
:103A3000049005920120069040F23420C2F200006A
:103A400003A9FEF7E7FE18B1FFE7FCF7BFFEFFE7AB
:103A5000022003900120049040F23420C2F20000C2
:103A600003A90422FEF7D6FE18B1FFE7FCF7AEFE6D
:103A7000FFE700200190029040F23420C2F20000E3
:103A800001A9FEF735FE18B1FFE7FCF79FFEFFE73F
:103A90000CB080BD80B582B040F27C20C2F2000044
:103AA000019041F20041C4F2010101604AF6202177
:103AB000C0F24401416000218160C16001610C22BB
:103AC00042618161C161FFF7DFFB18B1FFE7FCF7DD
:103AD0007DFEFFE702B080BDFFE7FEE7FFE7FEE700
:103AE00088B0079006910592079800F007000490AF
:103AF0000498C0F10700052803D3FFE704200190D4
:103B000004E00498C0F107000190FFE701980390DA
:103B100004980430062803D8FFE70020009003E053
:103B2000049803380090FFE70098029006980399E4
:103B3000012202FA01F101390840029B98400599DF
:103B40009A40013A1140084308B07047704700009E
:103B50007047000080B582B0009000980138B0F145
:103B6000807F03D3FFE70120019019E0009801381E
:103B70004EF21401CEF2000108604FF0FF300F2129
:103B800000F0EAFD4EF21801CEF2000100200860BC
:103B90004EF21002CEF20002072111600190FFE701
:103BA000019802B080BD000080B5FDF7A5FF80BD83
:103BB00080B594B008A83021FCF7CEFB0020079018
:103BC0000690059004900390FFE70020029043F6D2
:103BD0004000C4F20200016841F0805101600068B9
:103BE00000F0805002900298FFE7FFE7002001906C
:103BF00047F20000C4F20000016841F48041016016
:103C0000006800F4804001900198FFE701200890CF
:103C10004FF48030099002200E904FF480010F91F4
:103C2000082110914FF4A871119112900720139060
:103C300008A8FEF7F5F918B1FFE7FCF7C7FDFFE7A5
:103C40000F20039002200490002005904FF4A05014
:103C500006904FF48050079003A80521FEF710F856
:103C600018B1FFE7FCF7B2FDFFE714B080BD00001C
:103C70004EF68851CEF20001086840F470000860EA
:103C80007047000083B00290019102980068009094
:103C900002980021C4F20101884225D0FFE7029872
:103CA000B0F1804F20D0FFE7029840F20041C4F20B
:103CB0000001884218D0FFE7029840F60001C4F2E4
:103CC0000001884210D0FFE7029840F60041C4F29C
:103CD0000001884208D0FFE7029840F20041C4F298
:103CE000010188420AD1FFE7009820F0700000909F
:103CF00001984168009808430090FFE7029800216E
:103D0000C4F20101884255D0FFE70298B0F1804F1C
:103D100050D0FFE7029840F20041C4F2000188420F
:103D200048D0FFE7029840F60001C4F20001884243
:103D300040D0FFE7029840F60041C4F200018842FB
:103D400038D0FFE7029840F20041C4F201018842F6
:103D500030D0FFE7029844F20001C4F2010188422A
:103D600028D0FFE7029844F20041C4F201018842E2
:103D700020D0FFE7029844F60001C4F20101884216
:103D800018D0FFE7029841F60001C4F20001884212
:103D900010D0FFE7029841F60041C4F200018842CA
:103DA00008D0FFE7029842F20001C4F20001884205
:103DB0000AD1FFE7009820F4407000900198C16894
:103DC000009808430090FFE7009820F080000199D8
:103DD000496908430090019880680299C862019877
:103DE00000680299886202980021C4F201018842A9
:103DF00008D0FFE7029840F20041C4F20101884276
:103E000005D1FFE70198006902990863FFE702996D
:103E1000086840F004000860029901204861009899
:103E20000299086003B0704784B003900291019238
:103E3000029800F01F01012088400090009A039929
:103E4000086A904308620198029901F01F0100FA84
:103E500001F20399086A1043086204B07047000039
:103E600085B00490039102920193049880680090B9
:103E7000009820F47F40009003980299019A41EA4B
:103E8000022101430098084300900098049988603B
:103E900005B0704780B588B00690059100208DF878
:103EA00013000698006880680390039820F0700063
:103EB000039005984168039808430390039820F005
:103EC000070003900598016803980843039003983E
:103ED00006990968886005984068009000285FD0BE
:103EE000FFE7009810285BD0FFE70098202857D004
:103EF000FFE70098302853D0FFE70098402815D0FE
:103F0000FFE7009850283BD0FFE7009860283FD09B
:103F1000FFE70098702844D1FFE706980068059BEA
:103F20009A68D9681B69FFF79BFF3EE00598006817
:103F3000052804D1FFE701208DF81F003AE006981C
:103F40000068006A019006980168086A20F0010084
:103F500008620698006880690290029820F0F000DC
:103F6000029005980169029840EA011002900298B7
:103F7000069909688861019806990968086214E041
:103F800006980068059A9168126900F017F80CE02D
:103F900006980068059A9168126900F0C3F804E079
:103FA00003E001208DF81300FFE79DF813008DF862
:103FB0001F00FFE79DF81F0008B080BD85B004908A
:103FC000039102920498006A00900499086A20F014
:103FD00001000862049880690190019820F0F000C7
:103FE00001900299019840EA01100190009820F098
:103FF0000A000090039900980843009001980499E2
:10400000886100980499086205B0704787B00690EF
:104010000591049203930698006A01900699086A34
:1040200020F001000862069880690290069901203C
:104030000022C4F201029142009044D0FFE70699A9
:104040000120B1F1804F00903DD0FFE7069901209B
:1040500040F20042C4F200029142009033D0FFE7E8
:104060000699012040F60002C4F20002914200903D
:1040700029D0FFE70699012040F60042C4F2000271
:10408000914200901FD0FFE70699012040F20042C4
:10409000C4F201029142009015D0FFE70699012079
:1040A00044F20002C4F20102914200900BD0FFE7FB
:1040B00006984EF60001CBF6FF710844B0FA80F086
:1040C00040090090FFE70098C00748B1FFE7029859
:1040D00020F003000290049902980843029004E043
:1040E000029840F001000290FFE7029820F0F000F3
:1040F000029003980001C1B202980843029001980F
:1041000020F00A000190059800F00A010198084388
:10411000019002980699886101980699086207B093
:104120007047000085B00490039102920498006AE1
:1041300000900499086A20F01000086204988069D1
:104140000190019820F4704001900299019840EA92
:1041500001300190009820F0A00000900399009891
:1041600040EA011000900198049988610098049930
:10417000086205B07047000086B005900491039274
:1041800002930598006A00900599086A20F01000D3
:104190000862059880690190019820F440700190B0
:1041A0000399019840EA01200190019820F47040A1
:1041B00001900298000381B2019808430190009891
:1041C00020F0A0000090049800F00A01009840EA56
:1041D000011000900198059988610098059908627E
:1041E00006B0704786B0059004910392029305983B
:1041F000006A00900599086A20F4807008620598AA
:10420000C0690190019820F0030001900399019882
:1042100008430190019820F0F000019002980001FD
:10422000C1B2019808430190009820F420600090EA
:10423000049800F00A01009840EA012000900198DB
:104240000599C86100980599086206B0704700009A
:1042500086B005900491039202930598006A00903D
:104260000599086A20F4805008620598C069019099
:10427000019820F4407001900399019840EA0120D0
:104280000190019820F4704001900298000381B2DF
:10429000019808430190009820F420400090049871
:1042A00000F00A01009840EA013000900198059959
:1042B000C86100980599086206B0704780B582B061
:1042C00001900198806B009000990020C8850098AB
:1042D000FEF7A8FD02B080BD84B00390FFE7FFE7C2
:1042E0000398006850E8030F20F490700290FFE7F5
:1042F00002990398026842E803100028F0D1FFE712
:10430000FFE7FFE7FFE70398006850E8050F20F09C
:1043100001000190FFE701990398026842E8051047
:104320000028F0D1FFE7FFE70398006B012814D1C4
:10433000FFE7FFE7FFE70398006850E8030F20F06E
:1043400010000090FFE700990398026842E803100C
:104350000028F0D1FFE7FFE7FFE70399202081F86D
:10436000420003990020086304B0704780B582B012
:10437000019001980168C86820F04000C860019968
:10438000202081F841000198FFF7B8F8002002B022
:1043900080BD000080B586B004900020039002909C
:1043A000049890F84200222840F0A080FFE704988B
:1043B0008068B0F5805F13D1FFE70498006978B991
:1043C000FFE70498806A02900498006840686FF3E1
:1043D0005F20029908800499886A0230886223E08D
:1043E0000498806A039004988068B0F5805F08D0D4
:1043F000FFE70498806850B9FFE70498006930B976
:10440000FFE70498006840680399087007E0049883
:104410000068406800F07F0003990870FFE7049986
:10442000886A01308862FFE70499C88D0138C88521
:104430000004002856D1FFE704980168C86820F0FE
:104440002000C86004980168C86820F48070C860C3
:1044500004980168486920F001004861049920200F
:1044600081F842000499002048630498006B0128F9
:1044700030D1FFE7049900200863FFE7FFE70498C5
:10448000006850E8030F20F010000190FFE7019949
:104490000498026842E803100028F0D1FFE7FFE724
:1044A000049800680068C00600280ED5FFE7FFE703
:1044B000002000900498006800680090049800684C
:1044C000406800900098FFE7FFE70498818DFEF7B1
:1044D00071FC03E00498FEF7F7FFFFE700208DF87A
:1044E000170007E000208DF8170003E002208DF888
:1044F0001700FFE79DF8170006B080BD80B586B0B5
:10450000059005980068006920F44050059A1168EC
:10451000D26810430861059988680B694A69C969BE
:10452000184310430843049005980068C06849F296
:104530000C6188430499084305990968C860059887
:104540000068406920F44070059A11689269104330
:1045500048610598006841F20001C4F201018842F7
:1045600009D0FFE70598006841F20041C4F201015B
:10457000884204D1FFE7FDF7CDFC039003E0FDF78F
:10458000B7FC0390FFE70598C069B0F5004F29D14B
:10459000FFE703981921A0FB0101059A1368029314
:1045A00053685A00DB0FFBF75FFE0299864648F21C
:1045B0001F53C5F2EB13AEFB0320420910014FF06D
:1045C000640C02FB1CEC322202EBCC02A2FB033295
:1045D000F82303EA521300EB4300C2F342121044E3
:1045E000886026E003981921A0FB0101059A136851
:1045F000019353689A009B0FFBF736FE019984469E
:1046000048F21F52C5F2EB12ACFB023043096420A2
:1046100003FB10CC322000EB0C10A0FB0202F020B8
:1046200000EA521000EB0310C2F3431210448860FA
:10463000FFE706B080BD000083B00190019890F8BC
:10464000410021283AD1FFE701988068B0F5805FEA
:1046500013D1FFE70198006978B9FFE70198006A74
:104660000090009800886FF35F2001990968486006
:104670000199086A0230086208E0019A106A411C38
:1046800011620078019909684860FFE70199C88CB8
:104690000138C884000468B9FFE701980168C86858
:1046A00020F08000C86001980168C86840F04000B0
:1046B000C860FFE700208DF80B0003E002208DF8B2
:1046C0000B00FFE79DF80B0003B0704780B540F288
:1046D0007C20C2F20000FEF7A9FB80BDFFE7FEE7E9
:1046E00081B08DF803009DF90300002812D4FFE784
:1046F0009DF9031001F01F02012090404A094EF27B
:104700008011CEF2000141F82200BFF34F8FBFF3BA
:104710006F8FFFE701B0704781B08DF803009DF9FE
:10472000030000280ED4FFE79DF9031001F01F02DB
:10473000012090404A094EF20011CEF2000141F8EA
:104740002200FFE701B070474EF60C50CEF2000099
:104750000068C0F30220704782B08DF80700009116
:104760009DF9070000280AD4FFE7009800019DF991
:1047700007104EF20042CEF2000288540BE000987F
:1047800000019DF8071001F00F014EF61452CEF211
:1047900000028854FFE702B07047000083B0029027
:1047A000029800F0070000904EF60C51CEF2000186
:1047B0000868019001984FF6FF021040019001989F
:1047C000009A40EA02200022C0F2FA5210430190FF
:1047D0000198086003B0704780B588B040F2E400EB
:1047E000C2F200000221FCF7A1F960B9FFE740F234
:1047F000E400C2F20000FCF7F9F840F2D801C2F27E
:1048000000010860FFE740F2E000C2F200000790FC
:10481000006800F0BFFD41EC100B8DED000B40F285
:10482000D800C2F20000059090ED000AB8EE400AF0
:1048300040F23430C2F20000069090ED001AB8EE5B
:10484000411A30EE010A10EE100A00F0A3FD41EC0F
:10485000100B51EC100B9FED200B53EC102B00F0C4
:10486000ADFB41EC100B51EC100B9FED1D0B53EC0D
:10487000102B00F049FA9DED000B41EC110B8DED72
:10488000021B9FED191B53EC112B51EC100B00F088
:1048900095FB9DED020B41EC110B51EC110B53EC10
:1048A000102B00F089F941EC100B51EC100B00F0CB
:1048B00051F9059A069B0799844640F2DC00C2F242
:1048C0000000C0F800C012681A600068086008B0F4
:1048D00080BD00BF00BF00BF8014AE47E17A843FB7
:1048E0000000000000000040AE47E17A14AEEF3F48
:1048F00080B540F2E400C2F200000221FCF716F994
:1049000060B9FFE740F2E400C2F20000FCF76EF885
:1049100040F2D801C2F200010860FFE740F2D8007F
:10492000C2F20000016840F23432C2F200021160AB
:1049300090ED000AB8EE400A40F2DC00C2F200003E
:1049400080ED000A006840F2E001C2F20001086058
:1049500080BD000080B59EB0002004901D90FDF742
:10496000D9F8FFF725F9FEF745FEFEF71BFEFFF726
:1049700091F8FEF7ADFFFFF71BF8FEF7D3FD0499A2
:1049800040F2EC10C2F200000390FEF7ABF803987F
:1049900004210591FEF7A6F8049940F23420C2F2F2
:1049A00000000690FEF79EF805990698FEF79AF823
:1049B00069464FF40070086040F2C420C2F2000063
:1049C00040F27C22C2F200020792022140F600036C
:1049D000C4F20203FBF7C0FE0798FEF7F1F907984F
:1049E0004AF62021C0F244014160FEF74DFC18B1A7
:1049F000FFE7FBF7EBFEFFE76420FCF74FFD40F21B
:104A0000E400C2F20000FCF727F940F29801C2F27C
:104A1000000100200190086040F2A001C2F20001F4
:104A2000086040F29401C2F20001086040F29C016B
:104A3000C2F20001086040F2AC01C2F2000108605D
:104A400040F2A801C2F20001086040F2740CC2F208
:104A5000000CCCF8000040F27003C2F200031860B2
:104A600040F2CC01C2F20001086040F2C801C2F27B
:104A70000001086040F2BC02C2F20002106040F285
:104A8000B801C2F20001086040F2B00EC2F2000E9E
:104A9000CEF8000040F2B40EC2F2000ECEF80000D4
:104AA0009CED000AB8EEC00A40F2303CC2F2000CA5
:104AB0008CED000A93ED000AB8EEC00A40F22C33E8
:104AC000C2F2000383ED000A136840F22832C2F2FA
:104AD000000213600968116040F2D401C2F20001C3
:104AE000086040F2D001C2F20001086040F2C40147
:104AF000C2F20001086040F2C001C2F20001086089
:104B000040F2D801C2F20001086040F23431C2F232
:104B10000001086040F2DC01C2F20001086040F2CE
:104B2000E001C2F20001086040F23831C2F2000137
:104B30000291086040F6B830FCF7B0FCFFF7D8FEF1
:104B4000FCF7D4FF02991C9001200860FFE7FFF7F3
:104B500043FEFCE721F0004201F00043A2F1605265
:104B6000B2F5801F28BFD2F17F6C0BD95FEA001C21
:104B700043EAC20242EB507018BF704728BF20F0D2
:104B800001007047B2F5801FBCBF184670474FEA5E
:104B9000410C1CF5001F02D2084600F079BC70B52C
:104BA00000F0B6FA00000089FFF7F6BF4FF00040B2
:104BB000A0F580007047000010B591EA030F48BFD0
:104BC00083F0004300F10083841A71EB030C05D2DB
:104BD000121943EB0C03001B61EB0C014FEA11545B
:104BE000A4EB135CDFF81CE11EEA430F18BF9EEA3A
:104BF000445F00F0748021EA045123EA0E0343F479
:104C00008013DCF1200E32D322FA0CFE10EB0E00E2
:104C100023FA0CFE41EB0E01CCF1200E03FA0EFE3E
:104C200010EB0E00CCF1200E51F10001B1F5801F08
:104C300032D201EB045112FA0EF2BDE8104058BF17
:104C40007047401C38BF5FEA420218BF7047002817
:104C500014BF20F0010041F100014FEA410313F5B8
:104C6000001F38BF7047A1F1C04100F09FBA012A70
:104C700043EB0302ACF1200CDCF11F0E32BF4FF00E
:104C8000000E23FA0CF310EB030041EB0451B4EBDC
:104C9000115FD0D0A1EB045101F58011490801EB5F
:104CA00004515FEA30000ED350F1000038BF12FA11
:104CB0000EFE08D1BDE81040C9E7401C38BF5FEACE
:104CC0004202CAD1C3E7BDE810404FEA410313F5E1
:104CD000001F38BF7047A1F1C04100F067BA9EEADB
:104CE000445F08D011EA5E0FBDE8104004BF01F038
:104CF000004100207047BDE8104070B500F008FA90
:104D000064FBBE3E0000E0FF2DE9C04130B4DFF897
:104D1000A4C23CEA111418BF3CEA131400F0ED8061
:104D20001CEA111481EA030544EAD57418BF1CEA91
:104D3000131500F0C880A4EB050404F17F7404F59A
:104D400000344FF0004545EAC12145EAC32341EA5A
:104D5000505143EA52534FEAC0204FEAC2229942CF
:104D600008BF904200F09D804FEA13650FF2441691
:104D7000765D4FEA134506FB05F7C7F1807706FB22
:104D800007F74FEAD737A7FB03687642A7FB06CEA3
:104D9000C8F5803838BFA8F1010807FB08E6A6FB74
:104DA000028C4FF0000EE6FB03CEDCF1000CCEF1DE
:104DB000004E38BFAEF1010EA6FB0C584FF00007B5
:104DC000E6FB0E87A1FB08C6A0FB07CE16EB0E067E
:104DD0004FF0000545F10005E1FB076515F1E04ED8
:104DE0007EBFA4F580345FEA46066D4116F1800768
:104DF00045F100054FEA172747EA05674FEA1525F1
:104E00004FEA0666A6F1DE46B6F1805F20D9384645
:104E100005EBC47124F0010C01EB0C11BCF1FE6F29
:104E200002D8F0BCBDE8008124425CBF01F5801EC1
:104E30009EEAC47F02D4F0BCBDE80081244200F1A8
:104E40003980A1F1C041F0BCBDE8004100F0AEB92D
:104E50004FEAD02040EA41504FEAD1214FEAD22216
:104E600042EA43524FEAD323A7FB028607FB0366BD
:104E700005FB02661EEA0E0F58BFA6EB0056B6EB06
:104E800000564FEA520E4EEAC37E18EB0E0E56EB5A
:104E9000530EBCD518EB02085E417F1C55F100058E
:104EA000B5E74FF480154FF000074FF000064FF0C4
:104EB0000008ACE701F1C04101F000414FF00000F3
:104EC000F0BCBDE800810CEA131511EA0C1F00D0FC
:104ED0000CE013EA0C1F00F026804FF0000081EA7E
:104EE000030101F00041F0BCBDE80081F0BCBDE869
:104EF000004181EA030100F059B9F0BCBDE800416E
:104F000070B500F005F900BF097EFC3E00F007B85F
:104F10004FF0000081EA030101F00041704781EA8F
:104F2000030100F043B9F0BCBDE8004122494FF055
:104F300000007047FFFDFBF9F7F5F4F2F0EEEDEB42
:104F4000E9E8E6E4E3E1E0DEDDDBDAD8D7D5D4D387
:104F5000D1D0CFCDCCCBCAC8C7C6C5C4C2C1C0BFD3
:104F6000BEBDBCBBBAB9B8B7B6B5B4B3B2B1B0AFD9
:104F7000AEADACABAAA9A8A8A7A6A5A4A3A3A2A1BD
:104F8000A09F9F9E9D9C9C9B9A9999989797969578
:104F900095949393929191908F8F8E8E8D8C8C8B14
:104FA0008B8A89898888878786858584848383829C
:104FB000828181800000FF070000F87F70B5DFF874
:104FC00048C11CEA111E1EBF1CEA13159EEA0C0FF5
:104FD00095EA0C0F00F06F8081EA03044EEAD47E5C
:104FE000AE4421EA4C1123EA4C1341F4801143F4FE
:104FF0008013AEF17F7EA1FB024CA0FB0365361946
:1050000055EB0C05A1FB034C4CF10003A0FB021C6B
:1050100016EB0C06654153F10003094218BF46F038
:10502000010613F4007F0BD14FEA03314FEA05303C
:1050300041EA155140EA165034036FF003020AE0CA
:105040004FEAC3214FEAC52041EA555140EA565084
:10505000F4026FF0020202EB2E4201EB025585EAE8
:10506000CE710AD05FEA440C18BF24F0004450F11E
:10507000000041F1000120EAD47040F2FE7C62455C
:1050800000D270BDA84214BF4FF080444FF040449E
:10509000002E08BF0024BEF1806FA8BFA1F1C0415F
:1050A000BDE8704080F2828001F1C04101F0004112
:1050B0004FF0000070470CEA13159EEA0C0F18BF62
:1050C00095EA0C0F06D081EA030E4FF000000EF0B7
:1050D000004170BD00F01CF88900013E00F007B8E7
:1050E00000F009B84FEA430C5FEA5C5C08D081EA43
:1050F000030100F05BB84FEA410C5FEA5C5CF6D15B
:1051000002494FF0000070470000FF070000F87FE1
:105110000EF1020E2EF0030E5EF8046B364205D43B
:10512000012A43EB030515F5001F12D8012841EBB6
:10513000010C1CF5001F0CD80ED14FEAD17C0CEBF2
:105140004C0C0CF1020C15F5001F08BF4CEBD37C86
:1051500004E04FF0080C01E04FEAD37C0CEB4C0567
:1051600026FA05F606F00706B6F1040C06D20EEB99
:10517000860CBDE870404CF0010C6047DFE80CF095
:10518000090B02024FF00041A1F500214FF0000091
:1051900070BD19461046012851EB010418BFD4F523
:1051A000001484BF002001F0004170BD0808A0F584
:1051B00000114FEA3101704710B591EA030F48BF63
:1051C00083F000433FF500AD841A71EB030C07D266
:1051D0008CF0004C121943EB0C03001B61EB0C012B
:1051E0004FEA1154A4EB135CDFF8A4E11EEA430F6D
:1051F00018BF9EEA445F00F0B48021EA045123EA1C
:105200006E035242C3EB6E0338BF5B1EDCF1200E0F
:1052100025D322FA0CFE10EB0E0043FA0CFE41EBF4
:105220000E01CCF1200E03FA0EFE10EB0E00CCF1B5
:10523000200E51F1000129D401EB045112FA0EF2B3
:10524000BDE8104058BF7047401C1CBFB2F1004F72
:10525000704700280CBF491C20F00100704712EB7A
:10526000020E43EB030218BF4FF0010E4EEA42025A
:10527000ACF1200CDCF11E0E56D943FA0CFE10EBFB
:105280000E00CCF11E0E51F1FF31D5D50EF1010EFD
:1052900012FA0EFE404141EB010101EB445C5FEA72
:1052A0005C5C10D901EB045110EBDE7038BFBEF12D
:1052B000004FBDE8104018BF704700280CBF491CC4
:1052C00020F00100704734D24FEAD42C24F400645B
:1052D00011F500111BD0B1FA81F20B3AA41AA41EE9
:1052E000D2F12003914030FA03F31943904001EBCF
:1052F000CC7101EB0451002CBDE81040A8BF7047F1
:1053000001F1C04101F000414FF000007047B0FAD8
:1053100080F310FA03F102D1BDE810407047E41A9F
:10532000173C4805C90AE2E701EB0451BDE810400B
:10533000704749104FEA300001EB0451BDE81040BE
:1053400002E04FF0000170474A0008BF0042F8D069
:10535000B2F5001F28BF704701F000414FF0000078
:1053600070479EEA445F07D011EA5E0FBDE8104027
:1053700004BF002100207047BDE8104070B5FFF762
:10538000C7FE00BF40DFF63E104683F00041704785
:105390000000E0FF43004FEAD30C4FEA3C0C4340CF
:1053A0001FBF40070CF1605113F0FE4F70471CF017
:1053B000006F03D10CF00041002070470CF0004357
:1053C00043EA507040EACC0010B500F00EF800BF80
:1053D000000000924FEA0001FFF7E8BE4FF00041E5
:1053E000A1F500214FF0000070470EF1020E2EF0E3
:1053F000030E5EF8044B244204D44FEA4102B2F19A
:105400007F4F11D84FEA4003B3F17F4F0CD80ED134
:105410004FEAD07C0CEB4C0C0CF1020CB2F17F4F3C
:1054200008BF4CEBD17C04E04FF0080C01E04FEAE0
:10543000D17C0CEB4C0324FA03F404F00704B4F120
:10544000040C06D20EEB840CBDE810404CF0010CAD
:105450006047DFE80CF0070802024FF00040A0F5BB
:10546000800010BD0846420018BFD2F1807288BF8C
:1054700000F0004010BDF1EE100A4FF6FF71C0F2CF
:10548000C03120EA010040F04070E1EE100A7047A0
:10549000FF2141EAD050C005704700000000000025
:1054A00000000102030406070809000000000102D1
:1054B000030400061016000610160000E054000851
:1054C0000000002010000000C4010008F054000893
:1054D0001000002030090000E0010008000000007A
:1054E0000024F40001000000100000000000000093
:040000050800018965
:00000001FF
