:020000040800F2
:10000000C009002029020008F72000085B1D000835
:10001000F52000081F040008292B0008000000003C
:100020000000000000000000000000006F24000835
:10003000D1040008000000006D24000871240008AD
:10004000430200084302000843020008430200087C
:10005000430200084302000843020008430200086C
:10006000430200084302000843020008430200085C
:10007000430200084302000843020008430200084C
:10008000430200084302000843020008430200083C
:10009000430200084302000843020008430200082C
:1000A000430200084302000843020008430200081C
:1000B000430200084302000843020008430200080C
:1000C00043020008430200084302000843020008FC
:1000D00043020008430200084302000843020008EC
:1000E00043020008430200084302000843020008DC
:1000F00043020008430200084302000843020008CC
:1001000043020008430200084302000843020008BB
:1001100043020008430200084302000843020008AB
:1001200043020008210400084302000843020008BB
:10013000430200084302000843020008430200088B
:10014000430200084302000843020008430200087B
:10015000430200082D040008430200081D2B00087C
:10016000430200084302000843020008430200085B
:100170004302000843020008430200080000000098
:10018000430200084302000800F002F800F03CF8C7
:100190000AA090E8000C82448344AAF10107DA45E2
:1001A00001D100F031F8AFF2090EBAE80F0013F0F8
:1001B000010F18BFFB1A43F00103184780400000ED
:1001C000A0400000103A24BF78C878C1FAD852077E
:1001D00024BF30C830C144BF04680C6070470000C1
:1001E0000023002400250026103A28BF78C1FBD840
:1001F000520728BF30C148BF0B6070471FB503F0DE
:10020000FEFE1FBD10B510BD00F0D0F81146FFF77F
:10021000F5FF02F009FF00F0EEF803B4FFF7F2FF7C
:1002200003BC00F0F5F80000094880470948004782
:10023000FEE7FEE7FEE7FEE7FEE7FEE7FEE7FEE796
:10024000FEE7FEE704480549054A064B70470000F3
:100250001525000889010008C0030020C0090020FE
:10026000C0050020C005002053EA020C00F06980A0
:100270002DE9F04B4FF00006002B1FBFB3FA83F5BA
:1002800003FA05F424FA05F65E4012BF1643B2FAEB
:1002900082F502FA05F4C5F120051EBF22FA05FC1D
:1002A00044EA0C04203556EA044C4FEA144418BFC3
:1002B000641C4FF000084FF00009904271EB030CF2
:1002C00039D3002919BFB1FA81F701FA07F6B0FA5C
:1002D00080F700FA07F6C7F120071EBF20FA07FCD7
:1002E00046EA0C062037B6FBF4FCA7EB0507103FE7
:1002F00007F01F0BCBF120062CFA06F60CFA0BFBCD
:1003000044BFB3460026202FA4BF5E464FF0000B2B
:100310005BEA060C08BF4FF0010B19EB0B0948EB29
:100320000608ABFB027C06FB02CC0BFB03CCC01B1C
:1003300071EB0C01C1E70B46024641464846BDE859
:10034000F08B13B5084318BF4FF0FF300146AFF3F1
:100350000080BDE81C4070474FF0000200B5134616
:1003600094469646203922BFA0E80C50A0E80C50D5
:10037000B1F12001BFF4F7AF090728BFA0E80C5086
:1003800048BF0CC05DF804EB890028BF40F8042B7F
:1003900008BF704748BF20F8022B11F0804F18BFEC
:1003A00000F8012B7047704770477047754600F0A2
:1003B0002BF8AE4605006946534620F007008546F7
:1003C00018B020B5FFF73EFFBDE820404FF0000613
:1003D0004FF000074FF000084FF0000BAC46ACE8C0
:1003E000C009ACE8C009ACE8C009ACE8C00921F01C
:1003F00007018D46704710B50446AFF300802046D4
:10040000BDE81040FFF709BF00487047100000200A
:1004100001491820ABBEFEE7260002007047FEE748
:10042000014800F0DBBA00BF20020020014800F0C4
:10043000D5BA00BF80020020026840F2FF3122EAF4
:10044000010102F0F802103A5F2A88BF0431816589
:100450001823B2FBF3F202A39A5CC2650846704708
:100460000006101600061016B0B5046880682568EE
:100470004028084625F480252560636008BF1046A3
:10048000A06008BF0A46E260B0BD000010B5074B8F
:1004900000F13A01002290F83F400734A24228BF01
:1004A00010BD9C5C8C540132F5E700BF5801002060
:1004B00001720099026343630187704780F86210FC
:1004C0007047000001490870704700BFD501002047
:1004D000704772B6FEE70000F8B50022009290F86F
:1004E0003C20012A01D1022175E0012280F83C2044
:1004F0000A680A2A09D393B25B0013FA82F3A3F1C4
:100500001E04036803F10C0504E0036802EB4204D7
:1005100003F1100507262F68A64027EA06062E607D
:100520008E6806FA04F42E6834432C604968062964
:100530000FD801EB81014C1F1F2101FA04F5194668
:1005400051F8346F26EA05050D6095B205FA04F4FA
:1005500017E094B201EB81050C2907D8233D1F2138
:1005600001FA05F6194651F8307F06E0413D1F219A
:1005700001FA05F6194651F82C7F27EA0606AC4029
:100580000E600D682C430C606349A1F54174A342D1
:100590001ED1122A04D10A6842F480020A6017E0D0
:1005A00022F00103102B13D10B68102A43F400032F
:1005B0000B600DD1C749C84A0968B1FBF2F101EBE4
:1005C000810149000091009911B100990139F9E7C1
:1005D000002180F83C100846F8BD00BF0068C06CE0
:1005E00070470000002841D070B50446006C30B957
:1005F000204600F099F8002084F83C006064206CEC
:10060000C00635D4206C41F20211884342490230C1
:100610002064086820F44030086094E80D002569E3
:100620000E6832430A60416821F48071416041687C
:1006300041EA05214160416821F040714160416813
:100640001943364B4160816821F400618160E168A3
:10065000826811438160816821F070618160A26AC3
:1006600081689A4206D121F040510CE00120704788
:1006700001204CE011438160816821F0405181608C
:10068000E16A826811438160816821F00201816022
:1006900094F82020217E836843EA4101816041680B
:1006A0006AB141F400611E4A4160416821F4604131
:1006B0004160616A02EB41314268114301E021F47B
:1006C00000614160174BC16A21F47001C162E269A7
:1006D000616903EB0252C36A1A43C262826822F460
:1006E0000072826094F83020836843EA422282607C
:1006F000826822F480628260826842EA812101225B
:10070000816000206064216C62F30101216400219A
:1007100084F83C1070BD00BF042301400100000FAD
:1007200000E0FFFF0000F0FFFEB502686B4800210B
:10073000CDE9041182421ED1104A009100F56040BB
:10074000536943F480735361536903F480730093D6
:10075000009B0091136843F001031360126802F0DC
:10076000010200920391032102910221019100995B
:1007700001A900F00BFB06B080BD00BF303802407D
:10078000F8B5044600680D468168490502D58068C1
:10079000C00525D400F0D2FB06466F1C2068016816
:1007A00089070ED4002FF9D02DB100F0C7FB801BB4
:1007B000A842F3D9206800688007EFD401F00BFD50
:1007C000F8BD6FF012010160216C41F400712164E9
:1007D000816811F0405F01D1217E51B10020F8BD48
:1007E000002084F83C00206C40F0200020640120B0
:1007F000F8BDC16A11F4700F02D080684005EDD4D5
:1008000001F0E9FDEAD401F0A6FDE7E718B5002103
:10081000009190F83C10012904BF022018BD01F09E
:1008200047FD10D10B682C4C43F001030B60C14B0A
:100830001B68B3FBF4F303EB43030093009B13B17A
:10084000009B013BF9E70C68036CE40705D101F05C
:1008500066FD0A681043086036E001F072FC04D5BA
:10086000036C012464F30D330364036C0024DB0484
:1008700044BF446C24F0060444646FF02204002357
:10088000146080F83C301548D0F80433DB0603D000
:10089000824219D1806814E0824211D0104B9A42F2
:1008A0000AD0104B9A420FD1D0F80433DB0607D0A0
:1008B00000F500739A4207D1D0F80403C00603D4B0
:1008C000086810F0405F01D0002018BD4FF0804054
:1008D000BFE700BF0800002040420F000020014099
:1008E000002201400021014070B5866D044600F0F1
:1008F00025FB054694F83500022821D12068216C9B
:10090000026822F016020260426922F0800242610F
:1009100009B9A16C19B1016821F00801016001F069
:1009200063FC20680068C0070ED000F007FB401B86
:100930000628F6D320206065032084F835000CE0FB
:1009400080206065012008E0E06D3F2101FA00F0A1
:10095000B060012084F835000020002184F83410B4
:1009600070BD90F83510022909D1052180F83510A5
:100970000068724601F038FC9646002070478021DE
:1009800041650120704770B530B1054690F83500DB
:10099000022803D102241FE001241DE0286800245E
:1009A00001F022FC2121046044608460C460046181
:1009B00041612846FFF740FD064605F13C0018213D
:1009C000FFF7CAFCE86D3F2101FA00F0B0606C65EA
:1009D00085F8344085F83540204670BDF8B50446AA
:1009E0000020544A08210090D4E916601568376841
:1009F000814039420CD0226813685B0708D5136820
:100A000023F004031360B160616D41F00101616581
:100A100001218140394208D022685269120604D56A
:100A2000B160616D41F0020161650421814039428C
:100A300008D022681268920704D5B160616D41F058
:100A40000401616510218140394217D02068026895
:100A5000120713D5B16002680168520306D4C905B4
:100A600006D4016821F00801016001E0080301D407
:100A7000216C00E0A16C09B120468847E16D20207F
:100A800000FA01F23A4233D020680368DB062FD522
:100A9000B26094F835300268052B15D122F01602A9
:100AA0000260426922F080024261226C0AB9A26CA3
:100AB0001AB1026822F0080202603F208840B0604C
:100AC00001F04EFB216D2FE00168520308D4C905E7
:100AD0000AD4016821F01001016001F041FB03E03C
:100AE000080301D4616C00E0E16B09B1204688473E
:100AF000606DF0B1606DC00715D005214FF4165040
:100B000084F83510B5FBF0F021680A6822F0010284
:100B10000A60009A01328242009202D80A68D20723
:100B2000F7D101F01DFBE16C19B12046BDE8F8409A
:100B30000847F8BD080000202DE9F041044600F008
:100B4000FDF9ACB10546022084F8350001F0BEFB8A
:100B5000206801F049FB21680868C0070BD000F04D
:100B6000EDF9401B0528F6D90325202703205BE07B
:100B70000120BDE8F081086804F1040C2D4A9CE8CE
:100B8000E81100EA020ED4E9072043EA0E032B43E2
:100B900033433B4343EA08031A43636A104340EA82
:100BA0000C02042B03D1D4E90B05284302430A604D
:100BB000042B486920F0070040EA030228D1D4E959
:100BC0000A63324323B3BCF5005F08D0BCF1000FC9
:100BD00014D1022E15D0012E0AD0002E10E0032EC3
:100BE00016D8012540270120DFE806F01E0B1E0263
:100BF000A3F1C070B0FA80F0400904E0032E03D3E3
:100C000006D1C3F3006018B10125402701200BE095
:100C100020464A61FFF710FCE16D3F2200270125C5
:100C200002FA01F181600020676584F83550BDE863
:100C3000F08100BF3F8010F0B0B501F077FB27D006
:100C40000120A56D84F8340094F8350001281DD1E9
:100C5000022084F83500002060652046FFF704FC80
:100C6000E26D3F232068216C03FA02F2AA60026859
:100C700042F01602026019B1016841F008010160FA
:100C8000016841F0010101600020B0BD01F01EFBD0
:100C90000220B0BDB0B5044600F050F90546C94881
:100CA000611C007818BF044400F048F9401BA042C2
:100CB000FAD3B0BD2DE9F84F934A08244FF000094C
:100CC0004FF000084FF00F0A9042904A08BF0724E7
:100CD00002444FEAB223072B38BF4FEAB2248C4AB2
:100CE000009401230F240027A2F57E7B102F08BF5C
:100CF000BDE8F88F03FA07F20A4241D009F00C056B
:100D000027F0030CD24304FA05FE5BF80C40009B6D
:100D100004EA0E0403FA05F5AC4214D17C4B7D4E77
:100D2000BC081D6815401D605D6815405D60356834
:100D3000154035609D6815409D605BF8245025EA9C
:100D40000E054BF824500323056803FA08F46FF0EE
:100D5000030303EA5706A5430560064409F01C0592
:100D6000336A0AFA05F5AB433362C368A343C36031
:100D700043681A40012342608268A2430F248260C4
:100D800009F1040908F102080137AFE72DE9FC4F2A
:100D90005D4A08244FF0010B4FF000094FF0000AA4
:100DA00090425A4A08BF072402444FEAB223072B55
:100DB00038BF4FEAB22400940022102A08BFBDE8D1
:100DC000FC8F0F680BFA02F6374200F09780D1F8DB
:100DD0000480032303FA0AF708F0030CFF43ACF185
:100DE000010EBEF1010F0ED88468CD683C4005FAB3
:100DF0000AF52C438460C8F3001445689440B54359
:100E00002C43446005E0BCF1030F02D14FF0030C0A
:100E100020E0C4688D683C4005FA0AF52C43BCF11B
:100E2000020FC46016D109F01C0E0F2303FA0EFC4A
:100E30006FF0030303EA520505442C6A24EA0C0C04
:100E40000C6904FA0EF444EA0C042C62D1F8048014
:100E500008F0030C05680CFA0AF43D402C4318F422
:100E6000403F04604AD0002322F0030701932A4B3D
:100E70001C6844F480441C601C680F2304F4804404
:100E8000019409F00C0403FA04FC214B019D9E46D9
:100E90001F44224BFD589846009B25EA0C0503FA97
:100EA00004F42C4347F80840DEF808404F68FB0282
:100EB00044EA0605174B58BF24EA0605CEF8085049
:100EC000BD029C461B6843EA060458BF23EA060499
:100ED000CCF80040BD03DEF8043043EA060458BFF6
:100EE00023EA0604CEF80440FD03DEF8003043EAAE
:100EF000060458BF23EA0604CEF8004009F10409AD
:100F00000AF1020A013258E7001C02400000FEBF4D
:100F1000003C01400C3C01404438024008FCFFFF0B
:100F2000426902EA0103914341EA0341816170474A
:100F3000002A08BF09048161704700000548006865
:100F4000704700BF1F48034900780A6810440860D2
:100F5000704700BFB803002080B50B48016841F41A
:100F600000710160016841F480610160016841F431
:100F700080710160032000F093F8002000F006F873
:100F800000F022F8002080BD003C024070B50D4EFC
:100F900004464FF47A713078B1FBF0F09749096854
:100FA000B1FBF0F000F0F2FA01250F2C08D838B9A7
:100FB0004FF0FF3021460022002500F04BF874600E
:100FC000284670BD0000002082B000200C4901902E
:100FD0004A6842F480424A604A6802F480420192C0
:100FE000019A0090086840F080500860086800F09E
:100FF000805000900098072002B000F051B800BF68
:101000004038024000280FD400F01F010122C0B276
:1010100002FA01F1054A42EAD00020F00300016023
:10102000BFF34F8FBFF36F8F704700BF80E100E0C9
:1010300000280BD400F01F010122C0B202FA01F116
:10104000034A42EAD00020F003000160704700BF6D
:1010500000E100E0F0B5184B4FF0FF361C68C4F318
:101060000224E51E84F0070438BF002506FA05F7C0
:10107000BA43042C28BF042406FA04F4A14300F068
:101080000F04A940043C1143044A234409010244CB
:10109000002848BF03F10C021170F0BD00E400E02D
:1010A00005494FF6FF030A681A4060F30A22034815
:1010B00010430860704700BF0CED00E00000FA0527
:1010C0002DE9F041002857D03F4B04468846D3F81D
:1010D000000400F00700884204D283F8008401F085
:1010E00039F849D12068810711D5410703D599689E
:1010F00041F4E0519960010703D5996841F46041DA
:101100009960A1689A6822F0F00211439960C007C3
:101110002BD101F01FF804D983F8008401F01AF8EC
:101120002AD12068410705D5E1689A6822F4E05287
:1011300011439960000706D52069996821F4604140
:1011400041EAC00098601C4600F05EF8A1681F4AA2
:10115000C1F30311515CC840284908601C4800686D
:10116000FFF714FF0020BDE8F0816068811E0229AE
:1011700005D21968890107D40120BDE8F081012852
:101180001DD119688903F7D599681D4621F003011F
:1011900008439860FFF7D2FE064641F28837606840
:1011A000A9682B4601F00C01B1EB800FB1D0FFF71D
:1011B000C5FE801BB842F2D90320BDE8F081196852
:1011C0008907D9D5E0E700BF003802402240000877
:1011D0000400002009480A490A4A00680968C1F366
:1011E0008221515CC840704704480549054A00689F
:1011F0000968C1F34231515CC840704708000020C3
:10120000083802403240000810B5134C606800F006
:101210000C011248082903D004291CD1104810BD24
:101220002168236801F03F0221685B02C1F3881145
:1012300005D4A1FB00010023FFF716F803E00848DE
:101240004843B0FBF2F021680222C1F3014102EBF6
:101250004101B0FBF1F010BD043802400024F4005D
:1012600000127A002DE9FC41002860D00446007885
:10127000C34EC0070BD0B06800F00C00042840F04B
:101280008F803068800302D5606800284FD02078B6
:10129000800718D5B06810F00C0F07D001F011F8D6
:1012A00040F096807068400200F1928030688007BC
:1012B00002D5E06801283AD12069316821F0F801AF
:1012C00041EAC00030602078000733D4207840071E
:1012D00043D4A76947B300F0F4FF40F0AA80012F80
:1012E00025D0E169706800F480028A421FD1216A2A
:1012F00000F03F028A421AD147F6C071626A01408B
:10130000B1EB821F13D1A16A4FF6FF72C90391435B
:1013100000F44032A1F580318A4208D1E16A00F040
:101320007060B0EB016F02D10020BDE8FC810120AC
:10133000BDE8FC816169934800296AD00121C0F8A9
:10134000801EFFF7FBFD0546706F8007BED4FFF7D8
:10135000F5FD401B0228F7D9C9E0306C10F0805829
:101360000AD100200190306C40F080503064306C25
:1013700000F0805001900198834F3868C0053AD43E
:10138000386840F480703860FFF7D8FD054638684B
:10139000C00530D4FFF7D2FD401B0228F7D9A6E0E4
:1013A00000F08FFF03D1706840023FF56AAF6068BC
:1013B000B0F5803F07D0B0F5A02F40F082803068B4
:1013C00040F480203060306840F48030306082E04B
:1013D000E06800284CD06B4801210160FFF7AEFDAA
:1013E0000546306880073FF567AFFFF7A7FD401B54
:1013F0000228F6D97BE0A068012805D0052848D14D
:10140000306F40F004003067306F40F0010030670B
:1014100049E00021C0F8801EFFF790FD0546706F7F
:1014200080077FF553AFFFF789FD401B0228F6D9EF
:101430005DE05449002088460866FFF77FFD0546B9
:10144000022F0AD147463068800153D5FFF776FD59
:10145000411B03200229F6D967E7306880017FF538
:1014600063AFFFF76BFD411B03200229F5D95CE751
:10147000444800210160FFF761FD054630688007A0
:101480007FF521AFFFF75AFD411B03200229F5D953
:101490004BE7316F002821F001013167316F21F0F6
:1014A0000401316745D0FFF749FD054641F2883711
:1014B000306F80074CD4FFF741FD401BB842F7D98D
:1014C00015E03168002821F480313160316821F461
:1014D0008021316045D0FFF731FD0546306880033B
:1014E0003FF5D5AEFFF72AFD401B6428F6D903204F
:1014F000BDE8FC811C341FCC0843D90340EA8210AC
:101500004FF6FF72914340EA0460A1F58031084331
:10151000706001203866FFF711FD044630688001D5
:101520003FF502AFFFF70AFD011B03200229F5D9A1
:10153000FBE6FFF703FD054641F28837306F800771
:1015400006D5FFF7FBFC411B0320B942F6D9ECE6B8
:10155000B8F1000F7FF4BDAE306C20F080503064E5
:10156000B7E6FFF7EBFC0546306880037FF58FAEEA
:10157000FFF7E4FC411B03206429F5D9D5E600BF41
:10158000003802400000474200700040411E002029
:10159000B0EB116F1CBF01207047044AF02351606B
:1015A00003490B70072190601160704710E000E064
:1015B00023ED00E010B590F83C300222012B2CD036
:1015C00080F83D2002680B68546824F070041C43C6
:1015D0009368B2F1804F546014D09C4CA24211D059
:1015E0009B4CA2420ED09B4CA2420BD09A4CA242E2
:1015F00008D09A4CA24205D0994CA24202D0994CF4
:10160000A24204D1496823F080031943916000226B
:10161000012180F83C2080F83D10104610BD00BF2D
:10162000F8B500F005FF04BF0220F8BD00F0BAFED7
:1016300067D8DFE801F002101F3ED5E90012EB6821
:10164000206801F037F8206850F8181F21F00C01CD
:101650000160A96851E0D5E90012EB68206801F04B
:1016600079F8206850F8181F21F440610160A968DA
:10167000090242E02268136A106A20F4807023F4A1
:1016800020631062D5E90067D5E9021060F30717FF
:10169000104650F81C5F25F0F3053D43056006F049
:1016A0000A0543EA05231362026822F00C02026075
:1016B00023E021684FF2FF070A6A086A20F480508D
:1016C00022F420420862D5E90030D5E90265000223
:1016D00003F00A0320EA0707084642EA033265F3EB
:1016E0000F3750F81C5F25F473453D4305600A62CF
:1016F000016821F440610160310202681143016018
:101700000020002184F83C10F8BD58B110B500F05D
:1017100044FE03D100F0F5FD00F006F800F09BFE5A
:1017200000F067BD0120704710B586B0044601A8DF
:101730001421FEF711FE20684549884210D0434924
:10174000884224D10020134900900A6942F0020225
:101750000A610A6902F0020200F021FD10200CE08B
:1017600000200C4900900A6942F004020A610A69EB
:1017700002F0040200F013FD8020022100220591F6
:10178000049201AB07C3044801A9FFF7FFFA06B0B2
:1017900010BD00BF303802400004024010B50446BE
:1017A00061B108290FD0042919BF04F1450004F1E3
:1017B000410204F1430004F13F0208E004F1420059
:1017C00004F13E0203E004F1440004F14002137806
:1017D00002780120012B08BF012A00D010BD022091
:1017E00061B108290DD0042919BF84F8410084F89B
:1017F000450084F83F0084F8430004E000F005FE53
:1018000001E000F076FD206800F041FD00F0B3FD3E
:1018100014D00E49884211D00D4988420ED00D498E
:1018200088420BD00C49884208D00C49884205D028
:101830000B49884202D00B49884202D100F014FDC6
:1018400001D000F002FD002010BD00BF00040040E8
:1018500000080040000C004000180040000001405B
:1018600000400140000401404FEAB101032984BF58
:1018700000207047DFE801F0020B050800683430F3
:1018800007E000683C3004E00068403001E0006898
:10189000383000687047B0B500F079FD10D000F026
:1018A0006EFD00284FF0010005D12068C16821F0CD
:1018B000400100F09BFD002184F83C1084F83D506D
:1018C000B0BD7047B8B110B50446242084F841007B
:1018D0002068C16821F40051C160204600F046F93B
:1018E0000020606484F8410084F84200206384F89A
:1018F0004000606310BD0120704770477CB504460E
:1019000000680268C168456913073FD001F490760A
:1019100005F0010576193DD0D60705D0CE0503D5D3
:10192000666C46F001066664560704D51DB1666C08
:1019300046F002066664960704D51DB1666C46F053
:1019400004066664002B07D501F020035B1903D061
:10195000636C43F008036364636C002B00F0E58064
:10196000920605D5890603D5204600F0CCFF2068F5
:101970004069616C00F0400001F00801401847D157
:101980002046FFF7BAFF00206064CEE0930601D541
:101990008B0653D4236B012B03D1D30601D5CB0681
:1019A00051D4130601D50B0611D4520640F1BD8067
:1019B000490640F1BA80C16821F04001C160202091
:1019C00084F841002046BDE87C4000F0BBB994F8A3
:1019D0004110212940F0A980A168B1F5805F03D1B1
:1019E0002169002900F0A280216A4A1C226209783C
:1019F0004160E18C0139E184090440F09680C168BE
:101A000021F08001C160C16841F04001C1607CBD2E
:101A100000F074FC00F03EFC49D500F0A8FBFCD1BE
:101A2000E06B002843D045490165FEF79AFF002886
:101A30007BD0E06B016DBDE87C4008472046BDE8E7
:101A40007C4000F060BF0021019101680191416874
:101A500001910199406940062ED4E08DA18DE28D5F
:101A6000002A62D0814260D0081A00F002FC21F402
:101A7000907142E80313002BF7D1216851E8051F4C
:101A8000226821F0010142E80513002BF5D1202145
:101A900084F842100021216300F0EBFB21F01001DB
:101AA00042E80313002BF7D1022161632EE02046A8
:101AB000BDE87C40FFF721BFE06BA28D01684B6859
:101AC00099B249B3914227D2E385C069B0F5807FCE
:101AD00017D000F009FC20F4807000F083FCF8D1EE
:101AE00000F0F8FBFCD100F042FBFCD1202084F890
:101AF00042000020206300F01EFCFCD1E06BFEF7EA
:101B0000F3FE02206063A08DE18D401A81B2204671
:101B1000BDE87C40FFF7D5BE8A4206D1C069B0F56A
:101B2000807F02D102206063F1E77CBD216A31F839
:101B3000022B6FF35F22216242605AE78727000879
:101B400090B110B5044690F8410008B900F079FC56
:101B500000F006FC2068016921F4904101614169AF
:101B600021F02A0100F056BC0120704710B5044650
:101B700001687848814218BF10BD0A4900F57440D9
:101B80000A6822F020020A60C021FFF793F8E06B98
:101B9000FEF7F9FEA06BFEF7F6FE4720BDE8104009
:101BA000FFF730BA443802402DE9F04387B00446CD
:101BB0000168684881425BD10026FB4900F574400A
:101BC00002964A6942F020024A614A6902F0200204
:101BD0000292029A01960A6842F004020A600968B9
:101BE00001F004010191082106910321CDE904616E
:101BF00002210391C0210291019902A9FFF7C6F8C1
:101C00001D4D1E4F4FF480684FF02069142105F1DF
:101C10001400C5E90079C5E90266C5F81080FEF731
:101C20009BFB2846FEF788FF08B1FEF752FCAC6329
:101C3000E563134D07F178014020C5E9001905F16E
:101C4000080181E8410105F114001421FEF784FB2D
:101C50002846FEF771FF08B1FEF73BFC4720002144
:101C60000022AC63A563FFF7F5F94720FFF7E0F921
:101C700007B0BDE8F08300BF2002002028640240C6
:101C80008002002090F84230202B1CBF02207047B9
:101C900021B11AB10023036300F0F8BE01207047A0
:101CA00010B500682B49884218BF10BD054800F1E7
:101CB00008042046FEF7EAFB20460121BDE810405B
:101CC000FEF7FCBBEC0000207047000070B5044636
:101CD00090F8410020281CBF022070BDD9B11346E6
:101CE000CAB10022E384144E6264A3842162A06B13
:101CF0002568C0E91362114A114EC0E90F62212222
:101D000084F841202A1DFEF797FF30B1102060644F
:101D1000202084F84100012070BD20686FF0400150
:101D2000016000F0AFFA40F0800041E80502002AAF
:101D3000F7D1002070BD00BF91270008A32800083C
:101D4000672800080068EA49884218BF70470120E8
:101D5000FEF7B8BB001401407047FEE7BFB513485B
:101D6000144B134A002401254FF480310394C462BC
:101D700080F820400576836280F83040C561C0E974
:101D80000021C0E90244C0E90444FEF72BFC08B17D
:101D9000FEF79FFB054869460294CDE90055FEF722
:101DA0009BFB08B1FEF795FBBFBD00BFD80100202B
:101DB000002001400100000FE0B50020002201904A
:101DC0007948016841F4800101600021006800F455
:101DD0008000019001983920FFF73CF93920FFF786
:101DE00027F9452000210022FFF734F94520BDE8FE
:101DF0008C40FFF71DB900BF2DE9F04F89B00024DA
:101E000069486A4F6A4D00224FF0080A089403940B
:101E1000016807F5805641F010010160016801F08A
:101E2000100100F077F941F004010160016801F050
:101E3000040100F06FF941F080010160016801F0D8
:101E4000800100F067F941F001010160016801F0D3
:101E5000010100F05FF941F002010160016801F049
:101E6000020100F057F941F0080101600821006803
:101E700000F008000390039802963046A84707F543
:101E8000006B012101224FF001085846A84707F5D1
:101E900040604FF2100100220190A84758464FF4CD
:101EA00000710022A847CDE90644CDE904A804AD9D
:101EB000404F30464FF008092946B84740F201200C
:101EC0002946CDE9058407944FF00108049058464F
:101ED000B84705264FF0020A58462946CDE9064480
:101EE0000896CDE9049AB8474FF490102946069415
:101EF000CDE904802D488146B847062000F049F915
:101F0000102004904846B847E02000F0C7F9484642
:101F1000B847042009F5806800F0F8F94046B84752
:101F20004FF4806000F0BAF94046B8470120019EA6
:101F30002946CDE9064405904FF210000490304642
:101F4000B8474FF4007000F0E1F94846B8470A205E
:101F500000F01FF94FF4E05004904846B8470620BF
:101F600000F017F94FF4A05004905846B8472020CD
:101F700000F0CCF93046B84704202946CDE90740A7
:101F800001200690122005904FF4107004904046F6
:101F9000B8474FF4901029460694CDE904A0029862
:101FA000B84709B0BDE8F08F303802400000024069
:101FB000310F00088D0D0008B0B58CB01C481D4BCA
:101FC00000F0ADF808B1FEF784FA50200125CDE904
:101FD0000944089004200B950790154807A9FFF7BE
:101FE0005AFC08B1FEF775FA00200695002205900C
:101FF000CDE903050E4803A9FFF712FB08B1FEF770
:1020000068FA02200422CDE90300094803A9FFF77A
:1020100007FB08B1FEF75DFA00206946CDE9000034
:102020000348FFF7C7FA08B1FEF753FA0CB0B0BD8A
:10203000E002002000040040B0B58CB01D481E4BEB
:1020400000F06DF808B1FEF744FA60200125089011
:102050000420CDE90A45022407901648099407A9EF
:10206000FFF719FC08B1FEF734FA002006950022AC
:102070000590CDE903040F4803A9FFF7D1FA08B191
:10208000FEF727FA01200422049002200390094859
:1020900003A9FFF7C5FA08B1FEF71BFA002069464D
:1020A000CDE900000348FFF785FA08B1FEF711FA01
:1020B0000CB0B0BD280300200008004010B50A484D
:1020C0000A4B0B4C00210C22C0E90043C0E902116D
:1020D000C0E90412C0E90611FFF732FD18B1BDE8EE
:1020E0001040FEF7F6B910BD7003002020AA44008E
:1020F00000140140FEE7FEE79BED160A01EE100A10
:10210000B8EE411AB8EE400A31EE000A10EE100A9D
:1021100001F004BF03910399039401687047002400
:102120004EF65F210522CDE90544CDE90344CDE912
:1021300000448461C0E90032C0E902410461FFF754
:10214000E4BA40F20174A34303F580730364536857
:102150005B057047D3F8000400F007004045704766
:10216000002084F83400012084F83500704720688E
:1021700050E8050F216820F0400041E80502002AE0
:102180007047CBF85800CBF8601038460221FEF7B4
:10219000F7BA2946CDE905A4CDE90740704700927A
:1021A000009A0090086840F002000860086800F09B
:1021B00002000090009870470B228DF80F10010C60
:1021C000000A8DF80D0006208DF80E1003210090F6
:1021D000204600F03FBD002084F83C00206C40F019
:1021E0000400206403207047016821F001010160B0
:1021F0007047012084F8460084F83E0084F83F00D0
:1022000084F8400084F8410084F8420084F84300D8
:1022100084F8440084F8450084F83D00002010BD97
:1022200053EC102B01F022BA016851E8051F026837
:1022300021F0010142E80513002B704794F8560085
:1022400094F8571040EA01207047016841F00101FD
:1022500001607047016851E8031F026821F0100116
:1022600042E80313002B7047816801F0070106293B
:102270007047216851E8031F2268704753EC102B08
:1022800001F0D0BB206850E8050F2168704701229B
:1022900000F0AAB920684069400670472946CDE998
:1022A0000746CDE905A404907047204600F0D2BC53
:1022B0000268012180F83C10114651F8083FDB0705
:1022C0007047B06800F00C0008287047002084F8C0
:1022D00034007047206850E8050F216820F00100A5
:1022E00041E80502002A7047206850E8030F216882
:1022F000704784F8400084F844007047204600F09E
:10230000D3BA002084F83C00204670472946CDE926
:1023100005440490704710EE100A01F0FFBD43F031
:102320001001016400F1440101207047044690F857
:10233000340001287047206850E8030F216820F01E
:10234000100041E80302002A704702210F22019089
:10235000042000907047206C40F00100206470471A
:10236000242084F841002068C16821F40051C16034
:10237000204600F027BB2068B0F1804F704784F8FA
:102380003D000125204684F83C5000F03DB990F80E
:102390003C2004460220012A7047044690F83D0084
:1023A000002870470D4601204FEAB201032984F846
:1023B0003C00704794F8560094F8571040EA01200A
:1023C00094F8581040EA014094F8591040EA01602E
:1023D00000EE100A7047206C20F480702064206C9E
:1023E000C004704741E80302002A7047C160C16819
:1023F00021F48041C160002070470B22ADF8051028
:1024000003210091032100F025BC84F83E0084F8EC
:10241000420070474161C16841F40051C160002031
:102420002021606484F8411084F84210606310BD7C
:10243000044690F83C000128704701900420009069
:102440007047002084F840002046FFF7ADBB51ECF8
:10245000100B01F065BA0220211D84F83D002068B0
:1024600000F060B841EC100B00F0AABF7047704755
:10247000FEF768BDB0B592B000241421CDE90A443E
:10248000CDE9084401A8FDF767FF20480094022524
:10249000016841F080510160006800F080500090B8
:1024A000009800941A48016841F480410160006876
:1024B00000F4804000900720109511904FF4A87010
:1024C0000F9008200E904FF48000CDE90C504FF48F
:1024D0008030079001200690009806A8FEF7C2FE03
:1024E00008B172B6FEE74FF48050CDE902540521E1
:1024F00005904FF4A05004900F20019001A8FEF722
:10250000DFFD08B172B6FEE712B0B0BD4038024040
:10251000007000400248016841F47001016070479A
:1025200088ED00E070B57F4B0268984234D0B0F17E
:10253000804F0BD0774CA04208D0774CA04205D0FA
:102540007A4CA04202D0754CA04203D14C6822F0D4
:1025500070022243B0F1804F22D06E4CA0421FD0B7
:102560006D4CA0421CD06D4CA04219D06C4CA042C6
:1025700016D0194CA04213D0184CA04210D06B4C6E
:10258000A0420DD0684CA0420AD0154CA04207D002
:10259000144CA04204D007E04C6822F070022243A1
:1025A000CC6822F4407222430D688E684C699842D0
:1025B000C662856203D003F58063984201D1096940
:1025C0000163016841F0040101600121416122F0D1
:1025D00080012143016070BD001C004000200040CC
:1025E000004801400044014010B501F01F010123E3
:1025F000046A8B4002FA01F124EA03030362026ACF
:102600001143016210BD0000B0B50068D1E900328D
:10261000856822F0070425F077052C431C4384606D
:102620004FEA3214072C08D80022DFE804F02F2FDD
:102630002F2F04080E14052B1AD1012226E08B68D7
:102640000A69194600F024F81FE08B680A691946E8
:1026500000F06EF819E0D1E9022309691A4342EA51
:102660000121826822F47F421143002281600DE043
:10267000026A036A23F0010303620969836923F094
:10268000F00343EA01118161026200221046B0BDED
:1026900010B5036A046A24F001040462846924F01A
:1026A000F00444EA0212826123F00A02114301623B
:1026B00010BD000070B5046A056AB0F1804F25F0C6
:1026C00001050562856914D0124EB04211D0124E38
:1026D000B0420ED0114EB0420BD0114EB04208D0D5
:1026E000104EB04205D0104EB04202D00F4EB04254
:1026F0000CD125F003052A4363F3071201F00A0108
:10270000826124F00A021144016270BD45F00102A9
:10271000F2E700BF0004004000080040000C004049
:10272000001800400000014000400140000401404A
:1027300010B5036A046A24F010040462846924F466
:10274000704444EA0232826123F0A00242EA01119D
:10275000016210BDB0B5046A056A120201F00A01F7
:1027600025F0100505624FF2FF05AA4363F30F320F
:10277000836923F473431A43826124F0A00242EA7E
:1027800001110162B0BD806B0021C185FFF7B5B8B2
:1027900010B5846B2068416994F84120212A08D142
:1027A00011F0800105D00020E084204600F09DF863
:1027B0002068406994F84210222906D110F04000A8
:1027C00003D00020E085FFF799FD606C40F0100019
:1027D00060642046BDE81040FFF78FB80168806B49
:1027E0000968C90529D40021C185016851E8031F82
:1027F000026821F4807142E80313002BF5D14DF8F3
:1028000008EDFFF711FD5DF808EBF8D1016851E81C
:10281000051F026821F0400142E80513002BF5D1A5
:10282000202180F84210016B012906D14DF808EDF6
:10283000FFF710FD5DF808EBF8D100214163016B53
:10284000012918BFFFF72CBA818DFFF73AB8806BCA
:1028500001214163016B012918BFFFF735BA818D52
:102860004908FFF72EB80168806B0968C90548BFA1
:10287000FFF768BA0021C184016851E8051F0268AA
:1028800021F0800142E80513002BF5D1016851E8E1
:10289000031F026841F0400142E80313002BF5D109
:1028A0007047806BFFF758BA016851E8031F026850
:1028B00021F4907142E80313002BF5D14DF808ED97
:1028C000FFF7B2FC5DF808EBF8D1016B012906D1E6
:1028D0004DF808EDFFF7BEFC5DF808EBF8D12021BC
:1028E00080F84210002101637047016851E8031F1E
:1028F000026821F0C00142E80313002BF5D120212A
:1029000080F84110704781B090F84210222920D100
:1029100083680246B3F5805F08D152F8281F52F849
:10292000183C002B43D003685B6809E052F8281F6D
:1029300013B90369002BF6D003685B6803F07F03CB
:102940000B70116801311160C18D0139C185090415
:1029500001D001B070470168CA6822F02002CA6045
:10296000CA6822F48072CA604A6922F001024A6190
:10297000202180F8421000214163026B012A1ED100
:1029800001634DF808EDFFF765FC5DF808EBF8D141
:1029900001680A68D20606D5002200920A680092F1
:1029A000496800910099818D01B0FEF78ABF0268E5
:1029B00052686FF35F2221F8022B8162C4E701B0F5
:1029C000FFF76EB9B0B50446006804F108030ECBFA
:1029D000056925F4405519432A4349F20C65026103
:1029E000C26863691943E369AA4319431143C1608B
:1029F0004169A26921F4407111434161214940F4C8
:102A00008060884202D1FEF7EFFB01E0FEF7E2FBB7
:102A1000E26919216368A0FB0101B2F5004F17D1EB
:102A20005A00DB0FFDF720FC174B6421B0FBF1F2DD
:102A300003F1805302FB0300322303EBC000B0FB21
:102A4000F1F04FF4F87101EA400100F0070012E0E4
:102A50009A009B0FFDF708FC64210B4BB0FBF1F2D1
:102A600002FB0300322303EB0010B0FBF1F000F097
:102A7000F00100F00F0001EB0211084421688860AA
:102A8000B0BD00BF001401409CFFFF0FF8B5134616
:102A9000002504461E4E0A461F4F45648385816209
:102AA000222084F84200E06B2168C0E91365194ECA
:102AB0000431C0E90F76FEF7BFF830B11020606432
:102AC000202084F842000120F8BD009520680168AC
:102AD0000091406800900098206930B1FFF704FC35
:102AE00040F48070FFF77EFCF8D1FFF7CBFB40F09D
:102AF000010041E80502002AF7D1FFF7C3FB40F0CF
:102B0000400041E80502002AF7D10020F8BD00BFCF
:102B1000912700084F280008DD2700080148FEF72C
:102B2000EDBE00BF70030020FEE7F8B50646044680
:102B300016F83A0FFF283FD194F83B00FF283BD10D
:102B400094F83C00FD2837D194F83E00217A884261
:102B500032D194F83F00314600250530C7B200203D
:102B60003A4600F017FC84F86000000A84F861001F
:102B7000F05D94F8601088421FD1B819407894F83D
:102B80006110884218D194F83E0084F8530094F8FC
:102B90003F0084F8540094F8420084F85500002067
:102BA00094F854100439884209DA2118013091F858
:102BB000432081F85620F3E700252846F8BD01257B
:102BC000FBE70000D44A3A3000210023192B08BF4C
:102BD0007047C154D1540133F8E700BF04490020C5
:102BE0000022642A08BF704788540132F9E700BF09
:102BF0007101002084B01348B7EE003A009011A094
:102C0000D0E90112C068CDE90112039004206946A1
:102C1000102806D00A1823EE003A043082ED003A5C
:102C2000F6E79DED023A9DED034A9DED010A23EE84
:102C3000011A00EE841A01EE801A31EE020A04B085
:102C4000704700BF0000803F0000803F0000803FD1
:102C50000000803F2DE9F84F05460A981B4F984623
:102C60005FFA81F940F2DD5B94B25FFA80FA686B3B
:102C7000298F0122FEF75CF900204A46534638703E
:102C8000286B297ACDF8008000F022FBFEF756F978
:102C90000646387830B9FEF751F9801B5845F8D30D
:102CA000FF202860686B298F0022FEF741F9284633
:102CB000214600F00FF92868FF2804D02846FFF7C6
:102CC00034FF0028D3D0BDE8F88F00BFD501002025
:102CD0002DE9F84F2DED067B6F4C704D00212046FD
:102CE000A847DFF8BC810421C8F800002046A847A7
:102CF0006C4CC8F8040000212046A847C8F80C0016
:102D000020460421A847C8F8080041F2170140F600
:102D1000D4339FED651A9FED652AD8F80400D8F8E2
:102D2000002000FB01100132B0FBF2F0A0F1100214
:102D3000181AD8F80C3000EE100A03FB0111D8F86D
:102D40000830B8EEC00A98ED0E3A98ED0F8A20EEE2
:102D5000010A013320EE020AB1FBF3F140F65313EE
:102D600088ED080A88ED0E0A30EE030A5B1A103966
:102D700004EE103AC8E9060310EE100AC8E904216F
:102D8000B8EEC44A24EE011A21EE029A88ED099A9F
:102D900088ED0F9A01F0C2F89FED390B53EC109BB0
:102DA0004A46019300F03EFE9FED370B57EC105B57
:102DB0002A463B4600F036FE0646D8F840000C4650
:102DC00001F0ACF89FED320B5AEC10BB5A4653465B
:102DD00000F028FE3246234600F094FB00F060FB32
:102DE00039EE080A0646C8F84000C8F8280010EE78
:102DF000100A01F093F8019B4A4600F013FE2A46A0
:102E00003B4600F00FFE2A4F04460D46786801F05D
:102E100085F85A46534600F005FE22462B4600F040
:102E200071FB00F03DFB08EE106ADFED220A9FED1A
:102E3000221ADFED221A9FED222A0446C8F82C0040
:102E40007860B0EE480AFFF7D5FE30EE089A08EE3B
:102E5000104ADFED1C0A9FED1C1ADFED1C1A9FEDD6
:102E60001C2AB0EE480AFFF7C5FE30EE080A88EDCE
:102E70000D9A88ED0C0ABDEC067B01B0BDE8F08F21
:102E8000989999999999C93F000000000000E03F86
:102E90009A9999999999E93FE002002069180008E8
:102EA00070000020280300200000B4430000803997
:102EB000EC0000203DC306B5A86B54B940A4DF3C2C
:102EC0003480B7BA1DA23837E02D90BAC070D73819
:102ED00055C1283DB0B5044600200D4684F8620077
:102EE0002046FFF76FFE206B0B492A46FEF7CAFE0D
:102EF000FEF724F8054694F8620038B9FEF71EF88C
:102F0000401BB0F57A7FF6D9FF20206094F862006C
:102F100008B101202060B0BD580100201CB5044656
:102F2000054802210D22FFF788FA01ABFFF7BDF932
:102F3000FFF784F920831CBD260002001CB504465F
:102F4000054802210C22FFF778FA01ABFFF7ADF933
:102F500094F8560060721CBD0B00010000000000D8
:102F60001CB504460E4802210D22FFF766FA01AB9C
:102F7000FFF79BF9FFF762F9A08200B200F0FFFCB7
:102F80009FED050BFFF77AF900F08AFA00EE100AC0
:102F90001CBD00BF00BF00BF85EB51B81E850540BA
:102FA0007E000200000000001CB504460C48FFF73C
:102FB000CCF901ABFFF779F9FFF7FCF92061B8EE26
:102FC000C00AFFF7A8F99FED040BFFF757F900F0CF
:102FD00067FA00EE100A1CBD9535A094FF7FB63F3E
:102FE00084000400000000001CB504460C48FFF7F4
:102FF000ACF901ABFFF759F9FFF7DCF9E061B8EE86
:10300000C00AFFF788F99FED040BFFF737F900F0CE
:1030100047FA00EE100A1CBD1D5A643BDF4FCD3F3E
:10302000800004000000000088B0FDF795FFFFF766
:1030300021FAFEF7E1FEFEF7BFFEFFF73FF8FEF7CD
:10304000BBFFFEF7F9FFFEF789FE954C954D002179
:1030500000262046A84720460421A847924C00217C
:103060002046A84720460421A847904D904F4FF492
:103070000070904B0221009005F108043A4620466A
:10308000FDF716FA3846FEF71DFC8B487860384687
:10309000FEF756FD08B172B6FEE76420FDF7FAFDB3
:1030A000864F3846FDF7B2FBDFF814B24FF47A7062
:1030B000CBF80060CBF80460CBF80860CBE914666D
:1030C000CBE91666CBE91866CBE90C66CBE90E6650
:1030D000CBE91066CBE91266CBE90466CBE906665C
:1030E000CBE90866CBE90A66CBF80C60FDF7D2FDA8
:1030F00038460221FDF744FB10B1DBF8540004E030
:103100006E48FDF76BFACBF8540000EE100AB8EEEB
:10311000400A8BED170AFDF711FF9FED5B0B029044
:103120000120664F40F6B739CBF8640051EC100B24
:103130009FED570BBA46CDE9061051EC100B9FEDF1
:10314000560BCDE9041050EC106B0390FDF7F6FE22
:103150000299401A48452CD8DBF85400DBF85C1083
:10316000FFF70FF810B1DBF8540004E03846FDF724
:1031700035FACBF85400FEF7BFFFDDE9063200F068
:1031800051FCDDE9043200F04DFC8046DBF86000C4
:103190000F4600F0C3FE039B324600F043FC42465C
:1031A0003B4600F0AFF900F07BF9CBF85C005746E6
:1031B000CCE70020CBF86400C820FDF76BFD20466B
:1031C000012100F0D5F82046FFF7A8FE2046FFF7C2
:1031D000B5FE2046012100F0D4F83A483A493B4A6E
:1031E000364FBDEE000ACBF870003248CBE91A2109
:1031F00000F58068204600F09FF8FFF769FD204643
:10320000FFF7D2FE20468BED1D0AFFF7A9FE2046F0
:103210008BED1E0AFFF7E8FEDBF85400DBF85C10CC
:1032200085ED000AFEF7ADFF10B1DBF8540004E0B5
:103230003846FDF7D3F9CBF85400FEF75DFFDDE922
:10324000063200F0EFFBDDE9043200F0EBFB8146D3
:10325000DBF860008A4600F061FE039B324600F016
:10326000E1FB4A46534600F04DF900F019F9CBF85E
:103270005C0040464FF40051FDF752FE9BED1C0AE6
:103280000A4DB7E700BF00BF8014AE47E17A843F24
:10329000000000000000E03FAE47E17A14AEEF3FCF
:1032A000E00200209D17000828030020EC00002009
:1032B000700300200008024020AA4400D80100202A
:1032C00070000020000080BE0000A7430000FA4309
:1032D0002DE9F0411C4617460D468046FFF77EFC5F
:1032E000144EFF20E11C30707070FD20B070002083
:1032F000F070357171710699B071F771844204D024
:103300000A5C331801301A72F8E770793146421DB1
:10331000002000F03FF80546A01904F10A02290A2E
:103320000572417240463146FEF7D0FC2846BDE8A2
:10333000F08100BF710100201FB504466820ADF880
:103340000A00FEF7E8FF9FED080BFEF769FFFFF7A5
:1033500089F8FFF77CF8010E8DF80C000DF10A03D7
:10336000FEF72AFF1FBD00BF1D5A643BDF4FCD3F54
:10337000E0B58DF807100B210DF10503FFF73DF8BF
:103380008CBDE0B58DF8071040210DF10503FFF766
:1033900034F88CBD70B5084C0023934224BF80B232
:1033A00070BD11F8016B85B2013386EA152534F83A
:1033B000155085EA0020F0E73A40000800000000C0
:1033C00010B52DED020B2DED088B84B09DED0C0B8F
:1033D00051EC100B00F05AFC41EC180B9DED0C0B5E
:1033E00053EC182B51EC100B00F0AAFC41EC190B1C
:1033F0000D989FED290B10F0004F53EC102B51EC62
:10340000190B9FED21AB9FED22BB0ED000F0CEFA41
:103410000ED953EC1B2B51EC190B00F001FC1CD204
:1034200014E000BF41EC180B17E000F0BFFA06D221
:1034300053EC1A2B51EC180B00F082FCF2E753EC22
:103440001B2B51EC190B00F0EBFB06D853EC1A2B9D
:1034500051EC180B00F056F8E4E78DED028B9DED72
:103460000C0B18EE901A10EE900A8DED000B61F324
:103470001E0003909DED020B04B0BDEC088B02B062
:1034800010BD000000000000000000000000F03F40
:10349000000000000000E03F000000000000E0BF6E
:1034A00021F0004201F00043A2F16052B2F5801F0A
:1034B00028BFD2F17F6C0BD95FEA001C43EAC2023D
:1034C00042EB507018BF704728BF20F001007047D2
:1034D000B2F5801FBCBF184670474FEA410C1CF57F
:1034E000001F02D2084600F097BD70B500F044FB03
:1034F00000000089FFF7F6BF4FF00040A0F5800004
:103500007047000010B591EA030F48BF83F00043F5
:1035100000F11E84841A71EB030C05D2121943EBDF
:103520000C03001B61EB0C014FEA1154A4EB135C7C
:10353000DFF81CE11EEA430F18BF9EEA445F00F06B
:10354000748021EA045123EA0E0343F48013DCF172
:10355000200E32D322FA0CFE10EB0E0023FA0CFEE2
:1035600041EB0E01CCF1200E03FA0EFE10EB0E0023
:10357000CCF1200E51F10001B1F5801F32D201EBE8
:10358000045112FA0EF2BDE8104058BF7047401CBB
:1035900038BF5FEA420218BF7047002814BF20F00E
:1035A000010041F100014FEA410313F5001F38BF4C
:1035B0007047A1F1C04100F02DBB012A43EB03028B
:1035C000ACF1200CDCF11F0E32BF4FF0000E23FADD
:1035D0000CF310EB030041EB0451B4EB115FD0D0BE
:1035E000A1EB045101F58011490801EB04515FEA98
:1035F00030000ED350F1000038BF12FA0EFE08D191
:10360000BDE81040C9E7401C38BF5FEA4202CAD19A
:10361000C3E7BDE810404FEA410313F5001F38BF70
:103620007047A1F1C04100F0F5BA9EEA445F08D0AE
:1036300011EA5E0FBDE8104004BF01F00041002018
:103640007047BDE8104070B500F096FA64FBBE3ECE
:103650000000E0FF491058BFC1F140415B1058BF66
:10366000C3F140438B42EFF3008070472DE9C04126
:1036700030B4DFF8A4C23CEA111418BF3CEA1314BA
:1036800000F0ED801CEA111481EA030544EAD574C8
:1036900018BF1CEA131500F0C880A4EB050404F160
:1036A0007F7404F500344FF0004545EAC12145EA36
:1036B000C32341EA505143EA52534FEAC0204FEA34
:1036C000C222994208BF904200F09D804FEA1365E4
:1036D0000FF24416765D4FEA134506FB05F7C7F176
:1036E000807706FB07F74FEAD737A7FB03687642D8
:1036F000A7FB06CEC8F5803838BFA8F1010807FB44
:1037000008E6A6FB028C4FF0000EE6FB03CEDCF1D0
:10371000000CCEF1004E38BFAEF1010EA6FB0C58E6
:103720004FF00007E6FB0E87A1FB08C6A0FB07CE03
:1037300016EB0E064FF0000545F10005E1FB0765AD
:1037400015F1E04E7EBFA4F580345FEA46066D4178
:1037500016F1800745F100054FEA172747EA05678C
:103760004FEA15254FEA0666A6F1DE46B6F1805F00
:1037700020D9384605EBC47124F0010C01EB0C1183
:10378000BCF1FE6F02D8F0BCBDE8008124425CBFF2
:1037900001F5801E9EEAC47F02D4F0BCBDE8008122
:1037A000244200F13980A1F1C041F0BCBDE80041E4
:1037B00000F030BA4FEAD02040EA41504FEAD12120
:1037C0004FEAD22242EA43524FEAD323A7FB0286B2
:1037D00007FB036605FB02661EEA0E0F58BFA6EB49
:1037E0000056B6EB00564FEA520E4EEAC37E18EB77
:1037F0000E0E56EB530EBCD518EB02085E417F1C33
:1038000055F10005B5E74FF480154FF000074FF074
:1038100000064FF00008ACE701F1C04101F00041A3
:103820004FF00000F0BCBDE800810CEA131511EA6E
:103830000C1F00D00CE013EA0C1F00F026804FF0A4
:10384000000081EA030101F00041F0BCBDE8008105
:10385000F0BCBDE8004181EA030100F0DBB9F0BC37
:10386000BDE8004170B500F087F900BF097EFC3E5D
:1038700000F007B84FF0000081EA030101F00041B9
:10388000704781EA030100F0C5B9F0BCBDE8004112
:1038900022494FF000007047FFFDFBF9F7F5F4F205
:1038A000F0EEEDEBE9E8E6E4E3E1E0DEDDDBDAD8DB
:1038B000D7D5D4D3D1D0CFCDCCCBCAC8C7C6C5C439
:1038C000C2C1C0BFBEBDBCBBBAB9B8B7B6B5B4B350
:1038D000B2B1B0AFAEADACABAAA9A8A8A7A6A5A43B
:1038E000A3A3A2A1A09F9F9E9D9C9C9B9A999998FF
:1038F0009797969595949393929191908F8F8E8EA2
:103900008D8C8C8B8B8A898988888787868585842E
:1039100084838382828181800000FF070000F87F1A
:103920004FEA41034FEA5353A3F58063D3F11E03DB
:10393000C8BFD3F1210C0CDD4FF0004242EAC12296
:1039400042EA505232FA03FC8CEAE17CACEBE170C3
:103950007047102BC4BF0020704703F5787CBCF182
:10396000FF3F04D06FF0004282EA2100704770B53B
:1039700000F002F94992248000207047F2E710F02D
:10398000004248BF4042B0FA80F310FA03F10AD077
:10399000C3F11D0303F5806302EB03524FEA41506C
:1039A00002EBD12170474FF00000704751EA030C41
:1039B00017D41CF5801F58BFBCF5801F00F106808E
:1039C000994218BF704708BF9042704707D711F55A
:1039D000801F58BF13F5801F19D499427047894240
:1039E00070471CF5801F08D5BCF5801FF7D58B42AA
:1039F00018BF704708BF824270474FF4001C1CEB91
:103A0000410F38BF1CEB430F01D28B42704770B59A
:103A100000F0B2F8922449004FF000514FF080536B
:103A2000FFF718BE70B5DFF848C11CEA111E1EBFB3
:103A30001CEA13159EEA0C0F95EA0C0F00F06F803C
:103A400081EA03044EEAD47EAE4421EA4C1123EA13
:103A50004C1341F4801143F48013AEF17F7EA1FB3F
:103A6000024CA0FB0365361955EB0C05A1FB034C7A
:103A70004CF10003A0FB021C16EB0C06654153F150
:103A80000003094218BF46F0010613F4007F0BD172
:103A90004FEA03314FEA053041EA155140EA16502A
:103AA00034036FF003020AE04FEAC3214FEAC52056
:103AB00041EA555140EA5650F4026FF0020202EB1F
:103AC0002E4201EB025585EACE710AD05FEA440C22
:103AD00018BF24F0004450F1000041F1000120EA39
:103AE000D47040F2FE7C624500D270BDA84214BF83
:103AF0004FF080444FF04044002E08BF0024BEF138
:103B0000806FA8BFA1F1C041BDE8704080F2828003
:103B100001F1C04101F000414FF0000070470CEA94
:103B200013159EEA0C0F18BF95EA0C0F06D081EA18
:103B3000030E4FF000000EF0004170BD00F01CF8C5
:103B40008900013E00F007B800F009B84FEA430CC5
:103B50005FEA5C5C08D081EA030100F05BB84FEAE1
:103B6000410C5FEA5C5CF6D102494FF000007047FF
:103B70000000FF070000F87F0EF1020E2EF0030E8A
:103B80005EF8046B364205D4012A43EB030515F5B4
:103B9000001F12D8012841EB010C1CF5001F0CD8A6
:103BA0000ED14FEAD17C0CEB4C0C0CF1020C15F54C
:103BB000001F08BF4CEBD37C04E04FF0080C01E081
:103BC0004FEAD37C0CEB4C0526FA05F606F0070607
:103BD000B6F1040C06D20EEB860CBDE870404CF03A
:103BE000010C6047DFE80CF0090B02024FF00041C6
:103BF000A1F500214FF0000070BD194610460128C4
:103C000051EB010418BFD4F5001484BF002001F06B
:103C1000004170BD0808A0F500114FEA310170475E
:103C200053EA010C17D41CF5801F58BFBCF5801F48
:103C300000F106808B4218BF704708BF8242704770
:103C400007D713F5801F58BF11F5801F19D48B4279
:103C500070479B4270471CF5801F08D5BCF5801F3C
:103C6000F7D5994218BF704708BF904270474FF48C
:103C7000001C1CEB430F38BF1CEB410F01D29942D3
:103C800070470FB40CBC03BCFFF7C1BE5FEA410C28
:103C90005FEA5C5CACF580635B1C39D4D3F1340221
:103CA00040F34580B2F1200314DA4FF0010C0CFA16
:103CB00002FCACF10103034020EA0300B3EB5C0219
:103CC00008BF10EA0C0F98BF704710EB0C0041F1D1
:103CD000000170470AD0C3F1200201FA02FC01285A
:103CE0004CF1000021FA03F101FA03F14FF0010C4D
:103CF0000CFA03FCACF1010321EA0301B0F1004F1F
:103D000008BF11EA0C0F4FF0000088BF61447047F4
:103D1000B3F1FF3F28BF50EAC12C01F000414FF042
:103D2000000084BF41F07C5141F470017047B3F54D
:103D3000806FB8BF704770B5FFF71EFF40DBB6BE9F
:103D400010B591EA030F48BF83F000433FF5E2ABA3
:103D5000841A71EB030C07D28CF0004C121943EB60
:103D60000C03001B61EB0C014FEA1154A4EB135C34
:103D7000DFF8A4E11EEA430F18BF9EEA445F00F09B
:103D8000B48021EA045123EA6E035242C3EB6E036E
:103D900038BF5B1EDCF1200E25D322FA0CFE10EB9F
:103DA0000E0043FA0CFE41EB0E01CCF1200E03FA9B
:103DB0000EFE10EB0E00CCF1200E51F1000129D4C3
:103DC00001EB045112FA0EF2BDE8104058BF7047E3
:103DD000401C1CBFB2F1004F704700280CBF491CAB
:103DE00020F00100704712EB020E43EB030218BFF4
:103DF0004FF0010E4EEA4202ACF1200CDCF11E0E37
:103E000056D943FA0CFE10EB0E00CCF11E0E51F108
:103E1000FF31D5D50EF1010E12FA0EFE404141EBF5
:103E2000010101EB445C5FEA5C5C10D901EB0451D9
:103E300010EBDE7038BFBEF1004FBDE8104018BF78
:103E4000704700280CBF491C20F00100704734D295
:103E50004FEAD42C24F4006411F500111BD0B1FA00
:103E600081F20B3AA41AA41ED2F12003914030FA39
:103E700003F31943904001EBCC7101EB0451002C8A
:103E8000BDE81040A8BF704701F1C04101F00041FA
:103E90004FF000007047B0FA80F310FA03F102D13E
:103EA000BDE810407047E41A173C4805C90AE2E72C
:103EB00001EB0451BDE81040704749104FEA300053
:103EC00001EB0451BDE8104002E04FF000017047E3
:103ED0004A0008BF0042F8D0B2F5001F28BF704763
:103EE00001F000414FF0000070479EEA445F07D0A8
:103EF00011EA5E0FBDE8104004BF002100207047AA
:103F0000BDE8104070B5FFF737FE00BF40DFF63E5A
:103F1000104683F0004170470000E0FF43004FEA85
:103F2000D30C4FEA3C0C43401FBF40070CF16051DB
:103F300013F0FE4F70471CF0006F03D10CF00041EE
:103F4000002070470CF0004343EA507040EACC0078
:103F500010B500F00EF800BF000000924FEA00011B
:103F6000FFF758BE4FF00041A1F500214FF00000CF
:103F700070470EF1020E2EF0030E5EF8044B244241
:103F800004D44FEA4102B2F17F4F11D84FEA400307
:103F9000B3F17F4F0CD80ED14FEAD07C0CEB4C0C18
:103FA0000CF1020CB2F17F4F08BF4CEBD17C04E066
:103FB0004FF0080C01E04FEAD17C0CEB4C0324FAE3
:103FC00003F404F00704B4F1040C06D20EEB840CE5
:103FD000BDE810404CF0010C6047DFE80CF007082A
:103FE00002024FF00040A0F5800010BD08464200DC
:103FF00018BFD2F1807288BF00F0004010BDF1EE12
:10400000100A4FF6FF71C0F2C03120EA010040F003
:104010004070E1EE100A7047FF2141EAD050C00520
:1040200070470000000000000000010203040607C2
:1040300008090000000001020304000005800F8051
:104040000A001B801E0014001180338036003C00E3
:10405000398028002D8027802200638066006C0054
:10406000698078007D8077807200500055805F8085
:104070005A004B804E0044004180C380C600CC00F3
:10408000C980D800DD80D780D200F000F580FF80A5
:10409000FA00EB80EE00E400E180A000A580AF8094
:1040A000AA00BB80BE00B400B180938096009C0043
:1040B000998088008D8087808200838186018C01B1
:1040C000898198019D8197819201B001B581BF815D
:1040D000BA01AB81AE01A401A181E001E581EF81CC
:1040E000EA01FB81FE01F401F181D381D601DC01FB
:1040F000D981C801CD81C781C201400145814F816D
:104100004A015B815E0154015181738176017C011A
:10411000798168016D8167816201238126012C010B
:10412000298138013D8137813201100115811F81BC
:104130001A010B810E0104010181038306030C03A4
:10414000098318031D8317831203300335833F83CC
:104150003A032B832E0324032183600365836F833B
:104160006A037B837E0374037183538356035C036A
:10417000598348034D8347834203C003C583CF83DC
:10418000CA03DB83DE03D403D183F383F603FC038A
:10419000F983E803ED83E783E203A383A603AC037B
:1041A000A983B803BD83B783B203900395839F832C
:1041B0009A038B838E0384038183800285828F829E
:1041C0008A029B829E0294029182B382B602BC0252
:1041D000B982A802AD82A782A202E382E602EC02C3
:1041E000E982F802FD82F782F202D002D582DF82F4
:1041F000DA02CB82CE02C402C182438246024C0262
:10420000498258025D8257825202700275827F8213
:104210007A026B826E0264026182200225822F8202
:104220002A023B823E0234023182138216021C02B1
:10423000198208020D820782020200006042000813
:104240000000002010000000C401000870420008B7
:1042500010000020B0090000E0010008000000008C
:1042600001000000100000000024F4000000000025
:040000050800018965
:00000001FF
